:020000040000fa
:080000000002040000000000f2
:020000040000fa
:10000800f4100000f4100000f4100000f4100000d8
:10001800f4100000f4100000f4100000f4100000c8
:10002800f4100000f4100000f4100000f8080000bc
:1000380094020000f4100000f41000001c090000f5
:1000480040090000f4100000f4100000f410000053
:10005800f4100000f4100000ae020000f4100000dc
:10006800f4100000f4100000f4100000f410000078
:10007800f4100000f4100000f4100000f410000068
:10008800f4100000f4100000f410000064090000ef
:1000980088090000f4100000f4100000f4100000bb
:1000a800f4100000f4100000f4100000d802000062
:1000b800f4100000f4100000f4100000f410000028
:1000c800f4100000f4100000f4100000f410000018
:1000d800f4100000f4100000f4100000f410000008
:1000e800f4100000f4100000f4100000f4100000f8
:1000f800f4100000f4100000f4100000f4100000e8
:10010800f4100000f4100000f4100000f4100000d7
:10011800f4100000f4100000f4100000f4100000c7
:10012800f4100000f4100000f4100000f4100000b7
:10013800f4100000f4100000f4100000f4100000a7
:10014800f4100000f4100000f4100000f410000097
:10015800f4100000f4100000f4100000f410000087
:10016800f4100000f4100000f4100000f410000077
:10017800f4100000f4100000f4100000f410000067
:10018800f4100000f4100000f4100000f410000057
:10019800f4100000f4100000f4100000f410000047
:1001a800f4100000f4100000f4100000f410000037
:1001b800f4100000f4100000f4100000f410000027
:1001c800f4100000f4100000f4100000f410000017
:1001d800f4100000f4100000f4100000f410000007
:1001e800f4100000f4100000f4100000f4100000f7
:0801f800f4100000f4100000f7
:020000040000fa
:10020800f4100000f4100000f4100000f4100000d6
:10021800f4100000f4100000f4100000f4100000c6
:10022800f4100000f4100000f4100000f8080000ba
:1002380094020000f4100000f41000001c090000f3
:1002480040090000f4100000f4100000f410000051
:10025800f4100000f4100000ae020000f4100000da
:10026800f4100000f4100000f4100000f410000076
:10027800f4100000f4100000f4100000f410000066
:10028800f4100000f4100000f410000064090000ed
:1002980088090000f4100000f4100000f4100000b9
:1002a800f4100000f4100000f4100000d802000060
:1002b800f4100000f4100000f4100000f410000026
:1002c800f4100000f4100000f4100000f410000016
:1002d800f4100000f4100000f4100000f410000006
:1002e800f4100000f4100000f4100000f4100000f6
:1002f800f4100000f4100000f4100000f4100000e6
:10030800f4100000f4100000f4100000f4100000d5
:10031800f4100000f4100000f4100000f4100000c5
:10032800f4100000f4100000f4100000f4100000b5
:10033800f4100000f4100000f4100000f4100000a5
:10034800f4100000f4100000f4100000f410000095
:10035800f4100000f4100000f4100000f410000085
:10036800f4100000f4100000f4100000f410000075
:10037800f4100000f4100000f4100000f410000065
:10038800f4100000f4100000f4100000f410000055
:10039800f4100000f4100000f4100000f410000045
:1003a800f4100000f4100000f4100000f410000035
:1003b800f4100000f4100000f4100000f410000025
:1003c800f4100000f4100000f4100000f410000015
:1003d800f4100000f4100000f4100000f410000005
:1003e800f4100000f4100000f4100000f4100000f5
:0803f800f4100000f4100000f5
:020000040000fa
:10040000efe920000e5f24000e01880000000000cc
:1004100000012000200288000c000700802a26002e
:100420000100200011000700000020000000e00093
:100430000200320000000200000000006c490200cf
:10044000000000000040da000000fe004440a90067
:10045000000020000000e000030032000000200047
:10046000a00188004440a800000006009101880017
:10047000800078000000eb0015003700e2804000ab
:1004800032a0b4009101ba00e280400032a0b40072
:100490009102ba00e280400032a0b4000002eb00fa
:1004a000472bde00f507b200602ce10004003a00a3
:1004b0000059eb008301e900fdff3e000400370016
:1004c0006128e100010032000082eb000400070017
:1004d0001101ba000200e000e8ff3a000000060047
:1004e0003159ba008301e9000c0032002159ba00e9
:1004f0008301e900080032000400e00003003a0034
:10050000e280400032a0b400f5ff370011d9ba00f4
:100510008301e900faff3a008100e800e180400031
:1005200032a0b4000000060000a0fe003400f80075
:10053000881f780008002000a80188004f04780078
:100540000000fa008480a9000500fc000080fa0089
:100550003400f9000080fe000040060000a0fe000c
:100560003600f800849fbe00869fbe003400f8006d
:1005700004002000a40188000000fa00c0e8200068
:1005800026020700c0e82000d723070085c0a90085
:100590000500fc000080fa003400f9004f03be00a3
:1005a0004f02be003600f9000080fe000040060049
:1005b00000a0fe00841f78003400f8000400200032
:1005c000a40188000000fa00242080008860a900af
:1005d0000500fc000080fa003400f9004f027800aa
:1005e0000080fe00004006000400fa00004f780082
:1005f0001107980042c7a9001d29070042c7a8009b
:1006000081c3a90081a3a8008183a9008163a900f7
:10061000041c80000440a1000450a000041c8800b9
:10062000041c80000400a1000410a100041c880028
:1006300083e3a900151c800004f82f008482620067
:100640006404200004827200141c880004602000ee
:10065000241c880024442000441c880074002000ce
:10066000541c880081e3a8008dc3a9008da3a900b4
:100670008d83a9008d63a900641c80000440a10043
:100680000450a000641c8800641c80000400a100c9
:100690000410a100641c88008fe3a900751c800071
:1006a00004f82f0084826200240220000482720079
:1006b000741c880004602000841c8800044420000e
:1006c000a41c880074002000b41c88008de3a800de
:1006d0009480a9008480a900340580000400a00053
:1006e0000410a1000420a0003405880095c0a800d3
:1006f00085c0a900540580000480a0000490a100da
:1007000004a0a000540588000004a90040c0b30064
:10071000620207000064a90001a4a9000184a900e5
:100720000164a8001520800004fe2f0004826200ee
:10073000142088001e029000fe0f5200220032009a
:1007400085022000850f520003003200ea0f52009c
:100750003900320054003700842080000460a1007a
:100760000470a100842088008520800004fc2f00f4
:10077000048262003400b3008420880013c4a900fe
:10078000942080000480a1000490a00004a0a10097
:100790009420880012e4a800942080000430a10076
:1007a0000440a0000450a100942088009420800000
:1007b0000400a1000410a0000420a10094208800df
:1007c00012c4a8003a003700842080000460a10011
:1007d0000470a100842088008520800004fc2f0084
:1007e000048262000410a0008420880013c4a900c1
:1007f000942080000480a1000490a00004a0a10027
:100800009420880012e4a800942080000430a10005
:100810000440a0000450a10094208800942080008f
:100820000400a1000410a0000420a100942088006e
:1008300012c4a8001e003700842080000460a100bc
:100840000470a100842088008520800004fc2f0013
:10085000048262000400a0008420880013c4a90060
:10086000942080000480a1000490a00004a0a100b6
:100870009420880012e4a800942080000430a10095
:100880000440a0000450a10094208800942080001f
:100890000400a1000410a0000420a10094208800fe
:1008a00012c4a800020037000082eb009500370058
:1008b00030e4a80031e4a80032e4a80033e4a80042
:1008c00034e4a80035e4a80036e4a80037e4a80022
:1008d000842180000400a0000410a000842188006e
:1008e000842180000480a0000490a000842188005e
:1008f000942180000400a1000410a000942188002d
:10090000942180000480a1000490a000942188001c
:10091000a42180000400a0000410a100a4218800ec
:10092000a42180000480a0000490a100a4218800dc
:10093000b42180000400a1000410a100b4218800ab
:10094000b42180000480a1000490a100b42188009b
:100950003420800004d0a10004e0a10004f0a00035
:10096000342088003520800004fe2f0004826200bd
:100970000430a000342088000002eb0054208800de
:100980000ce4a9000cc4a9000ca4a9000c64a900e3
:100990000c44a9000c24a8000c04a8008860a9003d
:1009a0008840a9008cc0a9009860a8009840a900c0
:1009b0009cc0a900a405800004c0a00004d0a00031
:1009c00004e0a100a4058800a40580000480a00024
:1009d0000490a00004a0a100a405880034068000b3
:1009e0000480a0000490a00004a0a10034068800a8
:1009f0000004a80084218000ff02620004e02700b8
:100a000004827200842188003064a8008421800060
:100a10000400a1000410a100842188000002eb0062
:100a2000942188000002eb00a42088001404a80090
:100a30009e4278000582fb004422dd00840278009b
:100a4000f47f2000048262004522dd000522800040
:100a5000ff82620004827200042288004064a900c0
:100a6000042280000400a1000410a10004228800d8
:100a70000002eb0014228800c42080000400a100c2
:100a80000410a100c42088001424a800242280009f
:100a90007f026200242288004464a900242280008e
:100aa0000400a1000410a100242288000002eb0031
:100ab00034228800c42080000420a1000430a1005a
:100ac000c4208800042180000400a0000410a000bd
:100ad0000420a0000430a00004218800042180002c
:100ae0000440a0000450a0000460a0000470a00016
:100af000042188000004a9000040eb006701070002
:100b00000002eb00040078000080fa0000000600fc
:100b10000600fa00200798000002eb001407980076
:100b20002e02900094027800f47f2000848f5200ff
:100b300014003e002e02900014039000a4039000c5
:100b4000f4ff2f0035002000840f5300858f5b00d9
:100b50000c003e002e02900074429000e84f5200bc
:100b600008003e002e02900074429000e04f5200b8
:100b7000040032002e02900064429000e14f5200c7
:100b80000200360014c0b300a10037005f01070067
:100b900000027800140798001e029000e10f420046
:100ba000030032001e029000e70f520002003400e2
:100bb00024c0b300960037002e0290001402780083
:100bc000c222dd002e029000644290000482fb00ed
:100bd00004824200840278001e0290004423dd005b
:100be0000460240004024300050a78002e029000ed
:100bf00014039000a403900004fc2f003500200093
:100c00000600780007037800840378000502780066
:100c1000070060000402630005002000c022dd0020
:100c2000040020000403be006102b8000403730046
:100c300085837300ca38dd004632de00048270000e
:100c4000c63ade00840278001e0290004423dd00d4
:100c50002460240004024300050a78002e0290005c
:100c6000a40290001402900004027800ca22dd0061
:100c70002e029000744290000482fb000482420025
:100c8000840278001e0290004423dd0044602400aa
:100c900004024300050a78000002eb00040f78000c
:100ca0000002eb00040f7800190037001e027800e4
:100cb000630342001e02780004024200ae0290006c
:100cc0006802420065427a008482fb001e027800be
:100cd000040242000402e800ae03900068024200f1
:100ce00067427a000482fb004822dd0084824200d1
:100cf0001e0290004322dd0006024200040342006f
:100d00000460240004024300050a78001e0fe80076
:100d10002e029000744290000482fb00cfa2de00fd
:100d20000400be00320507000002be0002002000e1
:100d3000030024000400be00300507000002be00ce
:100d40000200200003f023000400be00c9050700d4
:100d50000002be000400be009e0507000002be00a7
:100d6000040278009e0f5200d0ff3c001e0290004b
:100d7000c422dd00e4602400048242008002eb0013
:100d8000050a78001e029000cfa2de007600200047
:100d900007002000860f5200878f5a0019003e007e
:100da0000460010007003700080037000900370021
:100db0000a0037000b0037000c0037000d00370029
:100dc0000e0037003064a800100037003164a8001e
:100dd0000e0037003264a8000c0037003364a8000e
:100de0000a0037003464a800080037003564a80002
:100df000060037003664a800040037003764a800f6
:100e00000200370024c0b300010037000042eb00ad
:100e1000044078000080fa00000006000600fa0096
:100e2000200798004420800004427800f443b20078
:100e30000482fb00140798001e029000c422dd000b
:100e4000046024000482420094027800c4ff210060
:100e50000482620042a2de00840278002e0290002a
:100e6000050a78001e0290004422dd008482e8001a
:100e7000046024000482420094027800c4ff210030
:100e8000048262004622dd00840278001e02900087
:100e90004422dd0064034200046024000402430095
:100ea000140278004a22de0004824200050020007d
:100eb0002e03900014039800250398001e02900052
:100ec000c422dd0004602400048242001402780081
:100ed0000442780061426200ae029000e442980051
:100ee0001e0290004422dd00e4024200046024005f
:100ef0000482420014027800044278006f426200cb
:100f0000ae029000f44298000002eb00040f78005b
:100f10000002eb00040f7800220037001e02780068
:100f200004024200840278001e037800630243003a
:100f30001e0390004333dd0004024300040342001b
:100f40000460240004024300140278000442780084
:100f50002e03900085024300844a98001e02780008
:100f6000040242008402e8001e037800630243008a
:100f70001e0390004333dd000402430004034200db
:100f80000460240004024300140278004822de00ba
:100f9000044278002e03900085024300844a9800a2
:100fa0001e0fe8002e029000744290000482fb00a5
:100fb000cfa2de000400be008d0407000002be00c8
:100fc00002002000030024000400be008b04070080
:100fd0000002be000200200003f023000400be0057
:100fe000240507000002be000400be00f90407004b
:100ff0000002be00040278009e0f5200c7ff3c00b2
:101000001e0290006123b90084ff2f00f5ff2f001e
:101010000602420087824a00760020000700200076
:10102000860f5200878f5a0019003e0004600100ad
:101030000700370008003700090037000a003700b2
:101040000b0037000c0037000d0037000e00370092
:101050002104a9000f0037002124a9000d0037004a
:101060002144a9000b0037002164a90009003700c2
:101070002184a9000700370021a4a900050037003a
:1010800021c4a9000300370021e4a90001003700b2
:10109000000000000080fa00000006000200fa00d4
:1010a000004f78001e427800e74f520014003e00c7
:1010b0009e42780067c262000482fb006702620001
:1010c0004822dd0006208000f58f2f008502630096
:1010d00004827200042088000000000004208000c8
:1010e0004522de00674262008482fb001e437800d6
:1010f0000682fb00848f5200f8ff3a00010037009f
:10110000ffff37000080fa00000006000000fa0030
:101110008421800068026200e00f520002003a0061
:101120000002eb002f0037008521800004802000a2
:1011300004826200e00f520002003a001400200016
:10114000280037009421800068026200e00f5200fe
:1011500002003a0024002000220037009521800080
:101160000480200004826200e00f520002003a0076
:10117000340020001b003700a421800068026200b8
:10118000e00f520002003a00440020001500370032
:10119000a52180000480200004826200e00f52003c
:1011a00002003a00540020000e003700b4218000f5
:1011b00068026200e00f520002003a006400200062
:1011c00008003700b52180000480200004826200fe
:1011d000e00f520002003a007400200001003700c6
:1011e0000082eb00040078000080fa000000060096
:1011f00000a0fe003600f800849fbe00869fbe005f
:101200003400f80004002000a40188000000fa0067
:10121000bc2007008460a9000500fc000080fa00e3
:101220003400f9004f03be004f02be003600f90043
:101230000080fe000040060000a0fe003600f8001e
:10124000849fbe00869fbe003400f800040020008a
:10125000a40188000000fa004026070084e0a900ed
:101260000500fc000080fa003400f9004f03be00c6
:101270004f02be003600f9000080fe00004006006c
:1012800000a0fe003600f800849fbe00869fbe00ce
:101290003400f80004002000a40188000000fa00d7
:1012a000322607008500a9000500fc000080fa0036
:1012b0003400f9004f03be004f02be003600f900b3
:1012c0000080fe000040060000a0fe003600f8008e
:1012d000849fbe00869fbe003400f80004002000fa
:1012e000a40188000000fa00232607008760a900f7
:1012f0000500fc000080fa003400f9004f03be0036
:101300004f02be003600f9000080fe0000400600db
:1013100000a0fe003600f800849fbe00869fbe003d
:101320003400f80004002000a40188000000fa0046
:10133000142607008780a9000500fc000080fa0041
:101340003400f9004f03be004f02be003600f90022
:101350000080fe00004006000200fa00000f780046
:101360001e02780004427800614262000482fb00a1
:101370004f22dd0026088000f5ff2700850263006c
:1013800004827200240888000080fa000000060031
:101390000200fa00000f78001e0278000442780074
:1013a000614262000482fb004f22dd00860880005b
:1013b000f5ff27008502630004827200840888001c
:1013c0000080fa00000006000200fa00000f78001a
:1013d0001e02780004427800614262000482fb0031
:1013e0004f22dd0096088000f5ff2700850263008c
:1013f00004827200940888000080fa000000060051
:101400000200fa00000f78001e0278000442780003
:10141000614262000482fb004f22dd00f60880007a
:10142000f5ff27008502630004827200f40888003b
:101430000080fa00000006000200fa00000f7800a9
:101440001e02780004427800614262000482fb00c0
:101450004f22dd0006098000f5ff270085026300aa
:1014600004827200040988000080fa00000006006f
:101470000c00fa00881f78002007980031079800b8
:1014800042079800530798004e019000de0190003b
:101490000000200001f82300580307000002be00ee
:1014a000048fbe0005a1a80004c1a9000421a90061
:1014b0000508800014088000848f52008c003100e1
:1014c00002f02f00f37724001e00be008d030700fa
:1014d0000002be0018c0b3002e019000be019000b3
:1014e0000400be00de03070000027800e00f520097
:1014f00001003d000044eb00e04f540010003200ba
:10150000240880000440a1000450a10024088800a1
:101510001e01be002e009000be00900037030700a1
:101520000002be000400be00aa0307000002be00c5
:101530000402780067025200140888006c0037002b
:1015400002f02f00f38f24001e00be006d03070081
:101550000002be0018c0b3002e019000be01900032
:101560000400be00be03070000027800e00f520036
:1015700001003d000044eb00e04f54001500320034
:10158000240880000440a0000450a1002408880022
:1015900002002000031024001e00be0059030700b3
:1015a0000002be000401be002e009000be009000ac
:1015b000120307000002be000400be0085030700fe
:1015c0000002be00040278000402e900140888004a
:1015d0004700370002f02f00f3a724001e00be00d2
:1015e000480307000002be0018c0b3002e0190009f
:1015f000be0190000400be009903070000027800bd
:10160000e00f520001003d000044eb00e04f5400a9
:1016100014003200240880000440a1000450a000ff
:101620002408880002002000032824001e00be00b9
:10163000340307000002be000401be002e0090002b
:10164000be009000ed0207000002be000400be00d4
:10165000600307000002be0004027800140888003e
:101660002300370002f02f00f3b724001e00be0055
:10167000240307000002be0018c0b3002e01900032
:10168000be0190000400be00750307000002780050
:10169000e00f520001003d000044eb00e04f540019
:1016a0001b003200240880000440a0000450a00069
:1016b0002408880002002000033824001e00be0019
:1016c000100307000002be000401be002e009000bf
:1016d000be009000c90207000002be000400be0068
:1016e0003c0307000002be000402780014088800d2
:1016f0008460a9009460a8002405800004c0a100b3
:1017000004d0a00004e0a0002405880001003700f8
:10171000000000004f0478000080fa00000006007e
:101720000c00fa00881f7800200798003107980005
:1017300042079800530798004e019000de01900088
:101740000000200001f82300ac0207000002be00e8
:10175000048fbe0011a1a80010c1a9001061a9004a
:101760001021a9003508800064088000848f520091
:101770008c00310002f02f00f37724001e00be0021
:10178000e00207000002be0018c0b3002e01900066
:10179000be0190000400be00310307000002780083
:1017a000e00f520001003d000044eb00e04f540008
:1017b00010003200840880000440a1000450a10001
:1017c000840888001e01be002e009000be0090001c
:1017d0008a0207000002be000400be00fd020700ee
:1017e0000002be000402780067025200640888000c
:1017f0006c00370002f02f00f38f24001e00be00a3
:10180000c00207000002be0018c0b3002e01900005
:10181000be0190000400be00110307000002780022
:10182000e00f520001003d000044eb00e04f540087
:1018300015003200840880000440a0000450a1007c
:101840008408880002002000031024001e00be004f
:10185000ac0207000002be000401be002e00900092
:10186000be009000650207000002be000400be003a
:10187000d80207000002be00040278000402e9005a
:10188000640888004700370002f02f00f3a7240007
:101890001e00be009b0207000002be0018c0b3007d
:1018a0002e019000be0190000400be00ec02070073
:1018b00000027800e00f520001003d000044eb0000
:1018c000e04f540014003200840880000440a1005e
:1018d0000450a0008408880002002000032824008f
:1018e0001e00be00870207000002be000401be0009
:1018f0002e009000be009000400207000002be00d3
:101900000400be00b30207000002be00040278001b
:10191000640888002300370002f02f00f3b724008a
:101920001e00be00770207000002be0018c0b30010
:101930002e019000be0190000400be00c802070006
:1019400000027800e00f520001003d000044eb006f
:10195000e04f54001b003200840880000440a000c7
:101960000450a000840888000200200003382400ee
:101970001e00be00630207000002be000401be009c
:101980002e009000be0090001c0207000002be0066
:101990000400be008f0207000002be0004027800af
:1019a0006408880084e0a90094e0a8003405800061
:1019b00004c0a10004d0a00004e0a0003405880009
:1019c00001003700000000004f0478000080fa009a
:1019d000000006000c00fa00881f7800200798001d
:1019e0003107980042079800530798004e01900075
:1019f000de0190000000200001f82300ff01070035
:101a00000002be00048fbe0013a1a80012c1a900ed
:101a10001221a9005508800074088000848f5200ac
:101a20008c00310002f02f00f37724001e00be006e
:101a3000340207000002be0018c0b3002e0190005f
:101a4000be0190000400be0085020700000278007d
:101a5000e00f520001003d000044eb00e04f540055
:101a600010003200940880000440a1000450a1003e
:101a7000940888001e01be002e009000be00900059
:101a8000de0107000002be000400be005102070094
:101a90000002be0004027800670252007408880049
:101aa0006c00370002f02f00f38f24001e00be00f0
:101ab000140207000002be0018c0b3002e019000ff
:101ac000be0190000400be0065020700000278001d
:101ad000e00f520001003d000044eb00e04f5400d5
:101ae00015003200940880000440a0000450a100ba
:101af0009408880002002000031024001e00be008d
:101b0000000207000002be000401be002e0090008b
:101b1000be009000b90107000002be000400be0034
:101b20002c0207000002be00040278000402e90053
:101b3000740888004700370002f02f00f3a7240044
:101b40001e00be00ef0107000002be0018c0b30077
:101b50002e019000be0190000400be00400207006c
:101b600000027800e00f520001003d000044eb004d
:101b7000e04f540014003200940880000440a1009b
:101b80000450a000940888000200200003282400cc
:101b90001e00be00db0107000002be000401be0003
:101ba0002e009000be009000940107000002be00cd
:101bb0000400be00070207000002be000402780015
:101bc000740888002300370002f02f00f3b72400c8
:101bd0001e00be00cb0107000002be0018c0b3000b
:101be0002e019000be0190000400be001c02070000
:101bf00000027800e00f520001003d000044eb00bd
:101c0000e04f54001b003200940880000440a00004
:101c10000450a0009408880002002000033824002b
:101c20001e00be00b70107000002be000401be0096
:101c30002e009000be009000700107000002be0060
:101c40000400be00e30107000002be0004027800a9
:101c5000740888008500a9009500a800440580004c
:101c60000400a1000410a0000420a0004405880086
:101c700001003700000000004f0478000080fa00e7
:101c8000000006000c00fa00881f7800200798006a
:101c90003107980042079800530798004e019000c2
:101ca000de0190000000200001f82300530107002e
:101cb0000002be00048fbe001fa1a8001ec1a90023
:101cc0001e61a9001e21a900a5088000d40880007b
:101cd000848f52008c00310002f02f00f377240033
:101ce0001e00be00870107000002be0018c0b3003e
:101cf0002e019000be0190000400be00d801070034
:101d000000027800e00f520001003d000044eb00ab
:101d1000e04f540010003200f40880000440a1009d
:101d20000450a100f40888001e01be002e0090009f
:101d3000be009000310107000002be000400be009a
:101d4000a40107000002be000402780067025200ee
:101d5000d40888006c00370002f02f00f38f2400b5
:101d60001e00be00670107000002be0018c0b300dd
:101d70002e019000be0190000400be00b8010700d3
:101d800000027800e00f520001003d000044eb002b
:101d9000e04f540015003200f40880000440a00019
:101da0000450a100f4088800020020000310240061
:101db0001e00be00530107000002be000401be0069
:101dc0002e009000be0090000c0107000002be0033
:101dd0000400be007f0107000002be00040278007c
:101de0000402e900d40888004700370002f02f0001
:101df000f3a724001e00be00420107000002be003f
:101e000018c0b3002e019000be0190000400be0077
:101e10009301070000027800e00f520001003d002e
:101e20000044eb00e04f540014003200f40880003e
:101e30000440a1000450a000f40888000200200023
:101e4000032824001e00be002e0107000002be0071
:101e50000401be002e009000be009000e7000700c5
:101e60000002be000400be005a0107000002be00ce
:101e700004027800d40888002300370002f02f0005
:101e8000f3b724001e00be001e0107000002be00c2
:101e900018c0b3002e019000be0190000400be00e7
:101ea0006f01070000027800e00f520001003d00c2
:101eb0000044eb00e04f54001b003200f4088000a7
:101ec0000440a0000450a000f40888000200200094
:101ed000033824001e00be000a0107000002be00f5
:101ee0000401be002e009000be009000c300070059
:101ef0000002be000400be00360107000002be0062
:101f000004027800d40888008760a9009760a800c0
:101f10008405800004c0a10004d0a00004e0a1005a
:101f20008405880001003700000000004f0478009d
:101f30000080fa00000006000c00fa00881f7800fc
:101f4000200798003107980042079800530798002f
:101f50004e019000de0190000000200001f82300f7
:101f6000a60007000002be00048fbe0021a1a80049
:101f700020c1a9002021a900c5088000e408800034
:101f8000848f52008c00310002f02f00f377240080
:101f90001e00be00db0007000002be0018c0b30038
:101fa0002e019000be0190000400be002c0107002d
:101fb00000027800e00f520001003d000044eb00f9
:101fc000e04f540010003200040980000440a100da
:101fd0000450a100040988001e01be002e009000dc
:101fe000be009000850007000002be000400be0095
:101ff000f80007000002be000402780067025200e9
:10200000e40888006c00370002f02f00f38f2400f2
:102010001e00be00bb0007000002be0018c0b300d7
:102020002e019000be0190000400be000c010700cc
:1020300000027800e00f520001003d000044eb0078
:10204000e04f540015003200040980000440a00055
:102050000450a1000409880002002000031024009d
:102060001e00be00a70007000002be000401be0063
:102070002e009000be009000600007000002be002d
:102080000400be00d30007000002be000402780076
:102090000402e900e40888004700370002f02f003e
:1020a000f3a724001e00be00960007000002be0039
:1020b00018c0b3002e019000be0190000400be00c5
:1020c000e700070000027800e00f520001003d0029
:1020d0000044eb00e04f540014003200040980007b
:1020e0000440a1000450a000040988000200200060
:1020f000032824001e00be00820007000002be006c
:102100000401be002e009000be0090003b000700be
:102110000002be000400be00ae0007000002be00c8
:1021200004027800e40888002300370002f02f0042
:10213000f3b724001e00be00720007000002be00bc
:1021400018c0b3002e019000be0190000400be0034
:10215000c300070000027800e00f520001003d00bc
:102160000044eb00e04f54001b00320004098000e3
:102170000440a0000450a0000409880002002000d0
:10218000033824001e00be005e0007000002be00ef
:102190000401be002e009000be0090001700070052
:1021a0000002be000400be008a0007000002be005c
:1021b00004027800e40888008780a9009780a800be
:1021c000940580000400a1000410a1000420a000d8
:1021d0009405880001003700000000004f047800db
:1021e0000080fa00000006000040da000000fe0057
:1021f0004f89de008201780029023700889fbe00e7
:102200008a9fbe008c1f7800350207003c02330015
:1022100003866c006450e1002e0032006420e1006f
:10222000330032006150e1002f0032006120e100f4
:102230003100320085855500eb07b0000900200011
:1022400008042000050037000804440089844c007d
:102250000a0031000603430087834b00000153004e
:1022600081815b00f8ff33000203be000800a0007c
:102270000804440089844c00f6ff3900c639dd00ab
:102280008301730001003200130020008904d10093
:102290000884d3000998a300050032000800a700b5
:1022a0000300a0008904d1000884d3008b05e80056
:1022b0008904d1000884d3000001eb000281d20020
:1022c0001f02070001f0a1000cf0a70001f0a00020
:1022d000140237006420e100160232000801be003b
:1022e0000200be00f7ff37006120e100110232005a
:1022f0006000b800f3ff37000000200001f827005d
:10230000f0ff3700889fbe008a9fbe008c1f7800b8
:10231000f3010700fa01330003866c006450e1000a
:10232000240032006420e100270032006150e10007
:10233000220032006120e100210032008b85420042
:10234000eb07b1000134b800003ab80008044200bd
:1023500089844a00013ab8000030b8008880400003
:1023600009014a0004003300000040008180480059
:10237000020149008b05e900c909dd0083017000f5
:102380000100320013002000c814de004814dd00f4
:102390004709de001200b200c808de0008847000a1
:1023a000e701070001f0a1000cf0a70001f0a00078
:1023b000dc0137006120e100de0132000801be00cf
:1023c0000200be00f7ff37006150e100fcff3a0059
:1023d000d80137000001be00ff0107000470a7000c
:1023e00003f0a1006509b100160032000d003500b0
:1023f0006828e10006003500f0ff2f00f1ff2700fc
:102400000300e00013003b0001002800000005006d
:1024100000004000818048008502e900fcff3a008e
:1024200008003700f88f420002003c008000eb00fb
:10243000000005008100d1000080d3008502e80083
:10244000fcff3a000300e00002003b0060001000c7
:10245000e0801800000006006011b800f3013700aa
:10246000f4ff2f002002370004002000390237005b
:1024700003f0a200889fbe008a9fbe008c1f7800d8
:10248000970107009e0133006450e1004f003200c5
:102490006420e1005200320003826c0007003b0020
:1024a0000905d0000306d000820f54000c065d0021
:1024b000020039000200320089017800030678002a
:1024c0008582550004003d000003fd008103fd00ee
:1024d0008502ea008b854200840f720002003b00f7
:1024e00060001000e08018006011b8000005eb00eb
:1024f0007a28e1000a00390006007800c75ddd0097
:10250000f707b200878075002d00370082817100c7
:102510000a017800610560008180d1000080d3004d
:102520008502e900f9ff3b0006044000878448006b
:1025300002003b0060041400e0841c000988a30032
:10254000070032008a81710082817100610164009c
:102550008904d1000884d3008b05e80017003700f8
:102560000978a30013003a000b00e00013003400c8
:102570008b05e9000804440089844c000a44740077
:102580000978a3000d003a000b00e00007003400ba
:102590008b05e9000804440089844c0001003a00de
:1025a0000b0020000978a300f7ff32000001eb00c8
:1025b00002003700828171000a0178006001070083
:1025c0000cf0a70001f0a000560137006420e100e4
:1025d00002003a00838f6c00560133000801be00f0
:1025e0000200be004f01370014002000be0137007a
:1025f00004002000bc0137000001eb00240237007a
:102600000081eb0022023700889fbe008a9fbe0037
:102610008c1f7800320107001002200002003b00ee
:10262000e0748800360137008a0062006408e10027
:1026300002003a00e07488003e0137006108e100c2
:10264000fcff32000800be0003047800ebfe070028
:1026500001f0a1007702070008f0a600040037008f
:102660000001be0091042400b0fd200080ff07009f
:1026700009f0a70001f0a2002a013700889fbe00e0
:102680008a9fbe008c1f78000004be005201070024
:102690000478a30026003a006120e1002500320002
:1026a00009f8a30025003a006420e100210032006f
:1026b000f507b1000508a300020032000000400049
:1026c000818048006044b800031020000200200010
:1026d00000004000818048000805440089854c00c6
:1026e0000a0541008b8549000a0550008b8558007a
:1026f000030033000a00be000204740083847400e7
:102700008301d1000281d300830f7100f0ff3a00f2
:102710008904d1000884d300600149008201780057
:10272000c1adde00fb07b00005010700fd0037006a
:102730000960a0000800be00fa0037001202200065
:10274000e2748800f0ff2f00f1ff2700f50037004a
:10275000889fbe008a9fbe008c9fbe009a02070021
:10276000850478000005be006420e10049003e00b9
:102770006220e10003003200090035000bf8a300dd
:10278000440032000bf8a3000800320010022000c1
:10279000e0748800f0ff2f00f1ff27003d003700b4
:1027a00001f82f00000020003a0037003d0007002c
:1027b0002fff07000006be000a00be00324f2000b7
:1027c00053f3230026ff0700060034000c00be0070
:1027d0003400070026ff07000006be000a00be0006
:1027e000020037008904e9000c00be002d0007003c
:1027f000c4fe07002b0007001eff07000001be00fb
:102800000c00be007dfe07000005be000001be00fa
:10281000bcfe07000006be00a2f32300430d2c00ff
:1028200014ff0700809fbe000c00be00d2e327000b
:10283000d3f02b00b3fe07004f01be006ffe070070
:102840000006be000a01be00aefe07000a01be007f
:1028500008ff07000006be006148b90064fe0700db
:102860000005be0032082800e3952b00a5fe0700f6
:102870000c01be00fffe07000006be000a00be00fd
:102880000200280013f323009efe07000c01be0087
:10289000f8fe07004f06be004f05be004f04be0005
:1028a0000000060003f0230002000500889fbe0020
:1028b0008a9fbe008c9fbe000004be00c6000700b9
:1028c0000800be006420e10048003e0055003200d0
:1028d00072212700132b2400e1fe070047003c0073
:1028e0000800be00c2ec2800e32c2c003eff0700cd
:1028f000470035000800be0001f0a10002002000e2
:102900000338230038ff0700430035000800be00ed
:10291000b2a32a0083fb23007afe070002002000f6
:1029200003f0230001f0a70003f0a000d1fe070090
:10293000a8fe07000005be002dfe070001f0a20062
:102940000006be000200280013f323006dfe0700fe
:102950000801be00c7fe0700809fbe000c00be003d
:1029600032082800e3952b0066fe07004f01be00e9
:10297000c0fe07000006be000001be0061fe0700a9
:10298000809fbe004241250083b823005dfe070002
:102990000200200003e82300b6fe07000c01be0081
:1029a00058fe07000006be004f00be00f2f92b00e3
:1029b000c3d4230053fe07000200200003f02300cd
:1029c000acfe07000c01be00a9fe07000001be001e
:1029d0000c00be0009fe07000200200003f02300e7
:1029e000a4fe070061014500040207004f06be0077
:1029f0004f05be004f04be000000060001f827008e
:102a00000000200022022000e2748800f7ff370057
:102a10006000b800fbff370001f823000000200031
:102a2000f2ff370009f8a300f0ff32006000b800a1
:102a3000eeff37000001be00670007000470a7002a
:102a400003f0a10003f8a30013003a006509b100e8
:102a500010003200090035006928e100020035004d
:102a600001002800000005000000400081804800af
:102a70008502e900fcff3a0000000600f88f4200e2
:102a8000050035008100d1000080d3008502e800f8
:102a9000fcff3a00000006008000eb00000005008b
:102aa000881f7800030478000300e00007003d0061
:102ab00060001000e080180060011900e08119003a
:102ac00002003b0001f02d00030037005700070013
:102ad00008f0a70001f0a0004f04780000000600f5
:102ae0000004be003c0007000003be000405be0059
:102af0000200be0038000700844f75000000060089
:102b00000200be006450e100050036006420e100d0
:102b1000020036000968a30001003a000800be0068
:102b20000160a0004f0678004f05be004f04be00b4
:102b300000000600f0ff2f00f1ff2700f9ff37002b
:102b400081002000618055000b003d000b0020003b
:102b500061fe2f000100e1001d0034008281710040
:102b6000610164008904d1000884d3000000e800fa
:102b7000faff3a0071002000610064000300700059
:102b8000020060000900320061044400e0844c004f
:102b90000988a500050032008b05e8006808e100ff
:102ba00002003a008904d1000884d300f20f20000b
:102bb0000258e10005003d00c75ddd00f907b200e5
:102bc0008980750008007800000006000bf82700d7
:102bd0008b00780000000500c70ade00f107b20094
:102be000f50fb20008003200e1cf420002003200cf
:102bf0000170a00024000500810f70000100320068
:102c00000408050044000500810f700002003a002e
:102c1000140005008502e9000000400081c0480062
:102c2000fcff3b000170a00024000500889fbe004f
:102c30008a9fbe000082700004027100048271004d
:102c4000260032000004be000200be006011b80081
:102c50006b092000950220000182cf000a00390094
:102c60000541b1000082cf00070039000541b100e5
:102c70000982cf00040039000541b1000882cf006d
:102c8000010039000541b100054252001200320036
:102c90000a003b0082817100610164008100d10063
:102ca0000080d3008984d3000884d3008b05e8001a
:102cb0000442e800f7ff3a00070037000804440028
:102cc00089844c0000004800818048008b05e900a1
:102cd0000442e900f9ff3a0099ff07004f05be00e2
:102ce0004f04be0000000600889fbe008a9fbe0001
:102cf000841f78007aff07004f007800110033002e
:102d0000f0ff2f00838f6c0006003b000405650078
:102d10000a00a7000800370009f0a60010002000f4
:102d200008003700820f5400838f5c0003003900d5
:102d30001000200001003e000000200009f0a70064
:102d40000000ea004f05be004f04be000000e00096
:102d500000000600889fbe008a9fbe008c1f78007e
:102d60004f26dd005eff070065ff33006120e100b4
:102d7000430032006250e10041003e003e00390055
:102d80006420e1003c003200058255000f003b004a
:102d90000402e80038003a00800f5300818f5b0086
:102da000350034000800be0003f0a10001f0a600c9
:102db00003f0a0000cf0a700aefd070059ff37009c
:102dc0000603430087834b000c4646000005530072
:102dd00081855b00020033000a03be000c00a000e6
:102de0000402e900f6ff3b00850578000602430077
:102df00087824b0004003a006000b80009f0a70089
:102e000001f0a00047ff37000002520081825a0003
:102e10000704e000040033000603430087834b00ef
:102e20008b05e900faff3700090578000604be00ab
:102e30000203be006011b80041ff0700e00f52001e
:102e4000e08f5a000700350002003c000c08a30088
:102e5000040032000601be0003f0a0000cf0a70041
:102e600084fd07000a85680001f0a1000af0a700b0
:102e700001f0a0002bff37000800be0029ff37003b
:102e8000100220000cf0a600e074880029ff370033
:102e9000889fbe008a9fbe008c9fbe00820578007e
:102ea0000004be004cff07000800be006420e100e3
:102eb0000700390002003a00f1ff2700f0ff2f0061
:102ec0000160a00012022000e27488005500370063
:102ed0006120e10003003a000b00a70001f8230085
:102ee0005000370001f0a10002002100936424008b
:102ef000bdfd07000800be0004003500b2fd200043
:102f0000930c240058fd07000004be000005eb00f0
:102f10000b00a6004f0dde0001f0a1000004be0072
:102f200032982f0023ea2300f6fc07000001eb0093
:102f300003f023000b00a70003f823004dfd07005a
:102f400024fd07000000a7000a00a200a8fc07005b
:102f50000b00e000030032000200200003f0230019
:102f600043fd070001f0a2000006be0002002000a1
:102f700093042400e3fc07000801be003dfd0700a8
:102f8000809fbe000c00be0022a22a00d3a723000f
:102f9000dcfc07004f01be0036fd07000004be0048
:102fa00001f0a10002002000039823008efd07001d
:102fb0000800be00190035000001be00d1fc07006a
:102fc0000006be00b2c52900e3622300cdfc070065
:102fd00022222b00f3942b0026fd07000c01be00db
:102fe000c8fc0700e273280083c0230021fd07000e
:102ff0000c01be00c3fc070042aa2a00a3e22b007a
:103000001cfd07000c01be00befc07000801be004d
:10301000bcfc07000801be0016fd07000a00a7005f
:1030200001f0a2004f06be004f05be004f04be00d7
:1030300000000600889fbe008a9fbe008c9fbe00d5
:103040000004be00e4fe07000800be008906780008
:103050006420e10008003900040032000160a00093
:1030600012022000e27488005300370091fc230014
:10307000b0fd20004e0037000006eb0009f0a10073
:1030800003f82300020020000800be0056fd0700e0
:103090000600340001f82300000020000801be00f3
:1030a00056fc07000004be002c0020000800be00f3
:1030b00093e82300320a23004bfd0700120034007e
:1030c0000801be00d1fd2300703d2b00e9fc070084
:1030d0000005be00b3f32300f27a26000800be000c
:1030e00088fc070003f8230002002000e0fc070032
:1030f0000801be00dffc07000a01be003ffc07001c
:103100000004be000c06e8000800be0001f0a100ab
:10311000020020000398230033fd07000800be00d2
:10312000160035000801be0076fc07000005be0051
:1031300032cd2c0043fb2300cefc0700809fbe0055
:103140001269280003d52b000a00be006dfc0700a1
:10315000620f210013ef2b00c6fc07000a01be001e
:1031600068fc07004f01be0024fc07000801be00f8
:1031700064fc07000801be00befc07000c00e00074
:103180000b0032000c10a70001f0a200b2fd2000dd
:1031900093fc23006260e1000400320022a92000b9
:1031a00063f023000c10a70063f82300b1fc0700b4
:1031b0000df0a70001f0a2004f06be004f05be00b3
:1031c0004f04be00000006000003be0082fe0700a0
:1031d0006220e100020032000600be00050005008a
:1031e000e507b100f107b20004f02300848070000d
:1031f00007f0a70001f0a000240005000003be00b6
:1032000075fe07006220e100020032000600be00e9
:103210000000060085024100e30f20000328e100c2
:1032200005003c00a3fe2f000328e10007003d003d
:103230000500200001003700f50f200020022000cb
:10324000e07488006000b800080037001300200018
:103250008381520005003d008100d1000080d30031
:103260008301e800fcff3a0005002000c72add00ca
:10327000f107b2008580700007f0a70001f0a00000
:043280000000060044
:020000040000fa
:103284000400fa00000f7800110798001e02900055
:103294001e024200144278008482fb001e02900049
:1032a4000402e8001e024200144278000482fb007b
:1032b4004822dd0004824200040078000080fa0005
:1032c400000006000600fa00000f780011079800bd
:1032d400220798002e0290009e02900084824200f1
:1032e4001e02780004427800844a78002e0290007e
:1032f4000402e8009e029000848242001e027800cc
:103304004822de0004427800844a78000080fa00f3
:10331400000006000400fa00000f7800110798006e
:103324009e0090001e007800d5ff07000002780080
:10333400cfa2de000400be00acfb07000002be000a
:1033440002002000a34724000400be00aafb0700db
:103354000002be000400be000080fa000000060067
:103364000800fa00008fbe00220798003307980077
:1033740002002000a34724001e00be00e0fb07005b
:103384000002be000400be0011fc07000002be00e3
:10339400040278003e019000ae0090000400780022
:1033a400c8ff07000080fa00000006000c00fa00c5
:1033b40040079800510798000002eb00040f7800c2
:1033c40064024700140798000002eb00040f780021
:1033d4000b0037005e0290001e024200ce029000f5
:1033e40004824200144278009e029000844a7800cd
:1033f4001e0290000402e800140798001e0fe80063
:103404001e027800e30f5200f2ff34002e029000f7
:10341400be0290000400be000080fa000000060016
:103424000c00fa0020079800310798004207980022
:10343400530798000002eb00040f78006402470071
:10344400140798000002eb00040f78000b0037000b
:103454005e0290001e024200ce029000848242006e
:103464001e02900014427800844a78001e029000e4
:103474000402e800140798001e0fe8001e027800fa
:10348400e30f5200f2ff34000080fa00000006004f
:103494001400fa00100f980024c5b300044f7800fc
:1034a4001e0a9000140278006f02620005002000da
:1034b400f600200007002000860f5200878f5a0074
:1034c4000c0c3e00046001000f003700090c3700ab
:1034d4000404370030003700290137001800370092
:1034e400d20037001c013700ff003700010c370001
:1034f4002500370026003700120137008c063700fc
:10350400fc0b3700f90b37001e0a90007442900040
:10351400e14f520007003a001e0a9000844a9000ce
:1035240054c5b30084cf520002003a00140c0700c3
:10353400f40b370094c4b300044f7800f10b370048
:10354400f4c0b300044078004aebb7000042eb003b
:10355400044078004debb7000042eb0004407800d3
:103564004eebb700c6812000858e2000648c2000bd
:10357400438a20002288200041852000a0b2200038
:1035840029100700df0b37003e0c0700dd0b370066
:103594000b0c0700db0b37001e0a900074429000ee
:1035a400e64f52009e003a000000eb0069f7070066
:1035b4001e0a9000680242008000eb0004007800bc
:1035c40054ff07000002be00340798004507980026
:1035d4001e0a9000680242002100200004007800c6
:1035e4004cff07000002be005407980065079800ce
:1035f4001e0a900068024200410020000400780086
:1036040044ff07000002be0074079800050f9800ed
:103614000042eb00044078004aebb7000042eb00a4
:10362400044078004debb7000042eb000440780002
:103634004eebb700c6812000858e2000648c2000ec
:10364400438a20002288200041852000a0b2200067
:10365400f50f07000002eb00144588000002eb00a0
:10366400244688000002eb00344788000002eb0087
:10367400444888000002eb00841f7800a4b22000b4
:10368400841f780064ae2000841f780024aa2000e0
:10369400841f7800e4a52000841f7800a4a12000e2
:1036a400841f7800848e2000841f7800648c20009e
:1036b400841f7800649d2000841f780027992000cf
:1036c400e6942000a590200044852000438a200031
:1036d40022882000c1812000008020002f1d0700c7
:1036e400f28757006000b800ba2207006000b800f3
:1036f400bf2207003e029000ce029000c44388001f
:10370400d54388005e029000ee029000e4438800f6
:10371400f54388007e0290008e0a900004438800de
:10372400154388007e0090008e0890005a0d070013
:103734000002be002443880035438800e440800032
:10374400f54080007e0190008e0990000400be00c8
:10375400ebfa07000002be00020020000300240070
:103764000400be00a4fa07000002be000400be006c
:1037740098220700e4408000f540800005f0a20094
:103784007e0190008e0990000400be00dcfa070060
:103794000002be0002002000030024000400be005a
:1037a40095fa07000002be000400be009022070044
:1037b40014002000144588001400200024468800ca
:1037c4001400200034478800140020004448880076
:1037d4000042eb00044078004aebb7000042eb00e3
:1037e400044078004debb7000042eb000440780041
:1037f4004eebb700c6812000858e2000648c20002b
:10380400438a20002288200041852000a0b22000a5
:10381400850f070010002000cef60700390b370093
:1038240094c4b300044f7800360b37001e0a90008e
:1038340074429000e24f520028003a001e0a9000a1
:10384400844a9000c4c4b30084cf520005003a00f7
:103854001e0a9000144a90000482fb00144588005c
:10386400280b37001e0a9000844a900014c4b30049
:1038740084cf520005003a001e0a9000144a9000ba
:103884000482fb00244688001e0b37001e0a9000a9
:10389400844a900044c4b30084cf520005003a0027
:1038a4001e0a9000144a90000482fb0034478800ea
:1038b400140b37001e0a9000844a900074c4b300ad
:1038c40084cf52000e0b3a001e0a9000144a900056
:1038d4000482fb00444888000a0b370094c4b300f8
:1038e400044f7800070b37001e0a9000044a90002a
:1038f400614262000482fb00610262004522dd0035
:1039040066168000f5fd2f008502630004827200b4
:10391400641688001e0a9000144a900061426200f6
:103924000482fb00610262004622dd00661680000c
:10393400f5fb2f0085026300048272006416880080
:10394400f00a37001e0a9000044a900004407800f0
:10395400910b0700eb0a37001e0a9000044a9000fe
:103964000482fb00044488001e0a9000044a90006c
:103974000482fb000400780084f60700e10a3700a3
:103984001e0a9000044a90000482fb00cfa2de00cd
:103994002601200007002000860f5200878f5a005e
:1039a400cc023e0004600100120037002a003700f8
:1039b4004a0037006a0037008e003700ba0037002b
:1039c400e900370018013700440137006801370067
:1039d4008c013700c0013700e401370008023700ca
:1039e4003402370060023700ba023700770237002a
:1039f4009f0237001e0a900074429000e14f52006b
:103a040012003a000042eb00044078004aebb70091
:103a14000042eb00044078004debb7000042eb009d
:103a2400044078004eebb700c6812000858e20004c
:103a3400648c2000438a20002288200041852000d5
:103a4400a0b22000f80e07000200370094c4b300af
:103a5400044f7800a20237001e0a900074429000be
:103a6400e34f52001a003a001e0a90006802420016
:103a7400110020000400780026fe07000002be00aa
:103a8400545988006559880014c0b3000440780074
:103a94004aebb7000042eb00044078004debb7005e
:103aa4000042eb00044078004eebb700c6812000d2
:103ab400858e2000648c2000438a20002288200008
:103ac40041852000a0b22000d70e07000200370075
:103ad40094c4b300044f7800810237001e0a90009a
:103ae40074429000e34f52001a003a001e0a9000fc
:103af40068024200110020000400780005fe07005f
:103b04000002be00745988008559880024c0b3009f
:103b1400044078004aebb7000042eb000440780010
:103b24004debb7000042eb00044078004eebb700c9
:103b3400c6812000858e2000648c2000438a2000ea
:103b44002288200041852000a0b22000b60e070084
:103b54000200370094c4b300044f780060023700b9
:103b64001e0a900074429000e44f52001e003a0076
:103b74001e0a900068024200110020000400780030
:103b8400e4fd07000002be007459880085598800ce
:103b940034c0b300044078004aebb7001e0a90001a
:103ba400344a9000044078004bebb7000042eb002d
:103bb400044078004debb7000042eb00044078006d
:103bc4004eebb700c6812000858e2000648c200057
:103bd400438a20002288200041852000a0b22000d2
:103be400910e07000200370094c4b300044f78001c
:103bf4003b0237001e0a900074429000e64f5200c8
:103c040026003a001e0a90006802420011002000bb
:103c140004007800bffd07000002be00d4598800ec
:103c2400e55988001e0a9000680242003100200015
:103c340004007800b7fd07000002be00f4598800b4
:103c4400055a880044c0b300044078004aebb7002a
:103c54001e0a9000544a9000044078004bebb700d1
:103c64000042eb00044078004debb7000042eb004b
:103c7400044078004eebb700c6812000858e2000fa
:103c8400648c2000438a2000228820004185200083
:103c9400a0b22000640e07000200370094c4b300f1
:103ca400044f78000e0237001e0a90007442900000
:103cb400e64f520029003a001e0a900068024200b2
:103cc400110020000400780092fd07000002be00ed
:103cd400d4598800e55988001e0a90006802420001
:103ce40031002000040078008afd07000002be00b5
:103cf400f4598800055a880054c0b3000440780081
:103d04004aebb7001e0a9000544a90000440780021
:103d14004bebb7000042eb00044078004debb700da
:103d24000042eb00044078004eebb7000042eb0089
:103d3400044078004cebb700c6812000858e20003b
:103d4400648c2000438a20002288200041852000c2
:103d5400a0b22000340e07000200370094c4b30060
:103d6400044f7800de0137001e0a90007442900070
:103d7400e64f520029003a001e0a900068024200f1
:103d8400110020000400780062fd07000002be005c
:103d9400d4598800e55988001e0a90006802420040
:103da40031002000040078005afd07000002be0024
:103db400f4598800055a880064c0b30004407800b0
:103dc4004aebb7001e0a9000544a90000440780061
:103dd4004bebb7000042eb00044078004debb7001a
:103de4000042eb00044078004eebb7000042eb00c9
:103df400044078004cebb700c6812000858e20007b
:103e0400648c2000438a2000228820004185200001
:103e1400a0b22000040e07000200370094c4b300cf
:103e2400044f7800ae0137001e0a900074429000df
:103e3400e64f520026003a001e0a90006802420033
:103e4400110020000400780032fd07000002be00cb
:103e5400d4598800e55988001e0a9000680242007f
:103e640031002000040078002afd07000002be0093
:103e7400f4598800055a880074c0b30004407800df
:103e84004aebb7001e0a9000544a900004407800a0
:103e94004bebb7000042eb00044078004debb70059
:103ea4000042eb00044078004eebb700c6812000ce
:103eb400858e2000648c2000438a20002288200004
:103ec40041852000a0b22000d70d07000200370072
:103ed40094c4b300044f7800810137001e0a900097
:103ee40074429000e44f52001e003a0084c0b300b4
:103ef400044078004aebb7001e0a9000344a900050
:103f0400044078004bebb7000042eb00044078001b
:103f14004debb7000042eb00044078004eebb700d5
:103f24001e0a90006802420011002000040078007c
:103f3400f8fc07000002be00744488008544880031
:103f4400c6812000858e2000648c2000438a2000d6
:103f54002288200041852000a0b22000b20d070075
:103f64000200370094c4b300044f78005c013700aa
:103f74001e0a900074429000e44f52001e003a0062
:103f840094c0b300044078004aebb7001e0a9000c6
:103f9400344a9000044078004bebb7000042eb0039
:103fa400044078004debb7000042eb000440780079
:103fb4004eebb7001e0a9000680242001100200078
:103fc40004007800d3fc07000002be00844588008a
:103fd40095458800c6812000858e2000648c2000d1
:103fe400438a20002288200041852000a0b22000be
:103ff4008d0d07000200370094c4b300044f78000d
:10400400370137001e0a900074429000e84f5200b6
:104014002e003a001e0a900068024200110020009f
:1040240004007800bbfc07000002be00d4598800dd
:10403400e55988001e0a9000680242003100200001
:1040440004007800b3fc07000002be00f4598800a5
:10405400055a8800a4c0b300044078004aebb700b6
:104064001e0a9000680242005100200004007800fb
:10407400a8fc07000002be00744488008544880040
:104084001e0a9000744a9000044078004bebb7007d
:104094000042eb00044078004debb7000042eb0017
:1040a400044078004eebb700c6812000858e2000c6
:1040b400648c2000438a200022882000418520004f
:1040c400a0b22000580d07000200370094c4b300ca
:1040d400044f7800020137001e0a900074429000d9
:1040e400e44f52001e003a001e0a9000680242008b
:1040f400110020000400780086fc07000002be00c6
:104104007459880085598800b4c0b300044078000d
:104114004aebb7001e0a9000344a9000044078002d
:104124004bebb7000042eb00044078004debb700c6
:104134000042eb00044078004eebb700c68120003b
:10414400858e2000648c2000438a20002288200071
:1041540041852000a0b22000330d07000200370083
:1041640094c4b300044f7800dd0037001e0a9000a9
:1041740074429000e44f52001e003a001e0a900060
:1041840068024200110020000400780061fc07006e
:104194000002be007459880085598800c4c0b30069
:1041a400044078004aebb7001e0a9000344a90009d
:1041b400044078004bebb7000042eb000440780069
:1041c4004debb7000042eb00044078004eebb70023
:1041d400c6812000858e2000648c2000438a200044
:1041e4002288200041852000a0b220000e0d070087
:1041f4000200370094c4b300044f7800b8003700bd
:104204001e0a900074429000e64f520026003a00c5
:104214001e0a900068024200110020000400780089
:104224003cfc07000002be0094598800a559880090
:104234001e0a900068024200310020000400780049
:1042440034fc07000002be00b4598800c559880038
:10425400d4c0b300044078004aebb7001e0a9000b3
:10426400544a9000044078004bebb7000042eb0046
:10427400044078004debb7000042eb0004407800a6
:104284004eebb700c6812000858e2000648c200090
:10429400438a20002288200041852000a0b220000b
:1042a400e10c07000200370094c4b300044f780007
:1042b4008b0037001e0a900074429000e64f5200b3
:1042c40026003a00e4c0b300044078004aebb7008b
:1042d4001e0a9000544a9000044078004bebb7004b
:1042e4000042eb00044078004debb7000042eb00c5
:1042f400044078004eebb7001e0a900068024200aa
:10430400110020000400780002fc07000002be0037
:1043140094468800a54688001e0a90006802420060
:104324003100200004007800fafb07000002be0000
:10433400a4478800b5478800c6812000858e2000e8
:10434400648c2000438a20002288200041852000bc
:10435400a0b22000b40c07000200370094c4b300dc
:10436400044f78005e0037001e0a900074429000eb
:10437400e14f520012003a00f4c0b3000440780048
:104384004aebb7000042eb00044078004debb70065
:104394000042eb00044078004eebb700c6812000d9
:1043a400858e2000648c2000438a2000228820000f
:1043b40041852000a0b220009b0c070002003700ba
:1043c40094c4b300044f7800450037001e0a9000df
:1043d40074429000e54f520022003a0014c1b30029
:1043e400044078004aebb7000042eb000440780038
:1043f4004debb7000042eb00044078004eebb700f1
:104404001e0a900068024200110020000400780097
:10441400c0fb07000002be00744488008544880085
:104424001e0a900068024200310020000400780057
:10443400b8fb07000002be0084458800954588004b
:10444400c6812000858e2000648c2000438a2000d1
:104454002288200041852000a0b22000720c0700b1
:104464000200370094c4b300044f78001c003700e6
:104474001e0a900074429000e54f520012003a0068
:1044840024c1b300044078004aebb7001e0a900030
:10449400044a90000482fb00050020000400be00d2
:1044a400ecf707000002be0002002000030824000d
:1044b4000400be0092f707000002be007459880091
:1044c400855988000200370094c4b300044f780073
:1044d4000300370094c4b300044f780000000000c8
:1044e400080837001e0a90006802420011002000ec
:1044f40004007800adfb07000002be00140798001a
:10450400250798001e0a9000044a90000482fb00cc
:104514006123b900e4ff2f00f5ff2f0006024200db
:1045240087824a00960d200007002000860f520063
:10453400878f5a007a023e0004600100d9003700d8
:10454400770237007602370075023700e100370042
:10455400e5003700ef0037007102370070023700c2
:10456400f7003700fb003700ff0037000301370076
:10457400070137000b0137000f0137001301370023
:104584001701370023013700650237006402370042
:1045940063023700620237006102370060023700ad
:1045a4005f0237005e0237005d0237005c023700ad
:1045b4005b0237005a0237005902370058023700ad
:1045c40021013700560237005502370054023700e4
:1045d40022013700520237005102370050023700df
:1045e400280137004e0237004d0237004c023700d5
:1045f400290137004a0237004902370048023700d0
:104604002f013700460237004502370044023700c5
:1046140030013700420237004102370040023700c0
:10462400360137003e0237003d0237003c023700b6
:10463400370137003a0237003902370038023700b1
:1046440037023700360237003502370034023700ac
:1046540033023700320237003102370030023700ac
:1046640035013700390137003d013700410137007a
:104674004501370049013700290237002802370075
:1046840027023700260237002502370024023700ac
:1046940023023700220237002102370020023700ac
:1046a4001f02370042013700460137004a01370034
:1046b4004e01370052013700560137001802370007
:1046c40017023700160237001502370014023700ac
:1046d40013023700120237001102370010023700ac
:1046e4000f0237000e0237004f0137005301370025
:1046f400570137005b0137005f0137006301370062
:1047040007023700060237000502370004023700ab
:1047140003023700020237000102370000023700ab
:10472400ff013700fe013700fd0137005c0137004f
:104734006001370064013700680137006c013700fd
:1047440070013700f6013700f5013700f401370036
:10475400f3013700f2013700f1013700f0013700af
:10476400ef013700ee013700ed013700ec013700af
:10477400690137006d013700710137007501370099
:10478400790137007d013700e5013700e401370086
:10479400e3013700e2013700e1013700e0013700af
:1047a400df013700de013700dd013700dc013700af
:1047b400db013700760137007a0137007e013700cc
:1047c40082013700860137008a013700d40137009f
:1047d400d3013700d2013700d1013700d0013700af
:1047e400cf013700ce013700cd013700cc013700af
:1047f400cb013700ca013700830137008701370036
:104804008b0137008f013700930137009701370080
:10481400c3013700c2013700c1013700c0013700ae
:10482400bf013700be013700bd013700bc013700ae
:10483400bb013700ba013700b901370090013700d6
:1048440094013700980137009c013700a00137001c
:10485400a4013700b2013700b1013700b0013700bd
:10486400af013700ae013700ad013700ac013700ae
:10487400a1013700a5013700a9013700a8013700bd
:10488400a7013700a6013700a5013700a4013700ae
:10489400a301370076003700840037009200370008
:1048a400a00037001e029000ae0290006440880011
:1048b40075408800044080001540800066408000f8
:1048c400774080000401be000600be0099f5070091
:1048d400960137001e029000ae029000e44088006a
:1048e400f5408800910137001e029000ae0290004e
:1048f400044188001541880004418000154180006e
:10490400864280000401be00060078003f1e0700b6
:10491400860137001e029000ae02900024418800f8
:104924003541880024418000354180009642800052
:104934000401be0006007800531e07007b01370007
:104944001e029000ae0290008441880095418800c8
:10495400760137001e029000ae029000a441880048
:10496400b5418800710137001e029000ae0290002c
:10497400c4418800d54188006c0137001e029000b4
:10498400ae029000e4418800f541880067013700d9
:104994001e029000ae029000044288001542880076
:1049a400620137001e029000ae029000244288008b
:1049b400354288005d0137001e029000ae0290006f
:1049c4004442880055428800580137001e02900076
:1049d400ae0290006442880075428800530137009b
:1049e4001e009000ae00900079f607000002be00a1
:1049f400040278008442880004418000154180004c
:104a0400864280000401be0006007800ff1d0700f6
:104a1400460137001e009000ae0090006cf60700bf
:104a24000002be0004027800944288002441800001
:104a340035418000964280000401be0006007800e3
:104a4400f21d0700390137001e029000ae029000eb
:104a54005444880065448800340137001e029000e5
:104a6400ae029000d4448800e54488002f0137004a
:104a74001e029000ae029000f444880005458800b0
:104a84002a0137001e029000ae029000644588009f
:104a940075458800250137001e029000ae02900083
:104aa400e4458800f5458800200137001e02900087
:104ab400ae02900004468800154688001b013700aa
:104ac4001e029000ae02900074468800854688005d
:104ad400160137001e029000ae029000f4468800d2
:104ae40005478800110137001e029000ae029000b5
:104af40014478800254788000c0137001e029000e7
:104b0400ae0290008447880095478800070137006b
:104b14001e029000ae0290000448880015488800e8
:104b2400020137001e029000ae0290002448880063
:104b340035488800fd0037001e029000ae02900048
:104b440094498800a5498800f80037001e029000a7
:104b5400ae029000b4498800c5498800f3003700cc
:104b64001e029000ae029000d4498800e5498800f6
:104b7400ee0037001e029000ae029000f449880057
:104b8400054a8800e90037001e029000ae0290003a
:104b9400144a8800254a8800e40037001e02900069
:104ba400ae029000344a8800454a8800df0037008e
:104bb4001e029000ae029000b44b8800c54b8800e2
:104bc400da0037001e029000ae029000d44b880039
:104bd400e54b8800d50037001e029000ae0290001d
:104be400f44b8800054c8800d00037001e0290006a
:104bf400ae029000144c8800254c8800cb0037008e
:104c04001e029000ae029000344c8800454c88008f
:104c1400c60037001e029000ae029000544c88007b
:104c2400654c8800c10037001e029000ae0290005f
:104c3400d44d8800e54d8800bc0037001e0290006a
:104c4400ae029000f44d8800054e8800b70037008e
:104c54001e029000ae029000144e8800254e88007b
:104c6400b20037001e029000ae029000344e88005d
:104c7400454e8800ad0037001e029000ae02900041
:104c8400544e8800654e8800a80037001e0290002c
:104c9400ae029000744e8800854e8800a300370051
:104ca4001e029000ae029000f44f88000550880068
:104cb4009e0037001e029000ae029000145088003f
:104cc40025508800990037001e029000ae02900023
:104cd4003450880045508800940037001e0290002c
:104ce400ae02900054508800655088008f00370051
:104cf4001e029000ae029000745088008550880017
:104d04008a0037001e029000ae0290009450880082
:104d1400a5508800850037001e029000ae02900066
:104d24001452880025528800800037001e0290002b
:104d3400ae02900034528800455288007b00370050
:104d44001e029000ae029000545288006552880002
:104d5400760037001e029000ae0290007452880064
:104d640085528800710037001e029000ae02900048
:104d740094528800a55288006c0037001e029000ef
:104d8400ae029000b4528800c55288006700370014
:104d94001e029000ae0290003454880045548800ee
:104da400620037001e029000ae0290005454880046
:104db400655488005d0037001e029000ae0290002a
:104dc4007454880085548800580037001e029000ef
:104dd400ae02900094548800a55488005300370014
:104de4001e029000ae029000b4548800c55488009e
:104df4004e0037001e029000ae029000d45488008a
:104e0400e5548800490037001e029000ae0290006d
:104e14005456880065568800440037001e029000ee
:104e2400ae02900074568800855688003f00370013
:104e34001e029000ae02900094568800a556880089
:104e44003a0037001e029000ae029000b45688006b
:104e5400c5568800350037001e029000ae0290004f
:104e6400d4568800e5568800300037001e029000b2
:104e7400ae029000f4568800055788002b003700d6
:104e84001e029000ae029000745888008558880075
:104e9400260037001e029000ae029000945888004d
:104ea400a5588800210037001e029000ae02900031
:104eb400b4588800c55888001c0037001e029000b2
:104ec400ae029000d4588800e558880017003700d7
:104ed4001e029000ae029000f45888000559880024
:104ee400120037001e029000ae0290001459880090
:104ef400255988000d0037001e029000ae02900074
:104f0400145a8800255a8800080037001e029000b1
:104f1400ae029000345a8800455a880003003700d6
:104f240094c4b300044f78000000000075053700f6
:104f34001e0a9000044a90000482fb00cfa2de0007
:104f4400b60d200007002000860f5200878f5a00fc
:104f540061053e0004600100db003700df0037001c
:104f6400e3003700e7003700eb003700ef003700bd
:104f7400f3003700f7003700fb003700ff0037006d
:104f840003013700070137000b0137000f01370019
:104f940013013700170137001b0137001f013700c9
:104fa40023013700270137002e0137003501370070
:104fb400390137003d013700410137004501370011
:104fc400490137004d0137005101370055013700c1
:104fd400590137005d01370061013700680137006e
:104fe4006c01370070013700740137007801370015
:104ff4007c013700800137008901370090013700b8
:1050040094013700980137009c013700a001370054
:10501400a4013700a8013700b1013700b8013700f7
:10502400bc013700c0013700c4013700c801370094
:10503400cc013700d0013700d9013700e001370037
:10504400e4013700e8013700ec013700f0013700d4
:10505400f4013700f8013700010237000802370075
:105064000c02370010023700140237001802370010
:105074001c023700200237002402370028023700c0
:105084002c02370030023700340237003802370070
:105094003c02370040023700440237004802370020
:1050a4004c023700500237005402370058023700d0
:1050b4005c02370060023700640237006802370080
:1050c4006c02370070023700740237007802370030
:1050d4007c023700800237008402370088023700e0
:1050e4008c02370090023700940237009802370090
:1050f4009c023700a0023700a4023700a802370040
:10510400ac023700b0023700b4023700b8023700ef
:10511400bc023700c0023700c4023700c80237009f
:10512400cc023700d0023700d4023700d80237004f
:10513400dc023700e0023700e4023700e8023700ff
:10514400ec023700f0023700f4023700f8023700af
:10515400fc0237000003370004033700080337005c
:105164000c0337001003370014033700180337000b
:105174001c033700200337002403370028033700bb
:105184002c0337003003370034033700380337006b
:105194003c0337004003370044033700480337001b
:1051a4004c033700500337005403370058033700cb
:1051b4005c0337006003370064033700680337007b
:1051c4006c0337007003370074033700780337002b
:1051d4007c033700800337008403370088033700db
:1051e4008c0337009003370094033700980337008b
:1051f4009c033700a0033700a4033700a80337003b
:10520400ac033700b0033700b4033700b8033700ea
:10521400bc033700c0033700c4033700c80337009a
:10522400cc033700d0033700d4033700d80337004a
:10523400dc033700e0033700e4033700e8033700fa
:10524400ec033700f0033700f4033700f8033700aa
:10525400fc03370000043700040437000804370057
:105264000c04370010043700140437001804370006
:105274001c043700200437002404370028043700b6
:105284002c04370030043700340437003804370066
:105294003c04370040043700440437004804370016
:1052a400510437005a043700630437006c04370094
:1052b400750437007e043700d4003700030137003b
:1052c400320137006101370004408000154080003e
:1052d40014079800250798008004370024408000b4
:1052e4003540800014079800250798007b04370098
:1052f40064408000754080001407980025079800da
:10530400760437004440800055408000140798001c
:105314002507980071043700a4408000b540800040
:1053240014079800250798006c043700c4408000d7
:10533400d5408000140798002507980067043700bb
:10534400e4408000f5408000140798002507980089
:10535400620437000441800015418000140798005e
:10536400250798005d043700244180003541800002
:10537400140798002507980058043700444180001a
:1053840055418000140798002507980053043700fe
:105394006441800075418000140798002507980037
:1053a4004e04370084418000954180001407980022
:1053b4002507980049043700a4418000b5418000c6
:1053c400140798002507980044043700c44180005e
:1053d400d541800014079800250798003f04370042
:1053e400e4418000f54180001407980025079800e7
:1053f4003a043700044280001542800014079800e4
:105404002507980035043700244280003542800087
:1054140014079800250798003004370044428000a0
:105424005542800014079800250798002b04370084
:105434006442800075428000140798002507980094
:105444002604370084428000cfa2de000400be00a0
:1054540066f307000002be001407980025079800b1
:105464001e04370094428000cfa2de000400be0078
:105474005ef307000002be00140798002507980099
:1054840016043700a4428000b54280001407980037
:105494002507980011043700c4428000d5428000db
:1054a40014079800250798000c043700e442800094
:1054b400f542800014079800250798000704370078
:1054c40004438000154380001407980025079800c2
:1054d40002043700244380003543800014079800f9
:1054e40025079800fd03370044438000554380009e
:1054f4001407980025079800f803370064438000d8
:10550400754380001407980025079800f3033700bb
:105514008443800095438000140798002507980071
:10552400ee033700a4438000b543800014079800bd
:1055340025079800e9033700c4438000d543800061
:105544001407980025079800e4033700e44380001b
:10555400f54380001407980025079800df033700ff
:1055640004448000cfa2de000400be001ff3070045
:105574000002be001407980025079800d7033700df
:1055840014448000254480001407980025079800df
:10559400d203370034448000454480001407980047
:1055a40025079800cd0337005444800065448000eb
:1055b4001407980025079800c80337007444800036
:1055c400854480001407980025079800c30337001a
:1055d40094448000a544800014079800250798008f
:1055e400be033700b4448000c5448000140798000b
:1055f40025079800b9033700d4448000e5448000af
:105604001407980025079800b4033700f444800079
:10561400054580001407980025079800af0337005c
:1056240014458000cfa2de000400be00eff20700a4
:105634000002be001407980025079800a70337004e
:1056440024458000354580001407980025079800fc
:10565400a203370044458000554580001407980094
:10566400250798009d033700644580007545800038
:105674001407980025079800980337008445800094
:105684009545800014079800250798009303370078
:10569400a4458000b54580001407980025079800ac
:1056a4008e033700c4458000d54580001407980058
:1056b4002507980089033700e4458000f5458000fc
:1056c40014079800250798008403370004468000d7
:1056d4001546800014079800250798007f033700bb
:1056e40024468000cfa2de000400be00bff2070003
:1056f4000002be00140798002507980077033700be
:105704003446800045468000140798002507980019
:1057140072033700544680006546800014079800e1
:10572400250798006d033700744680008546800085
:1057340014079800250798006803370094468000f2
:10574400a5468000140798002507980063033700d6
:10575400b4468000c54680001407980025079800c9
:105764005e033700d4468000e546800014079800a5
:105774002507980059033700f44680000547800048
:105784001407980025079800540337001447800035
:105794002547800014079800250798004f03370019
:1057a40034478000cfa2de000400be008ff2070061
:1057b4000002be001407980025079800470337002d
:1057c4004447800055478000140798002507980037
:1057d400420337006447800075478000140798002f
:1057e400250798003d0337008447800095478000d3
:1057f400140798002507980038033700a447800051
:10580400b547800014079800250798003303370034
:10581400c4478000d54780001407980025079800e6
:105824002e033700e4478000f547800014079800f2
:105834002507980029033700044880001548800094
:105844001407980025079800240337002448800093
:105854003548800014079800250798001f03370077
:1058640044488000cfa2de000400be005ff20700bf
:105874000002be001407980025079800170337009c
:105884005448800065488000140798002507980054
:10589400120337007448800085488000140798007c
:1058a400250798000d03370094488000a548800020
:1058b400140798002507980008033700b4488000af
:1058c400c548800014079800250798000303370093
:1058d400d4488000e5488000140798002507980004
:1058e400fe023700f4488000054980001407980040
:1058f40025079800f90237001449800025498000e3
:105904001407980025079800f402370034498000f2
:10591400454980001407980025079800ef023700d6
:1059240054498000654980001407980025079800b1
:10593400ea02370074498000854980001407980002
:1059440025079800e502370094498000a5498000a6
:105954001407980025079800e0023700b449800036
:10596400c54980001407980025079800db0237001a
:10597400d4498000e5498000140798002507980061
:10598400d6023700f4498000054a800014079800c5
:1059940025079800d1023700144a8000254a800068
:1059a4001407980025079800cc023700344a800079
:1059b400454a80001407980025079800c70237005d
:1059c400544a8000654a800014079800250798000f
:1059d400c2023700744a8000854a80001407980088
:1059e40025079800bd023700944a8000a54a80002c
:1059f4001407980025079800b8023700b44a8000bd
:105a0400c54a80001407980025079800b3023700a0
:105a1400d44a8000e54a80001407980025079800be
:105a2400ae023700f44a8000054b8000140798004a
:105a340025079800a9023700144b8000254b8000ed
:105a44001407980025079800a4023700344b8000ff
:105a5400454b800014079800250798009f023700e3
:105a6400544b8000654b800014079800250798006c
:105a74009a023700744b8000854b8000140798000d
:105a84002507980095023700944b8000a54b8000b1
:105a9400140798002507980090023700b44b800043
:105aa400c54b800014079800250798008b02370027
:105ab400d44b8000e54b800014079800250798001c
