:020000040000fa
:080000000002040000000000f2
:020000040000fa
:04000800c00f000025
:020000040000fa
:04000c00c00f000021
:020000040000fa
:04001000c00f00001d
:020000040000fa
:04001400c00f000019
:020000040000fa
:04001800c00f000015
:020000040000fa
:04001c00c00f000011
:020000040000fa
:04002000c00f00000d
:020000040000fa
:04002400c00f000009
:020000040000fa
:04002800c00f000005
:020000040000fa
:04002c00c00f000001
:020000040000fa
:04003000c00f0000fd
:020000040000fa
:04003400dc080000e4
:020000040000fa
:04003800a80200001a
:020000040000fa
:04003c00c00f0000f1
:020000040000fa
:04004000c00f0000ed
:020000040000fa
:0400440000090000af
:020000040000fa
:040048002409000087
:020000040000fa
:04004c00c00f0000e1
:020000040000fa
:04005000c00f0000dd
:020000040000fa
:04005400c00f0000d9
:020000040000fa
:04005800c00f0000d5
:020000040000fa
:04005c00c00f0000d1
:020000040000fa
:04006000be020000dc
:020000040000fa
:04006400c00f0000c9
:020000040000fa
:04006800c00f0000c5
:020000040000fa
:04006c00c00f0000c1
:020000040000fa
:04007000c00f0000bd
:020000040000fa
:04007400c00f0000b9
:020000040000fa
:04007800c00f0000b5
:020000040000fa
:04007c00c00f0000b1
:020000040000fa
:04008000c00f0000ad
:020000040000fa
:04008400c00f0000a9
:020000040000fa
:04008800c00f0000a5
:020000040000fa
:04008c00c00f0000a1
:020000040000fa
:04009000c00f00009d
:020000040000fa
:040094004809000017
:020000040000fa
:040098006c090000ef
:020000040000fa
:04009c00c00f000091
:020000040000fa
:0400a000c00f00008d
:020000040000fa
:0400a400c00f000089
:020000040000fa
:0400a800c00f000085
:020000040000fa
:0400ac00c00f000081
:020000040000fa
:0400b000c00f00007d
:020000040000fa
:0400b400e80200005e
:020000040000fa
:0400b800c00f000075
:020000040000fa
:0400bc00c00f000071
:020000040000fa
:0400c000c00f00006d
:020000040000fa
:0400c400c00f000069
:020000040000fa
:0400c800c00f000065
:020000040000fa
:0400cc00c00f000061
:020000040000fa
:0400d000c00f00005d
:020000040000fa
:0400d400c00f000059
:020000040000fa
:0400d800c00f000055
:020000040000fa
:0400dc00c00f000051
:020000040000fa
:0400e000c00f00004d
:020000040000fa
:0400e400c00f000049
:020000040000fa
:0400e800c00f000045
:020000040000fa
:0400ec00c00f000041
:020000040000fa
:0400f000c00f00003d
:020000040000fa
:0400f400c00f000039
:020000040000fa
:0400f800c00f000035
:020000040000fa
:0400fc00c00f000031
:020000040000fa
:04010000c00f00002c
:020000040000fa
:04010400c00f000028
:020000040000fa
:04010800c00f000024
:020000040000fa
:04010c00c00f000020
:020000040000fa
:04011000c00f00001c
:020000040000fa
:04011400c00f000018
:020000040000fa
:04011800c00f000014
:020000040000fa
:04011c00c00f000010
:020000040000fa
:04012000c00f00000c
:020000040000fa
:04012400c00f000008
:020000040000fa
:04012800c00f000004
:020000040000fa
:04012c00c00f000000
:020000040000fa
:04013000c00f0000fc
:020000040000fa
:04013400c00f0000f8
:020000040000fa
:04013800c00f0000f4
:020000040000fa
:04013c00c00f0000f0
:020000040000fa
:04014000c00f0000ec
:020000040000fa
:04014400c00f0000e8
:020000040000fa
:04014800c00f0000e4
:020000040000fa
:04014c00c00f0000e0
:020000040000fa
:04015000c00f0000dc
:020000040000fa
:04015400c00f0000d8
:020000040000fa
:04015800c00f0000d4
:020000040000fa
:04015c00c00f0000d0
:020000040000fa
:04016000c00f0000cc
:020000040000fa
:04016400c00f0000c8
:020000040000fa
:04020800c00f000023
:020000040000fa
:04020c00c00f00001f
:020000040000fa
:04021000c00f00001b
:020000040000fa
:04021400c00f000017
:020000040000fa
:04021800c00f000013
:020000040000fa
:04021c00c00f00000f
:020000040000fa
:04022000c00f00000b
:020000040000fa
:04022400c00f000007
:020000040000fa
:04022800c00f000003
:020000040000fa
:04022c00c00f0000ff
:020000040000fa
:04023000c00f0000fb
:020000040000fa
:04023400c00f0000f7
:020000040000fa
:04023800c00f0000f3
:020000040000fa
:04023c00c00f0000ef
:020000040000fa
:04024000c00f0000eb
:020000040000fa
:04024400c00f0000e7
:020000040000fa
:04024800c00f0000e3
:020000040000fa
:04024c00c00f0000df
:020000040000fa
:04025000c00f0000db
:020000040000fa
:04025400c00f0000d7
:020000040000fa
:04025800c00f0000d3
:020000040000fa
:04025c00c00f0000cf
:020000040000fa
:04026000c00f0000cb
:020000040000fa
:04026400c00f0000c7
:020000040000fa
:04026800c00f0000c3
:020000040000fa
:04026c00c00f0000bf
:020000040000fa
:04027000c00f0000bb
:020000040000fa
:04027400c00f0000b7
:020000040000fa
:04027800c00f0000b3
:020000040000fa
:04027c00c00f0000af
:020000040000fa
:04028000c00f0000ab
:020000040000fa
:04028400c00f0000a7
:020000040000fa
:04028800c00f0000a3
:020000040000fa
:04028c00c00f00009f
:020000040000fa
:04029000c00f00009b
:020000040000fa
:04029400c00f000097
:020000040000fa
:04029800c00f000093
:020000040000fa
:04029c00c00f00008f
:020000040000fa
:0402a000c00f00008b
:020000040000fa
:0402a400c00f000087
:020000040000fa
:0402a800c00f000083
:020000040000fa
:0402ac00c00f00007f
:020000040000fa
:0402b000c00f00007b
:020000040000fa
:0402b400c00f000077
:020000040000fa
:0402b800c00f000073
:020000040000fa
:0402bc00c00f00006f
:020000040000fa
:0402c000c00f00006b
:020000040000fa
:0402c400c00f000067
:020000040000fa
:0402c800c00f000063
:020000040000fa
:0402cc00c00f00005f
:020000040000fa
:0402d000c00f00005b
:020000040000fa
:0402d400c00f000057
:020000040000fa
:0402d800c00f000053
:020000040000fa
:0402dc00c00f00004f
:020000040000fa
:0402e000c00f00004b
:020000040000fa
:0402e400c00f000047
:020000040000fa
:0402e800c00f000043
:020000040000fa
:0402ec00c00f00003f
:020000040000fa
:0402f000c00f00003b
:020000040000fa
:0402f400c00f000037
:020000040000fa
:0402f800c00f000033
:020000040000fa
:0402fc00c00f00002f
:020000040000fa
:04030000c00f00002a
:020000040000fa
:04030400c00f000026
:020000040000fa
:04030800c00f000022
:020000040000fa
:04030c00c00f00001e
:020000040000fa
:04031000c00f00001a
:020000040000fa
:04031400c00f000016
:020000040000fa
:04031800c00f000012
:020000040000fa
:04031c00c00f00000e
:020000040000fa
:04032000c00f00000a
:020000040000fa
:04032400c00f000006
:020000040000fa
:04032800c00f000002
:020000040000fa
:04032c00c00f0000fe
:020000040000fa
:04033000c00f0000fa
:020000040000fa
:04033400c00f0000f6
:020000040000fa
:04033800c00f0000f2
:020000040000fa
:04033c00c00f0000ee
:020000040000fa
:04034000c00f0000ea
:020000040000fa
:04034400c00f0000e6
:020000040000fa
:04034800c00f0000e2
:020000040000fa
:04034c00c00f0000de
:020000040000fa
:04035000c00f0000da
:020000040000fa
:04035400c00f0000d6
:020000040000fa
:04035800c00f0000d2
:020000040000fa
:04035c00c00f0000ce
:020000040000fa
:04036000c00f0000ca
:020000040000fa
:04036400c00f0000c6
:020000040000fa
:10040000efe820000e5f24000e01880000000000cd
:10041000000020000000e000020032000001200087
:10042000200288000c000700c0f325000100200016
:1004300011000700000020000000e0000200320070
:1004400000000200000000003e4702000000000023
:100450000040da000000fe004440a9000000200037
:100460000000e0000300320000002000a00188002e
:100470004440a80000000600910188008000780038
:100480000000eb0015003700e280400032a0b4000d
:100490009101ba00e280400032a0b4009102ba009b
:1004a000e280400032a0b4000002eb00472bde00e7
:1004b000f507b200602ce10004003a000059eb009f
:1004c0008301e900fdff3e00040037006128e100e0
:1004d000010032000082eb000b00070011c3ba00dc
:1004e0001101ba000604e00003003a000200e00037
:1004f000e5ff3a0000000600f607b200960188000a
:1005000082007800f5ff37003159ba008301e90015
:100510000c0032002159ba008301e90008003200c2
:100520000400e00003003a00e280400032a0b40082
:10053000f5ff370011d9ba008301e900faff3a004c
:100540008100e800e180400032a0b4000000060015
:100550003400f800881f780008002000a8018800f7
:100560004f0478000000fa008480a9000500fc0018
:100570000080fa003400f9000040060000a0fe00f0
:100580003600f800849fbe00869fbe003400f8004d
:1005900004002000a40188000000fa00007024007c
:1005a0001a02070000702400b722070085c0a900c6
:1005b0000500fc000080fa003400f9004f03be0083
:1005c0004f02be003600f9000080fe000040060029
:1005d00000a0fe003400f800881f7800080020000a
:1005e000a80188004f0478000000fa002020800055
:1005f0008860a9000500fc000080fa003400f900c2
:100600000080fe00004006000400fa00004f780061
:100610001107980042c7a9009527070042c7a80004
:1006200081c3a90081a3a8008183a9008163a900d7
:10063000001c80000040a1000050a000001c8800a9
:10064000001c80000000a1000010a100001c880018
:1006500083e3a900111c800000f82f008080600057
:100660006004200001007000101c88000060200061
:10067000201c880020442000401c880070002000be
:10068000501c880081e3a8008dc3a9008da3a90098
:100690008d83a9008d63a900601c80000040a1002b
:1006a0000050a000601c8800601c80000000a100b9
:1006b0000010a100601c88008fe3a900711c80005d
:1006c00000f82f00808060002002200001007000f0
:1006d000701c880000602000801c880000442000fe
:1006e000a01c880070002000b01c88008de3a800ca
:1006f0009480a9008480a900300580000000a0003b
:100700000010a1000020a0003005880095c0a800be
:1007100085c0a900500580000080a0000090a100c5
:1007200000a0a000500588000004a90040c0b3004c
:100730004e0207000064a90001a4a9000184a900d9
:100740000164a8001120800000fe2f0000806000de
:10075000102088001e009000fe0f50002200320082
:1007600081022000810f500003003200ea0f500088
:100770003900320054003700802080000060a10062
:100780000070a100802088008120800000fc2f00e4
:10079000008060003000b3008020880013c4a900ee
:1007a000902080000080a1000090a00000a0a10087
:1007b0009020880012e4a800902080000030a10062
:1007c0000040a0000050a1009020880090208000f0
:1007d0000000a1000010a0000020a10090208800cf
:1007e00012c4a8003a003700802080000060a100f9
:1007f0000070a100802088008120800000fc2f0074
:10080000008060000010a0008020880013c4a900b0
:10081000902080000080a1000090a00000a0a10016
:100820009020880012e4a800902080000030a100f1
:100830000040a0000050a10090208800902080007f
:100840000000a1000010a0000020a100902088005e
:1008500012c4a8001e003700802080000060a100a4
:100860000070a100802088008120800000fc2f0003
:10087000008060000000a0008020880013c4a90050
:10088000902080000080a1000090a00000a0a100a6
:100890009020880012e4a800902080000030a10081
:1008a0000040a0000050a10090208800902080000f
:1008b0000000a1000010a0000020a10090208800ee
:1008c00012c4a800020037000080eb008f00370040
:1008d00030e4a80031e4a80032e4a80033e4a80022
:1008e00034e4a80035e4a80036e4a80037e4a80002
:1008f000802180000000a0000010a000802188005e
:10090000802180000080a0000090a000802188004d
:10091000902180000000a1000010a000902188001c
:10092000902180000080a1000090a000902188000c
:10093000a02180000000a0000010a100a0218800dc
:10094000a02180000080a0000090a100a0218800cc
:10095000b02180000000a1000010a100b02188009b
:10096000b02180000080a1000090a100b02188008b
:100970003020800000d0a10000e0a10000f0a00025
:10098000302088003120800000fe2f0000806000b1
:100990000030a000302088000a24ef000ce4a900f9
:1009a0000cc4a9000ca4a9000c64a9000c44a90063
:1009b0000c24a8000c04a8008860a9008840a900a5
:1009c0008cc0a9009860a8009840a9009cc0a9000c
:1009d000a005800000c0a00000d0a00000e0a100a1
:1009e000a0058800a00580000080a0000090a00065
:1009f00000a0a100a0058800300680000080a000b3
:100a00000090a00000a0a100300688000004a8000b
:100a100080218000ff00600000e0270001007000de
:100a2000802188003064a800802180000000a1009f
:100a30000010a100802188003224ef001424ef0070
:100a40001404a8001e80fb004400dd008000780034
:100a5000f07f2000008060004500dd000122800062
:100a6000ff80600001007000002288004064a9003f
:100a7000002280000000a1000010a10000228800d8
:100a80004224ef00c02080000000a1000010a1005f
:100a9000c02088001424a800202280007f0060006d
:100aa000202288004464a900202280000000a100c8
:100ab0000010a100202288004624ef00c020800002
:100ac0000020a1000030a100c0208800002180008b
:100ad0000000a0000010a0000020a0000030a00036
:100ae00000218800002180000040a0000050a000ec
:100af0000060a0000070a000002188000004a90090
:100b00000040eb00590107000000eb000080fa00f4
:100b1000000006000600fa00200798000000eb0025
:100b2000100798002e00900090007800f07f2000c1
:100b3000808f500014003e002e00900010019000a5
:100b4000a0019000f0ff2f0031002000800f510025
:100b5000818f59000c003e002e00900070409000e4
:100b6000e84f500008003e002e00900070409000ba
:100b70000004e000040032002e009000604090006d
:100b8000e14f50000200360010c0b3009d00370056
:100b900051010700100798001e009000e10f40006f
:100ba000030032001e009000e70f500002003400e6
:100bb00020c0b300930037002e0090001000780092
:100bc000c200dd002e009000604090000080fb001d
:100bd00000804000800078001e0090004401dd008d
:100be0000060240000004100010878002e00900001
:100bf00010019000a001900000fc2f0031002000a7
:100c0000020278000301780080017800010078007a
:100c100003026200000061008000eb00c000dd0004
:100c2000000020000001be006120b800000171003a
:100c3000818171004a1add004610de00000072005a
:100c4000c618de00800078001e0090004401dd0020
:100c50002060240000004100010878002e00900070
:100c6000a00090001000900000007800ca00dd0095
:100c70002e009000704090000080fb00008040003b
:100c8000800078001e0090004401dd0040602400d8
:100c900000004100010878000000eb00000f780020
:100ca0000000eb00000f7800190037009e0078006c
:100cb000638140001e00780000004000ae009000fc
:100cc00068004000614078008080fb001e007800d2
:100cd000000040000000e800ae0190006800400005
:100ce000634078000080fb004800dd008080400009
:100cf0001e0090004300dd000200400000014000a3
:100d00000060240000004100010878001e0fe80088
:100d10002e009000704090000080fb00cf80de002d
:100d20009904070002002000030024009904070032
:100d30000200200003f02300360507000b05070022
:100d4000000078009e0f5000d8ff3c001e0090006d
:100d5000c400dd00e0602400008040008000eb0063
:100d6000010878001e009000e30f500018003200c8
:100d7000e30f500007003c00e10f5000100032006c
:100d8000e10f500010003c000000e0000a003200bb
:100d900019003700e50f500011003200e50f500038
:100da0000d003500e60f50000f003200e70f500035
:100db0000f003200100037003064a8001000370028
:100dc0003164a8000e0037003264a8000c00370020
:100dd0003364a8000a0037003464a8000800370014
:100de0003564a800060037003664a8000400370008
:100df0003764a8000200370020c0b30001003700ac
:100e00000040eb000080fa00000006000600fa0037
:100e1000200798004020800000407800f043b20096
:100e20000080fb00100798001e009000c400dd0049
:100e3000006024000080400090007800c0ff210086
:100e4000008060004280de00800078002e0090006c
:100e5000010878001e0090004400dd008080e8005a
:100e6000006024000080400090007800c0ff210056
:100e7000008060004600dd00800078001e009000c9
:100e80004400dd00640140000060240000004100d7
:100e9000100078004a00de00008040008000eb0077
:100ea0002e01900010019800210198001e00900072
:100eb000c400dd00006024000080400010007800c5
:100ec00000407800e14060002e00900061409800f2
:100ed0001e0090004400dd00e4004000006024009b
:100ee000008040001000780000407800ef40600073
:100ef0002e009000714098000000eb00000f780079
:100f00000000eb00000f7800220037001e00780080
:100f100000004000000178009e00780063804000df
:100f20009e009000c308dd0000804000800040006b
:100f300000602400008040001000780080407800ad
:100f40002e00900002004000014898001e0078002a
:100f5000000040000001e8009e007800638040002f
:100f60009e009000c308dd0000804000800040002b
:100f70000060240000804000100078004800de007f
:100f8000804078002e009000020040000148980048
:100f90001e0fe8002e009000704090000080fb00c3
:100fa000cf80de00f80307000200200003002400c9
:100fb000f80307000200200003f023009504070057
:100fc0006a040700000078009e0f5000cfff3c002d
:100fd0001e009000eb0f500018003200eb0f500085
:100fe00007003c00e90f500010003200e90f5000ec
:100ff00010003c00e80f50000a00320019003700d2
:10100000ed0f500011003200ed0f50000d003500c3
:10101000ee0f50000f003200ef0f50000f003200b3
:10102000100037002104a9000e0037002124a90078
:101030000c0037002144a9000a0037002164a900f0
:10104000080037002184a9000600370021a4a90068
:101050000400370021c4a9000200370021e4a900e0
:10106000000000000080fa00000006000200fa0004
:10107000004f78001e407800e74f500013003e00fc
:101080009e40780067c060000080fb006700600041
:101090004800dd0002208000f18f2f0081006100f8
:1010a0000100700000208800000000000020800087
:1010b0004500de00674060008080fb001e80fb0072
:1010c000808f5000f9ff3a0001003700ffff370022
:1010d0000080fa00000006000000fa008021800075
:1010e000680060000000e00002003a000000eb0031
:1010f0002f003700812180000080200000806000e8
:101100000000e00002003a00100020002800370034
:1011100090218000680060000000e00002003a00ba
:101120002000200022003700912180000080200054
:10113000008060000000e00002003a003000200063
:101140001b003700a0218000680060000000e00064
:1011500002003a004000200015003700a121800065
:1011600000802000008060000000e00002003a00e3
:10117000500020000e003700b021800068006000a1
:101180000000e00002003a00600020000800370084
:10119000b121800000802000008060000000e0009d
:1011a00002003a0070002000010037000080eb00d0
:1011b0000080fa000000060000a0fe003600f800e3
:1011c000849fbe00869fbe003400f800040020000b
:1011d000a40188000000fa00b21f07008460a90083
:1011e0000500fc000080fa003400f9004f03be0047
:1011f0004f02be003600f9000080fe0000400600ed
:1012000000a0fe003600f800849fbe00869fbe004e
:101210003400f80004002000a40188000000fa0057
:10122000ce24070084e0a9000500fc000080fa003d
:101230003400f9004f03be004f02be003600f90033
:101240000080fe000040060000a0fe003600f8000e
:10125000849fbe00869fbe003400f800040020007a
:10126000a40188000000fa00c02407008500a9003e
:101270000500fc000080fa003400f9004f03be00b6
:101280004f02be003600f9000080fe00004006005c
:1012900000a0fe003600f800849fbe00869fbe00be
:1012a0003400f80004002000a40188000000fa00c7
:1012b000b12407008760a9000500fc000080fa0047
:1012c0003400f9004f03be004f02be003600f900a3
:1012d0000080fe000040060000a0fe003600f8007e
:1012e000849fbe00869fbe003400f80004002000ea
:1012f000a40188000000fa00a22407008780a9004a
:101300000500fc000080fa003400f9004f03be0025
:101310004f02be003600f9000080fe0000400600cb
:101320000200fa00000f78001e00780000407800ec
:10133000614060000080fb004f00dd00220880005b
:10134000f1ff270081006100010070002008880083
:101350000080fa00000006000200fa00000f78008a
:101360001e00780000407800614060000080fb00b3
:101370004f00dd0082088000f1ff2700810061003e
:1013800001007000800888000080fa00000006005c
:101390000200fa00000f78001e007800004078007c
:1013a000614060000080fb004f00dd00920880007b
:1013b000f1ff2700810061000100700090088800a3
:1013c0000080fa00000006000200fa00000f78001a
:1013d0001e00780000407800614060000080fb0043
:1013e0004f00dd00f2088000f1ff2700810061005e
:1013f00001007000f00888000080fa00000006007c
:101400000200fa00000f78001e007800004078000b
:10141000614060000080fb004f00dd000209800099
:10142000f1ff2700810061000100700000098800c1
:101430000080fa00000006000c00fa00881f780007
:10144000200798003107980042079800530798003a
:101450004e019000de0190000000200001f8230002
:10146000cc020700008fbe0005a1a80004c1a9009e
:101470000421a9000108800010088000808f50001e
:101480007100310002f02f00f37724001e00be002f
:101490000203070018c0b3002e019000be019000a7
:1014a000550307000000e00001003d000044eb0090
:1014b0000804e0000d003200200880000040a10078
:1014c0000050a100200888001e01be002e009000e0
:1014d000be009000af020700240307000000780060
:1014e00067005000100888005700370002f02f00f6
:1014f000f38f24001e00be00e802070018c0b300ee
:101500002e019000be0190003b0307000000e000a8
:1015100001003d000044eb000804e000110032002f
:10152000200880000040a0000050a1002008880092
:1015300002002000031024001e00be00d702070096
:101540000001be002e009000be0090009102070036
:1015500006030700000078000000e900100888007a
:101560003900370002f02f00f3a724001e00be0050
:10157000ca02070018c0b3002e019000be019000ff
:101580001d0307000000e00001003d000044eb00e7
:101590000804e00010003200200880000040a10094
:1015a0000050a0002008880002002000032824002a
:1015b0001e00be00b90207000001be002e00900010
:1015c000be00900073020700e802070000007800e8
:1015d000100888001c00370002f02f00f3b7240029
:1015e0001e00be00ad02070018c0b3002e0190001f
:1015f000be019000000307000000e00001003d0074
:101600000044eb000804e0001700320020088000ce
:101610000040a0000050a000200888000200200028
:10162000033824001e00be009c0207000001be001b
:101630002e009000be00900056020700cb0207006b
:1016400000007800100888008460a9009460a80059
:101650002005800000c0a10000d0a00000e0a00094
:101660002005880001003700000000004f047800ca
:101670000080fa00000006000c00fa00881f7800c5
:1016800020079800310798004207980053079800f8
:101690004e019000de0190000000200001f82300c0
:1016a0003c020700008fbe0011a1a80010c1a900d4
:1016b0001061a9001021a900310880006008800095
:1016c000808f50007100310002f02f00f37724006a
:1016d0001e00be007102070018c0b3002e0190006a
:1016e000be019000c40207000000e00001003d00c0
:1016f0000044eb000804e0000d0032008008800088
:101700000040a1000050a100800888001e01be001a
:101710002e009000be0090001e02070093020700fa
:10172000000078006700500060088800570037000c
:1017300002f02f00f38f24001e00be0057020700a6
:1017400018c0b3002e019000be019000aa0207004d
:101750000000e00001003d000044eb000804e00050
:1017600011003200800880000040a0000050a1005d
:101770008008880002002000031024001e00be0024
:10178000460207000001be002e009000be0090003f
:101790000002070075020700000078000000e90061
:1017a000600888003900370002f02f00f3a72400fa
:1017b0001e00be003902070018c0b3002e019000c1
:1017c000be0190008c0207000000e00001003d0017
:1017d0000044eb000804e0001000320080088000a4
:1017e0000040a1000050a0008008880002002000f6
:1017f000032824001e00be00280207000001be00ce
:101800002e009000be009000e20107005702070082
:1018100000007800600888001c00370002f02f00ec
:10182000f3b724001e00be001c02070018c0b3005e
:101830002e019000be0190006f0207000000e00042
:1018400001003d000044eb000804e00017003200f6
:10185000800880000040a0000050a00080088800a0
:1018600002002000033824001e00be000b02070007
:101870000001be002e009000be009000c5010700d0
:101880003a020700000078006008880084e0a900a0
:1018900094e0a8003005800000c0a10000d0a000a6
:1018a00000e0a000300588000100370000000000c3
:1018b0004f0478000080fa00000006000c00fa00d7
:1018c000881f780020079800310798004207980089
:1018d000530798004e019000de01900000002000a8
:1018e00001f82300ab010700008fbe0013a1a80080
:1018f00012c1a9001221a9005108800070088000bf
:10190000808f50007100310002f02f00f377240027
:101910001e00be00e101070018c0b3002e019000b8
:10192000be019000340207000000e00001003d000d
:101930000044eb000804e0000d0032009008800035
:101940000040a1000050a100900888001e01be00c8
:101950002e009000be0090008e01070003020700d9
:1019600000007800670050007008880057003700ba
:1019700002f02f00f38f24001e00be00c7010700f5
:1019800018c0b3002e019000be0190001a0207009b
:101990000000e00001003d000044eb000804e0000e
:1019a00011003200900880000040a0000050a1000b
:1019b0009008880002002000031024001e00be00d2
:1019c000b60107000001be002e009000be0090008e
:1019d00070010700e5010700000078000000e90041
:1019e000700888003900370002f02f00f3a72400a8
:1019f0001e00be00a901070018c0b3002e01900010
:101a0000be019000fc0107000000e00001003d0065
:101a10000044eb000804e000100032009008800051
:101a20000040a1000050a0009008880002002000a3
:101a3000032824001e00be00980107000001be001c
:101a40002e009000be00900052010700c701070061
:101a500000007800700888001c00370002f02f009a
:101a6000f3b724001e00be008c01070018c0b300ad
:101a70002e019000be019000df0107000000e00091
:101a800001003d000044eb000804e00017003200b4
:101a9000900880000040a0000050a000900888003e
:101aa00002002000033824001e00be007b01070056
:101ab0000001be002e009000be009000350107001e
:101ac000aa01070000007800700888008500a900be
:101ad0009500a800400580000000a1000010a000b3
:101ae0000020a00040058800010037000000000031
:101af0004f0478000080fa00000006000c00fa0095
:101b0000881f780020079800310798004207980046
:101b1000530798004e019000de0190000000200065
:101b200001f823001b010700008fbe001fa1a800c1
:101b30001ec1a9001e61a9001e21a900a1088000e4
:101b4000d0088000808f50007100310002f02f001b
:101b5000f37724001e00be005001070018c0b30038
:101b60002e019000be019000a30107000000e000dc
:101b700001003d000044eb000804e0000d003200cd
:101b8000f00880000040a1000050a100f00888008b
:101b90001e01be002e009000be009000fd00070058
:101ba000720107000000780067005000d00888002c
:101bb0005700370002f02f00f38f24001e00be00f4
:101bc0003601070018c0b3002e019000be0190003e
:101bd000890107000000e00001003d000044eb0027
:101be0000804e00011003200f00880000040a0006e
:101bf0000050a100f008880002002000031024001b
:101c00001e00be00250107000001be002e0090004e
:101c1000be009000df0007005401070000007800bc
:101c20000000e900d00888003900370002f02f00da
:101c3000f3a724001e00be001801070018c0b3005f
:101c40002e019000be0190006b0107000000e00033
:101c500001003d000044eb000804e00010003200e9
:101c6000f00880000040a1000050a000f0088800ab
:101c700002002000032824001e00be000701070008
:101c80000001be002e009000be009000c1000700c1
:101c90003601070000007800d00888001c003700db
:101ca00002f02f00f3b724001e00be00fb00070067
:101cb00018c0b3002e019000be0190004e01070035
:101cc0000000e00001003d000044eb000804e000db
:101cd00017003200f00880000040a0000050a00073
:101ce000f008880002002000033824001e00be0017
:101cf000ea0007000001be002e009000be00900028
:101d0000a40007001901070000007800d00888002f
:101d10008760a9009760a8008005800000c0a1002e
:101d200000d0a00000e0a10080058800010037007d
:101d3000000000004f0478000080fa000000060058
:101d40000c00fa00881f78002007980031079800df
:101d500042079800530798004e019000de01900062
:101d60000000200001f823008a000700008fbe0059
:101d700021a1a80020c1a9002021a900c10880003c
:101d8000e0088000808f50007100310002f02f00c9
:101d9000f37724001e00be00c000070018c0b30087
:101da0002e019000be019000130107000000e0002a
:101db00001003d000044eb000804e0000d0032008b
:101dc000000980000040a1000050a1000009880027
:101dd0001e01be002e009000be0090006d000700a6
:101de000e20007000000780067005000e00888006b
:101df0005700370002f02f00f38f24001e00be00b2
:101e0000a600070018c0b3002e019000be0190008c
:101e1000f90007000000e00001003d000044eb0075
:101e20000804e00011003200000980000040a0001a
:101e30000050a100000988000200200003102400c7
:101e40001e00be00950007000001be002e0090009d
:101e5000be0090004f000700c4000700000078009b
:101e60000000e900e00888003900370002f02f0088
:101e7000f3a724001e00be008800070018c0b300ae
:101e80002e019000be019000db0007000000e00082
:101e900001003d000044eb000804e00010003200a7
:101ea000000980000040a1000050a0000009880047
:101eb00002002000032824001e00be007700070057
:101ec0000001be002e009000be009000310007000f
:101ed000a600070000007800e00888001c0037001a
:101ee00002f02f00f3b724001e00be006b000700b5
:101ef00018c0b3002e019000be019000be00070084
:101f00000000e00001003d000044eb000804e00098
:101f100017003200000980000040a0000050a0001f
:101f20000009880002002000033824001e00be00c3
:101f30005a0007000001be002e009000be00900075
:101f4000140007008900070000007800e0088800fe
:101f50008780a9009780a800900580000000a1005c
:101f60000010a1000020a0009005880001003700ab
:101f7000000000004f0478000080fa000000060016
:101f80000040da000000fe004f89de008201780088
:101f900029023700889fbe008a9fbe008c1f7800f0
:101fa000350207003c02330003866c006450e100f8
:101fb0002e0032006420e100330032006150e10065
:101fc0002f0032006120e10031003200858555008c
:101fd000eb07b000090020000804200005003700ce
:101fe0000804440089844c000a00310006034300c1
:101ff00087834b000001530081815b00f8ff3300b1
:102000000203be000800a0000804440089844c00bc
:10201000f6ff3900c639dd0083017300010032008c
:10202000130020008904d1000884d3000998a3007c
:10203000050032000800a7000300a0008904d100b9
:102040000884d3008b05e8008904d1000884d300fc
:102050000001eb000281d2001f02070001f0a10085
:102060000cf0a70001f0a000140237006420e1008a
:10207000160232000801be000200be00f7ff370062
:102080006120e100110232006000b800f3ff370068
:102090000000200001f82700f0ff3700889fbe00f5
:1020a0008a9fbe008c1f7800f3010700fa013300fd
:1020b00003866c006450e100240032006420e100db
:1020c000270032006150e100220032006120e1006f
:1020d000210032008b854200eb07b1000134b800cb
:1020e000003ab8000804420089844a00013ab80066
:1020f0000030b8008880400009014a000400330025
:102100000000400081804800020149008b05e90081
:10211000c909dd00830170000100320013002000b6
:10212000c814de004814dd004709de001200b200ca
:10213000c808de0008847000e701070001f0a10074
:102140000cf0a70001f0a000dc0137006120e100e5
:10215000de0132000801be000200be00f7ff3700ba
:102160006150e100fcff3a00d80137000001be00d9
:10217000ff0107000470a70003f0a1006509b1008a
:10218000160032000d0035006828e1000600350019
:10219000f0ff2f00f1ff27000300e00013003b00d9
:1021a0000100280000000500000040008180480078
:1021b0008502e900fcff3a0008003700f88f420072
:1021c00002003c008000eb00000005008100d1000f
:1021d0000080d3008502e800fcff3a000300e00025
:1021e00002003b0060001000e080180000000600c4
:1021f0006011b800f3013700f4ff2f002002370010
:102200000400200039023700140020001c023700af
:1022100003f0a200889fbe008a9fbe008c1f78003a
:10222000950107009c0133006450e1004f0032002b
:102230006420e1005200320003826c0007003b0082
:102240000905d0000306d000820f54000c065d0083
:10225000020039000200320089017800030678008c
:102260008582550004003d000003fd008103fd0050
:102270008502ea008b854200840f720002003b0059
:1022800060001000e08018006011b8000005eb004d
:102290007a28e1000a00390006007800c75ddd00f9
:1022a000f707b200878075002d003700828171002a
:1022b0000a017800610560008180d1000080d300b0
:1022c0008502e900f9ff3b000604400087844800ce
:1022d00002003b0060041400e0841c000988a30095
:1022e000070032008a8171008281710061016400ff
:1022f0008904d1000884d3008b05e800170037005b
:102300000978a30013003a000b00e000130034002a
:102310008b05e9000804440089844c000a447400d9
:102320000978a3000d003a000b00e000070034001c
:102330008b05e9000804440089844c0001003a0040
:102340000b0020000978a300f7ff32000001eb002a
:1023500002003700828171000a0178005e010700e7
:102360000cf0a70001f0a000540137006420e10048
:1023700002003a00838f6c00540133000801be0054
:102380000200be004d01370004002000bc013700f0
:102390000001eb00240237000081eb00220237002d
:1023a000889fbe008a9fbe008c1f78003201070004
:1023b0001002200002003b00a040880036013700d8
:1023c0008a0062006408e10002003a00a040880030
:1023d0003e0137006108e100fcff32000800be004a
:1023e00003047800ebfe070001f0a100770207006c
:1023f00008f0a600040037000001be00910424008c
:10240000b0fd200082ff070009f0a70001f0a20044
:102410002a013700889fbe008a9fbe008c1f78006b
:102420000004be00520107000478a30026003a0011
:102430006120e1002500320009f8a30025003a00e0
:102440006420e10021003200f507b1000508a30077
:102450000200320000004000818048006044b80063
:10246000031020000200200000004000818048008e
:102470000805440089854c000a0541008b85490008
:102480000a0550008b855800030033000a00be0087
:1024900002047400838474008301d1000281d3009c
:1024a000830f7100f0ff3a008904d1000884d30043
:1024b0006001490082017800c1adde00fb07b00079
:1024c00005010700fd0037000960a0000800be00fc
:1024d000fa00370012022000a2408800f0ff2f000f
:1024e000f1ff2700f5003700889fbe008a9fbe00dd
:1024f0008c9fbe009a020700850478000005be008c
:102500006420e10049003e006220e1000300320047
:10251000090035000bf8a300440032000bf8a300bb
:102520000800320010022000a0408800f0ff2f00b9
:10253000f1ff27003d00370001f82f0000002000c8
:102540003a0037003d00070031ff07000006be00db
:102550000a00be00324f200053f3230026ff07007d
:10256000060034000c00be003400070028ff0700fe
:102570000006be000a00be00020037008904e90020
:102580000c00be002d000700c4fe07002b00070052
:1025900020ff07000001be000c00be007dfe07000a
:1025a0000005be000001be00bcfe07000006be0024
:1025b000a2f32300430d2c0016ff0700809fbe00ee
:1025c0000c00be00d2e32700d3f02b00b3fe0700bf
:1025d0004f01be006ffe07000006be000a01be00ec
:1025e000aefe07000a01be000aff07000006be009b
:1025f0006148b90064fe07000005be0032082800eb
:10260000e3952b00a5fe07000c01be0001ff0700ab
:102610000006be000a00be000200280013f32300db
:102620009efe07000c01be00fafe07004f06be002a
:102630004f05be004f04be000000060003f023005b
:1026400002000500889fbe008a9fbe008c9fbe00ce
:102650000004be00c60007000800be006420e100c0
:1026600048003e005500320072212700132b240041
:10267000e1fe070047003c000800be00c2ec280055
:10268000e32c2c00e0fe0700470035000800be00e8
:1026900001f0a1000200200003382300dafe070049
:1026a000430035000800be00b2a32a0083fb2300cc
:1026b0007afe07000200200003f0230001f0a700cb
:1026c00003f0a000d3fe0700a8fe07000005be002f
:1026d0002dfe070001f0a2000006be000200280047
:1026e00013f323006dfe07000801be00c9fe0700ba
:1026f000809fbe000c00be0032082800e3952b002e
:1027000066fe07004f01be00c2fe07000006be00c5
:102710000001be0061fe0700809fbe00424125000f
:1027200083b823005dfe07000200200003e82300b9
:10273000b8fe07000c01be0058fe07000006be00f0
:102740004f00be00f2f92b00c3d4230053fe070054
:102750000200200003f02300aefe07000c01be00c3
:10276000abfe07000001be000c00be0009fe070022
:102770000200200003f02300a6fe070061014500cf
:10278000040207004f06be004f05be004f04be0006
:102790000000060001f827000000200022022000af
:1027a000a2408800f7ff37006000b800fbff370049
:1027b00001f8230000002000f2ff370009f8a30011
:1027c000f0ff32006000b800eeff37000001be00ed
:1027d000670007000470a70003f0a10003f8a3003e
:1027e00013003a006509b1001000320009003500fd
:1027f0006928e10002003500010028000000050002
:1028000000004000818048008502e900fcff3a009a
:1028100000000600f88f4200050035008100d1005d
:102820000080d3008502e800fcff3a0000000600ab
:102830008000eb0000000500881f7800030478008a
:102840000300e00007003d0060001000e080180079
:1028500060011900e081190002003b0001f02d0029
:10286000030037005700070008f0a70001f0a000a0
:102870004f047800000006000004be003c00070082
:102880000003be000405be000200be0038000700c1
:10289000844f7500000006000200be006450e10095
:1028a000050036006420e100020036000968a3003c
:1028b00001003a000800be000160a0004f06780049
:1028c0004f05be004f04be0000000600f0ff2f00c1
:1028d000f1ff2700f9ff37008100200061805500db
:1028e0000b003d000b00200061fe2f000100e10005
:1028f0001d00340082817100610164008904d100ef
:102900000884d3000000e800faff3a0071002000bc
:1029100061006400030070000200600009003200e2
:1029200061044400e0844c000988a50005003200e1
:102930008b05e8006808e10002003a008904d10034
:102940000884d300f20f20000258e10005003d008a
:10295000c75ddd00f907b2008980750008007800c6
:10296000000006000bf827008b007800000005002f
:10297000c70ade00f107b200f50fb200080032000e
:10298000e1cf4200020032000170a00024000500e7
:10299000810f7000010032000408050044000500aa
:1029a000810f700002003a00140005008502e90062
:1029b0000000400081c04800fcff3b000170a00007
:1029c00024000500889fbe008a9fbe000082700020
:1029d0000402710004827100260032000004be006f
:1029e0000200be006011b8006b09200095022000b3
:1029f0000182cf000a0039000541b1000082cf00fa
:102a0000070039000541b1000982cf0004003900f8
:102a10000541b1000882cf00010039000541b10035
:102a200005425200120032000a003b008281710010
:102a3000610164008100d1000080d3008984d3004b
:102a40000884d3008b05e8000442e800f7ff3a0051
:102a5000070037000804440089844c000000480047
:102a6000818048008b05e9000442e900f9ff3a0043
:102a700099ff07004f05be004f04be00000006008e
:102a8000889fbe008a9fbe00841f78007aff0700df
:102a90004f00780011003300f0ff2f00838f6c008f
:102aa00006003b00040565000a00a7000800370087
:102ab00009f0a6001000200008003700820f540023
:102ac000838f5c00030039001000200001003e00ed
:102ad0000000200009f0a7000000ea004f05be003a
:102ae0004f04be000000e00000000600889fbe000a
:102af0008a9fbe008c1f78004f26dd005eff070016
:102b000065ff33006120e100430032006250e100c4
:102b100041003e003e0039006420e1003c003200ec
:102b2000058255000f003b000402e80038003a001f
:102b3000800f5300818f5b00350034000800be0019
:102b400003f0a10001f0a60003f0a0000cf0a70024
:102b5000b0fd070059ff37000603430087834b0091
:102b60000c4646000005530081855b0002003300df
:102b70000a03be000c00a0000402e900f6ff3b00bf
:102b8000850578000602430087824b0004003a0066
:102b90006000b80009f0a70001f0a00047ff37006f
:102ba0000002520081825a000704e0000400330052
:102bb0000603430087834b008b05e900faff3700cb
:102bc000090578000604be000203be006011b800cb
:102bd00041ff0700e00f5200e08f5a000700350068
:102be00002003c000c08a300040032000601be00f5
:102bf00003f0a0000cf0a70086fd07000a8568001e
:102c000001f0a1000af0a70001f0a0002bff37009f
:102c10000800be0029ff3700100220000cf0a600bb
:102c2000a040880029ff3700889fbe008a9fbe0011
:102c30008c9fbe00820578000004be004cff070098
:102c40000800be006420e1000700390002003a00dd
:102c5000f1ff2700f0ff2f000160a000120220000a
:102c6000a2408800550037006120e10003003a00cf
:102c70000b00a70001f823005000370001f0a1006d
:102c800002002100936424005ffd07000800be00dd
:102c900004003500b2fd2000930c240058fd07000d
:102ca0000004be000005eb000b00a6004f0dde0087
:102cb00001f0a1000004be0032982f0023ea230097
:102cc000f6fc07000001eb0003f023000b00a70057
:102cd00003f823004ffd070024fd07000000a700b4
:102ce0000a00a200a8fc07000b00e000030032006d
:102cf0000200200003f0230045fd070001f0a200c0
:102d00000006be000200200093042400e3fc07003c
:102d10000801be003ffd0700809fbe000c00be0002
:102d200022a22a00d3a72300dcfc07004f01be002b
:102d300038fd07000004be0001f0a10002002000e1
:102d40000398230030fd07000800be00190035007d
:102d50000001be00d1fc07000006be00b2c529007c
:102d6000e3622300cdfc070022222b00f3942b000a
:102d700028fd07000c01be00c8fc0700e273280014
:102d800083c0230023fd07000c01be00c3fc070025
:102d900042aa2a00a3e22b001efd07000c01be0080
:102da000befc07000801be00bcfc07000801be0015
:102db00018fd07000a00a70001f0a2004f06be00a0
:102dc0004f05be004f04be0000000600889fbe00f5
:102dd0008a9fbe008c9fbe000004be00e4fe070078
:102de0000800be00890678006420e1000800390070
:102df000040032000160a00012022000a2408800fe
:102e00005300370091fc2300b0fd20004e00370036
:102e10000006eb0009f0a10003f8230002002000e7
:102e20000800be00f8fc07000600340001f823008b
:102e3000000020000801be0056fc07000004be0090
:102e40002c0020000800be0093e82300320a230073
:102e5000edfc0700120034000801be00d1fd230084
:102e6000703d2b00ebfc07000005be00b3f3230010
:102e7000f27a26000800be0088fc070003f8230051
:102e800002002000e2fc07000801be00e1fc070090
:102e90000a01be003ffc07000004be000c06e8006b
:102ea0000800be0001f0a1000200200003982300ea
:102eb000d5fc07000800be00160035000801be0062
:102ec00076fc07000005be0032cd2c0043fb23003a
:102ed000d0fc0700809fbe001269280003d52b009c
:102ee0000a00be006dfc0700620f210013ef2b00eb
:102ef000c8fc07000a01be0068fc07004f01be00c5
:102f000024fc07000801be0064fc07000801be00a5
:102f1000c0fc07000c00e0000b0032000c10a70002
:102f200001f0a200b2fd200093fc23006260e100ea
:102f30000400320022a9200063f023000c10a70037
:102f400063f82300b3fc07000df0a70001f0a20016
:102f50004f06be004f05be004f04be000000060035
:102f60000003be0082fe07006220e1000200320082
:102f70000600be0005000500e507b100f107b2003c
:102f800004f023008480700007f0a70001f0a00087
:102f9000240005000003be0075fe07006220e1006a
:102fa000020032000600be0000000600850241005b
:102fb000e30f20000328e10005003c00a3fe2f00e2
:102fc0000328e10007003d00050020000100370054
:102fd000f50f200020022000a04088006000b8000b
:102fe00008003700130020008381520005003d00d7
:102ff0008100d1000080d3008301e800fcff3a008b
:1030000005002000c72add00f107b20085807000ae
:0c30100007f0a70001f0a000000006007f
:020000040000fa
:10301c000400fa00000f7800110798001e009000c1
:10302c001e004000104078008080fb001e009000c5
:10303c000000e8001e004000104078000080fb00fb
:10304c004800dd00008040000080fa00000006000f
:10305c000600fa00000f780011079800220798006c
:10306c002e0090009e009000008040009e00780092
:10307c0081407800014878002e0090000000e800a4
:10308c009e009000008040009e007800c808de0082
:10309c0081407800014878000080fa0000000600aa
:1030ac000400fa00000f7800110798009e009000b1
:1030bc001e007800d6ff0700cf80de00affb0700b4
:1030cc0002002000a3472400affb07000080fa0099
:1030dc00000006000800fa00008fbe0022079800ce
:1030ec003307980002002000a34724001e00be00f6
:1030fc00e7fb07001afc0700000078003e01900077
:10310c00ae009000d2ff07000080fa00000006001d
:10311c000c00fa0040079800510798000000eb00e3
:10312c00000f780064004700100798000000eb00c7
:10313c00000f78000b0037005e0090001e0040006e
:10314c00ce00900000804000904078001e0090005f
:10315c00014878001e0090000000e800100798005d
:10316c001e0fe8001e007800e30f5000f2ff340041
:10317c002e009000be0090000080fa0000000600b7
:10318c000c00fa00200798003107980042079800bd
:10319c00530798000000eb00000f78006400470014
:1031ac00100798000000eb00000f78000b003700b0
:1031bc005e0090001e004000ce0090000080400099
:1031cc009e00900091407800014878001e0090000d
:1031dc000000e800100798001e0fe8001e007800a1
:1031ec00e30f5000f2ff34000080fa0000000600ec
:1031fc001400fa00100f980020c5b300004f78009f
:10320c001e089000100078006f0060008000eb003a
:10321c00f200200003002000820f5000838f580022
:10322c00b40b3e00006001000f003700b10b3700fb
:10323c00cc03370030003700160137001800370078
:10324c00c10037000a013700ee003700a90b370028
:10325c0025003700260037000101370050063700e3
:10326c00a40b3700a10b37001e0890007040900093
:10327c00e14f500007003a001e0890008048900073
:10328c0050c5b30080cf500002003a00bb0b0700c2
:10329c009c0b370090c4b300004f7800990b37009b
:1032ac0000b62000f1c0b3000148780030b6200011
:1032bc008040eb000148780040b620008040eb00d5
:1032cc000148780026832000e58f2000c48d200063
:1032dc00a38b200082892000a186200000b420004e
:1032ec00510f0700870b3700e50b0700850b3700e4
:1032fc00b20b0700830b37001e0890007040900043
:10330c00e64f50008d003a000000eb0001f807007a
:10331c001e089000680040008000eb0060ff070072
:10332c0030079800410798001e0890006800400084
:10333c00210020005aff07005007980061079800f1
:10334c001e089000680040004100200054ff070058
:10335c0070079800010f980000b620008040eb0029
:10336c000148780030b620008040eb00014878001e
:10337c0040b620008040eb000148780026832000f6
:10338c00e58f2000c48d2000a38b200082892000b3
:10339c00a186200000b42000230f07000000eb00e2
:1033ac00c04588000000eb00d04688000000eb0010
:1033bc00e04788000000eb00f04888000000eb00bc
:1033cc00801f780000b42000801f7800c0af200060
:1033dc00801f780080ab2000801f780040a7200061
:1033ec00801f780000a32000801f7800e08f200051
:1033fc00801f7800c08d2000801f7800c09e2000a8
:10340c00801f7800879a20004696200005922000a5
:10341c00a4862000a38b2000828920002183200019
:10342c00608120005b1c0700f28757006000b80029
:10343c00c92107006000b800ce2107003e019000b2
:10344c00ce01900072448800834488005e01900095
:10345c00ee01900092448800a34488007e01900005
:10346c008e099000b2438800c34388007e00900010
:10347c008e089000b00c0700d0438800e143880010
:10348c0090418000a14180007e0190008e09900047
:10349c00fffa07000200200003002400bafa07001c
:1034ac00ad21070090418000a141800001f0a200f5
:1034bc007e0190008e099000f5fa070002002000b2
:1034cc0003002400b0fa0700aa2107001000200016
:1034dc00c045880010002000d04688001000200055
:1034ec00e047880010002000f048880000b620005b
:1034fc008040eb000148780030b620008040eb00a3
:10350c000148780040b620008040eb00014878006c
:10351c0026832000e58f2000c48d2000a38b200083
:10352c0082892000a186200000b42000be0e070076
:10353c001000200077f70700f20a370090c4b300a0
:10354c00004f7800ef0a37001e0890007040900082
:10355c00e24f500028003a001e089000804890006e
:10356c00c0c4b30080cf500005003a001e08900084
:10357c00104890000080fb00c0458800e10a37002d
:10358c001e0890008048900010c4b30080cf5000fb
:10359c0005003a001e089000104890000080fb00c7
:1035ac00d0468800d70a37001e089000804890004b
:1035bc0040c4b30080cf500005003a001e089000b4
:1035cc00104890000080fb00e0478800cd0a3700cf
:1035dc001e0890008048900070c4b30080cf50004b
:1035ec00c70a3a001e089000104890000080fb00ab
:1035fc00f0488800c30a370090c4b300004f78002d
:10360c00c00a37001e08900000489000614060001e
:10361c000080fb00610060004500dd006216800048
:10362c00f1fd2f0081006100010070006016880020
:10363c001e08900010489000614060000080fb0064
:10364c00610060004600dd0062168000f1fb2f0077
:10365c00810061000100700060168800a90a370023
:10366c001e089000004890003d0b0700a50a37008b
:10367c001e089000004890000080fb00b0448800b9
:10368c001e089000004890000080fb002ff70700f8
:10369c009c0a37001e089000004890000080fb0038
:1036ac00cf80de002201200003002000820f50009a
:1036bc00838f5800a7023e00006001001200370003
:1036cc002a003700480037006600370089003700b1
:1036dc00b2003700de0037000a0137003301370033
:1036ec005601370079013700ab013700ce013700a6
:1036fc00f10137001a0237004302370095023700f8
:10370c005a0237007e0237001e089000704090006d
:10371c00e14f500012003a0000b620008040eb0050
:10372c000148780030b620008040eb00014878005a
:10373c0040b620008040eb00014878002683200032
:10374c00e58f2000c48d2000a38b200082892000ef
:10375c00a186200000b42000330e070002003700c1
:10376c0090c4b300004f78007d0237001e08900013
:10377c0070409000e34f500018003a001e08900073
:10378c00680040001100200045fe0700005a880028
:10379c00115a880000b6200011c0b300014878000f
:1037ac0030b620008040eb000148780040b6200085
:1037bc008040eb000148780026832000e58f200034
:1037cc00c48d2000a38b200082892000a1862000bc
:1037dc0000b42000140e07000200370090c4b300a0
:1037ec00004f78005e0237001e0890007040900079
:1037fc00e34f500018003a001e089000680040008b
:10380c001100200026fe0700205a8800315a88003b
:10381c0000b6200021c0b3000148780030b620006b
:10382c008040eb000148780040b620008040eb005f
:10383c000148780026832000e58f2000c48d2000ed
:10384c00a38b200082892000a186200000b42000d8
:10385c00f50d07000200370090c4b300004f78004c
:10386c003f0237001e08900070409000e44f50005b
:10387c001d003a001e089000680040001100200056
:10388c0007fe0700205a8800315a880000b6200035
:10389c0031c0b300014878001e08900030489000f9
:1038ac008040780010b620000148780030b6200027
:1038bc008040eb000148780040b620008040eb00cf
:1038cc000148780026832000e58f2000c48d20005d
:1038dc00a38b200082892000a186200000b4200048
:1038ec00d10d07000200370090c4b300004f7800e0
:1038fc001b0237001e08900070409000e64f5000ed
:10390c0023003a001e0890006800400011002000bf
:10391c00e3fd0700805a8800915a88001e08900029
:10392c006800400031002000ddfd0700a05a88002f
:10393c00b15a880000b6200041c0b300014878009d
:10394c001e089000504890008040780010b620006f
:10395c000148780030b620008040eb000148780028
:10396c0040b620008040eb00014878002683200000
:10397c00e58f2000c48d2000a38b200082892000bd
:10398c00a186200000b42000a70d0700020037001c
:10399c0090c4b300004f7800f10137001e0890006e
:1039ac0070409000e64f500026003a001e08900030
:1039bc006800400011002000b9fd0700805a880003
:1039cc00915a88001e0890006800400031002000c9
:1039dc00b3fd0700a05a8800b15a880000b6200039
:1039ec0051c0b300014878001e0890005048900068
:1039fc008040780010b620000148780030b62000d6
:103a0c008040eb000148780040b620008040eb007d
:103a1c000148780020b620008040eb000148780077
:103a2c0026832000e58f2000c48d2000a38b20006e
:103a3c0082892000a186200000b420007a0d0700a6
:103a4c000200370090c4b300004f7800c401370067
:103a5c001e08900070409000e64f500026003a007f
:103a6c001e08900068004000110020008cfd07002b
:103a7c00805a8800915a88001e0890006800400007
:103a8c003100200086fd0700a05a8800b15a88003a
:103a9c0000b6200061c0b300014878001e089000f9
:103aac00504890008040780010b620000148780003
:103abc0030b620008040eb000148780040b6200072
:103acc008040eb000148780020b620008040eb00dd
:103adc000148780026832000e58f2000c48d20004b
:103aec00a38b200082892000a186200000b4200036
:103afc004d0d07000200370090c4b300004f780052
:103b0c00970137001e08900070409000e64f50005f
:103b1c0023003a001e0890006800400011002000ad
:103b2c005ffd0700805a8800915a88001e0890009b
:103b3c00680040003100200059fd0700a05a8800a1
:103b4c00b15a880000b6200071c0b300014878005b
:103b5c001e089000504890008040780010b620005d
:103b6c000148780030b620008040eb000148780016
:103b7c0040b620008040eb000148780026832000ee
:103b8c00e58f2000c48d2000a38b200082892000ab
:103b9c00a186200000b42000230d0700020037008e
:103bac0090c4b300004f78006d0137001e089000e0
:103bbc0070409000e44f50001d003a0000b6200009
:103bcc0081c0b300014878001e0890003048900076
:103bdc008040780010b620000148780030b62000f4
:103bec008040eb000148780040b620008040eb009c
:103bfc00014878001e089000680040001100200069
:103c0c0027fd0700204588003145880026832000c9
:103c1c00e58f2000c48d2000a38b2000828920001a
:103c2c00a186200000b42000ff0c07000200370022
:103c3c0090c4b300004f7800490137001e08900073
:103c4c0070409000e44f50001d003a0000b6200078
:103c5c0091c0b300014878001e08900030489000d5
:103c6c008040780010b620000148780030b6200063
:103c7c008040eb000148780040b620008040eb000b
:103c8c00014878001e0890006800400011002000d8
:103c9c0003fd07003046880041468800268320003b
:103cac00e58f2000c48d2000a38b2000828920008a
:103cbc00a186200000b42000db0c070002003700b6
:103ccc0090c4b300004f7800250137001e08900007
:103cdc0070409000e84f50002c003a001e089000f5
:103cec006800400011002000edfc0700805a88009d
:103cfc00915a88001e089000680040003100200096
:103d0c00e7fc0700a05a8800b15a880000b62000d2
:103d1c00a1c0b300014878001e0890006800400064
:103d2c0051002000defc070020458800314588004a
:103d3c001e089000704890008040780010b620005b
:103d4c000148780030b620008040eb000148780034
:103d5c0040b620008040eb000148780020b62000df
:103d6c008040eb000148780026832000e58f20007e
:103d7c00c48d2000a38b200082892000a186200006
:103d8c0000b42000a80c07000200370090c4b30058
:103d9c00004f7800f20037001e0890007040900031
:103dac00e44f50001d003a001e08900068004000cf
:103dbc0011002000bafc0700205a8800315a8800f4
:103dcc0000b62000b1c0b300014878001e08900076
:103ddc00304890008040780010b6200001487800f0
:103dec0030b620008040eb000148780040b620003f
:103dfc008040eb000148780026832000e58f2000ee
:103e0c00c48d2000a38b200082892000a186200075
:103e1c0000b42000840c07000200370090c4b300eb
:103e2c00004f7800ce0037001e08900070409000c4
:103e3c00e44f50001d003a001e089000680040003e
:103e4c001100200096fc0700205a8800315a880087
:103e5c0000b62000c1c0b300014878001e089000d5
:103e6c00304890008040780010b62000014878005f
:103e7c0030b620008040eb000148780040b62000ae
:103e8c008040eb000148780026832000e58f20005d
:103e9c00c48d2000a38b200082892000a1862000e5
:103eac0000b42000600c07000200370090c4b3007f
:103ebc00004f7800aa0037001e0890007040900058
:103ecc00e64f500023003a001e08900068004000a6
:103edc001100200072fc0700405a8800515a8800db
:103eec001e08900068004000310020006cfc0700a8
:103efc00605a8800715a880000b62000d1c0b30007
:103f0c00014878001e0890005048900080407800ce
:103f1c0010b620000148780030b620008040eb003d
:103f2c000148780040b620008040eb000148780042
:103f3c0026832000e58f2000c48d2000a38b200059
:103f4c0082892000a186200000b42000360c0700d6
:103f5c000200370090c4b300004f78008000370097
:103f6c001e08900070409000e64f500023003a006d
:103f7c0000b62000e1c0b300014878001e08900094
:103f8c00504890008040780010b62000014878001e
:103f9c0030b620008040eb000148780040b620008d
:103fac008040eb00014878001e089000680040003b
:103fbc00110020003afc0700404788005147880058
:103fcc001e089000680040003100200034fc0700ff
:103fdc00504888006148880026832000e58f200027
:103fec00c48d2000a38b200082892000a186200094
:103ffc0000b420000c0c07000200370090c4b30082
:10400c00004f7800560037001e089000704090005a
:10401c00e14f500012003a0000b62000f1c0b3008e
:10402c000148780030b620008040eb000148780051
:10403c0040b620008040eb00014878002683200029
:10404c00e58f2000c48d2000a38b200082892000e6
:10405c00a186200000b42000f30b070002003700fb
:10406c0090c4b300004f78003d0037001e0890004c
:10407c0070409000e54f50001e003a0000b6200042
:10408c0011c1b3000148780030b620008040eb002d
:10409c000148780040b620008040eb0001487800d1
:1040ac001e0890006800400011002000fcfb070077
:1040bc0020458800314588001e08900068004000ab
:1040cc0031002000f6fb070030468800414688008e
:1040dc0026832000e58f2000c48d2000a38b2000b8
:1040ec0082892000a186200000b42000ce0b07009e
:1040fc000200370090c4b300004f7800180037005e
:10410c001e08900070409000e54f50000e003a00e1
:10411c0000b6200021c1b300014878001e089000b1
:10412c00004890000080fb008000eb002df8070099
:10413c000200200003082400d5f70700205a88004d
:10414c00315a88000200370090c4b300004f780049
:10415c000300370090c4b300004f7800000000004b
:10416c00e80737001e08900068004000110020008e
:10417c00e7fb070010079800210798001e08900025
:10418c00004890000080fb006101b900e0ff2f00a7
:10419c00f1ff2f000200400083804800920d2000a8
:1041ac0003002000820f5000838f580078023e00dd
:1041bc0000600100d9003700750237007402370027
:1041cc0073023700e1003700e5003700ef003700dd
:1041dc006f0237006e023700f7003700fb00370024
:1041ec00ff00370003013700070137000b013700d0
:1041fc000f01370013013700170137002201370078
:10420c006302370062023700610237006002370038
:10421c005f0237005e0237005d0237005c02370038
:10422c005b0237005a023700590237005802370038
:10423c0057023700560237001f013700540237006f
:10424c00530237005202370020013700500237006a
:10425c004f0237004e023700260137004c02370060
:10426c004b0237004a02370027013700480237005b
:10427c0047023700460237002d0137004402370051
:10428c0043023700420237002e013700400237004c
:10429c003f0237003e023700340137003c02370042
:1042ac003b0237003a02370035013700380237003d
:1042bc003702370036023700350237003402370038
:1042cc003302370032023700310237003002370038
:1042dc002f0237002e023700330137003701370029
:1042ec003b0137003f0137004301370047013700de
:1042fc002702370026023700250237002402370038
:10430c002302370022023700210237002002370037
:10431c001f0237001e0237001d0237004001370014
:10432c0044013700480137004c0137005001370079
:10433c0054013700160237001502370014023700fb
:10434c001302370012023700110237001002370037
:10435c000f0237000e0237000d0237000c02370037
:10436c004d01370051013700550137005901370015
:10437c005d01370061013700050237000402370088
:10438c000302370002023700010237000002370037
:10439c00ff013700fe013700fd013700fc0137003b
:1043ac00fb0137005a0137005e013700620137000c
:1043bc00660137006a0137006e013700f4013700df
:1043cc00f3013700f2013700f1013700f00137003b
:1043dc00ef013700ee013700ed013700ec0137003b
:1043ec00eb013700ea013700670137006b0137003a
:1043fc006f01370073013700770137007b013700fd
:10440c00e3013700e2013700e1013700e00137003a
:10441c00df013700de013700dd013700dc0137003a
:10442c00db013700da013700d9013700740137009e
:10443c00780137007c013700800137008401370098
:10444c0088013700d2013700d1013700d001370085
:10445c00cf013700ce013700cd013700cc0137003a
:10446c00cb013700ca013700c9013700c80137003a
:10447c008101370085013700890137008d01370034
:10448c009101370095013700c1013700c001370099
:10449c00bf013700be013700bd013700bc0137003a
:1044ac00bb013700ba013700b9013700b80137003a
:1044bc00b70137008e0137009201370096013700a3
:1044cc009a0137009e013700a2013700b001370076
:1044dc00af013700ae013700ad013700ac0137003a
:1044ec00ab013700aa0137009f013700a301370049
:1044fc00a7013700a6013700a5013700a40137003a
:10450c00a3013700a2013700a10137007400370066
:10451c0082003700900037009e0037001e0190008b
:10452c00ae0190001241880023418800b040800009
:10453c00c140800014418000254180000001be0074
:10454c000400be00fbf50700940137001e0190002b
:10455c00ae01900092418800a34188008f01370082
:10456c001e019000ae019000b2418800c34188004a
:10457c00b0418000c1418000344380000001be0086
:10458c0004007800821d0700840137001e01900092
:10459c00ae019000d2418800e3418800d0418000f8
:1045ac00e1418000444380000001be00040078001b
:1045bc00901d0700790137001e019000ae0190009c
:1045cc003242880043428800740137001e0190007b
:1045dc00ae01900052428800634288006f013700a0
:1045ec001e019000ae019000724288008342880048
:1045fc006a0137001e019000ae01900092428800c3
:10460c00a3428800650137001e019000ae019000a6
:10461c00b2428800c3428800600137001e0190003e
:10462c00ae019000d2428800e34288005b01370063
:10463c001e019000ae019000f242880003438800f6
:10464c00560137001e019000ae0190001243880005
:10465c0023438800510137001e009000ae009000eb
:10466c00bff607000000780030438800b04180009e
:10467c00c1418000344380000001be00040078007a
:10468c00431d0700450137001e009000ae0090004e
:10469c00b3f607000000780040438800d04180004a
:1046ac00e1418000444380000001be00040078001a
:1046bc00371d0700390137001e019000ae01900034
:1046cc000245880013458800340137001e01900014
:1046dc00ae01900082458800934588002f01370079
:1046ec001e019000ae019000a2458800b3458800e1
:1046fc002a0137001e019000ae019000124688007e
:10470c0023468800250137001e019000ae01900061
:10471c0092468800a3468800200137001e019000b5
:10472c00ae019000b2468800c34688001b013700da
:10473c001e019000ae01900022478800334788008c
:10474c00160137001e019000ae019000a2478800b0
:10475c00b3478800110137001e019000ae01900094
:10476c00c2478800d34788000c0137001e01900017
:10477c00ae0190003248880043488800070137009a
:10478c001e019000ae019000b2488800c34888001a
:10479c00020137001e019000ae019000d248880043
:1047ac00e3488800fd0037001e019000ae01900028
:1047bc00424a8800534a8800f80037001e019000d6
:1047cc00ae019000624a8800734a8800f3003700fb
:1047dc001e019000ae019000824a8800934a880026
:1047ec00ee0037001e019000ae019000a24a880036
:1047fc00b34a8800e90037001e019000ae0190001a
:10480c00c24a8800d34a8800e40037001e01900099
:10481c00ae019000e24a8800f34a8800df003700be
:10482c001e019000ae019000624c8800734c880011
:10483c00da0037001e019000ae019000824c880017
:10484c00934c8800d50037001e019000ae019000fb
:10485c00a24c8800b34c8800d00037001e01900099
:10486c00ae019000c24c8800d34c8800cb003700be
:10487c001e019000ae019000e24c8800f34c8800c1
:10488c00c60037001e019000ae019000024d88005a
:10489c00134d8800c10037001e019000ae0190003e
:1048ac00824e8800934e8800bc0037001e01900099
:1048bc00ae019000a24e8800b34e8800b7003700be
:1048cc001e019000ae019000c24e8800d34e8800ad
:1048dc00b20037001e019000ae019000e24e88003d
:1048ec00f34e8800ad0037001e019000ae01900021
:1048fc00024f8800134f8800a80037001e0190005b
:10490c00ae019000224f8800334f8800a30037007f
:10491c001e019000ae019000a2508800b350880098
:10492c009e0037001e019000ae019000c25088001e
:10493c00d3508800990037001e019000ae01900002
:10494c00e2508800f3508800940037001e0190005c
:10495c00ae01900002518800135188008f0037007f
:10496c001e019000ae019000225188003351880046
:10497c008a0037001e019000ae0190004251880061
:10498c0053518800850037001e019000ae01900045
:10499c00c2528800d3528800800037001e0190005c
:1049ac00ae019000e2528800f35288007b00370081
:1049bc001e019000ae019000025388001353880032
:1049cc00760037001e019000ae0190002253880043
:1049dc0033538800710037001e019000ae01900027
:1049ec0042538800535388006c0037001e0190001e
:1049fc00ae01900062538800735388006700370043
:104a0c001e019000ae019000e2548800f35488001f
:104a1c00620037001e019000ae0190000255880024
:104a2c00135588005d0037001e019000ae01900008
:104a3c002255880033558800580037001e0190001d
:104a4c00ae01900042558800535588005300370042
:104a5c001e019000ae0190006255880073558800cd
:104a6c004e0037001e019000ae0190008255880068
:104a7c0093558800490037001e019000ae0190004c
:104a8c000257880013578800440037001e0190001d
:104a9c00ae01900022578800335788003f00370042
:104aac001e019000ae0190004257880053578800b9
:104abc003a0037001e019000ae019000625788004a
:104acc0073578800350037001e019000ae0190002e
:104adc008257880093578800300037001e019000e1
:104aec00ae019000a2578800b35788002b00370006
:104afc001e019000ae0190002259880033598800a5
:104b0c00260037001e019000ae019000425988002b
:104b1c0053598800210037001e019000ae0190000f
:104b2c0062598800735988001c0037001e019000e0
:104b3c00ae01900082598800935988001700370005
:104b4c001e019000ae019000a2598800b359880054
:104b5c00120037001e019000ae019000c25988006f
:104b6c00d35988000d0037001e019000ae01900053
:104b7c00c25a8800d35a8800080037001e019000e2
:104b8c00ae019000e25a8800f35a88000300370007
:104b9c0090c4b300004f78000000000059053700a6
:104bac001e089000004890000080fb00cf80de00c3
:104bbc00b20d200003002000820f5000838f58009c
:104bcc0045053e0000600100db003700df003700c8
:104bdc00e3003700e7003700eb003700ef00370049
:104bec00f3003700f7003700fb003700ff003700f9
:104bfc0003013700070137000b0137000f013700a5
:104c0c0013013700170137001b0137001f01370054
:104c1c0023013700270137002c0137003101370001
:104c2c0035013700390137003d01370041013700ac
:104c3c0045013700490137004d013700510137005c
:104c4c0055013700590137005d013700620137000b
:104c5c00660137006a0137006e01370072013700b8
:104c6c00760137007a01370083013700880137005d
:104c7c008c01370090013700940137009801370000
:104c8c009c013700a0013700a9013700ae013700a5
:104c9c00b2013700b6013700ba013700be01370048
:104cac00c2013700c6013700cf013700d4013700ed
:104cbc00d8013700dc013700e0013700e401370090
:104ccc00e8013700ec013700f5013700fa01370035
:104cdc00fe01370002023700060237000a023700d5
:104cec000e02370012023700160237001a02370084
:104cfc001e02370022023700260237002a02370034
:104d0c002e02370032023700360237003a023700e3
:104d1c003e02370042023700460237004a02370093
:104d2c004e02370052023700560237005a02370043
:104d3c005e02370062023700660237006a023700f3
:104d4c006e02370072023700760237007a023700a3
:104d5c007e02370082023700860237008a02370053
:104d6c008e02370092023700960237009a02370003
:104d7c009e023700a2023700a6023700aa023700b3
:104d8c00ae023700b2023700b6023700ba02370063
:104d9c00be023700c2023700c6023700ca02370013
:104dac00ce023700d2023700d6023700da023700c3
:104dbc00de023700e2023700e6023700ea02370073
:104dcc00ee023700f2023700f6023700fa02370023
:104ddc00fe02370002033700060337000a033700d0
:104dec000e03370012033700160337001a0337007f
:104dfc001e03370022033700260337002a0337002f
:104e0c002e03370032033700360337003a033700de
:104e1c003e03370042033700460337004a0337008e
:104e2c004e03370052033700560337005a0337003e
:104e3c005e03370062033700660337006a033700ee
:104e4c006e03370072033700760337007a0337009e
:104e5c007e03370082033700860337008a0337004e
:104e6c008e03370092033700960337009a033700fe
:104e7c009e033700a2033700a6033700aa033700ae
:104e8c00ae033700b2033700b6033700ba0337005e
:104e9c00be033700c2033700c6033700ca0337000e
:104eac00ce033700d2033700d6033700da033700be
:104ebc00de033700e2033700e6033700ea0337006e
:104ecc00ee033700f2033700f6033700fa0337001e
:104edc00fe03370002043700060437000a043700cb
:104eec000e04370012043700160437001a0437007a
:104efc001e04370022043700260437002a0437002a
:104f0c002e04370032043700360437003a043700d9
:104f1c0041043700480437004f043700560437006b
:104f2c005d04370064043700ce003700fb00370007
:104f3c002801370055013700b2408000c340800083
:104f4c00120798002307980064043700d2408000b1
:104f5c00e340800012079800230798005f04370095
:104f6c00124180002341800012079800230798000b
:104f7c005a043700f2408000034180001207980069
:104f8c00230798005504370052418000634180008c
:104f9c0012079800230798005004370072418000d4
:104fac008341800012079800230798004b043700b8
:104fbc0092418000a34180001207980023079800bb
:104fcc0046043700b2418000c341800012079800ac
:104fdc002307980041043700d2418000e341800050
:104fec0012079800230798003c043700f241800018
:104ffc0003428000120798002307980037043700fb
:10500c001242800023428000120798002307980068
:10501c00320437003242800043428000120798006d
:10502c00230798002d043700524280006342800011
:10503c00120798002307980028043700724280005a
:10504c00834280001207980023079800230437003e
:10505c0092428000a3428000120798002307980018
:10506c001e043700b2428000c34280001207980031
:10507c002307980019043700d2428000e3428000d5
:10508c00120798002307980014043700f24280009e
:10509c000343800012079800230798000f04370081
:1050ac0012438000234380001207980023079800c6
:1050bc000a04370030438000cf80de00aff30700d6
:1050cc001007980021079800040437004043800023
:1050dc00cf80de00a9f30700100798002107980085
:1050ec00fe03370052438000634380001207980090
:1050fc0023079800f9033700724380008343800034
:10510c001207980023079800f4033700924380009d
:10511c00a34380001207980023079800ef03370081
:10512c00b2438000c3438000120798002307980005
:10513c00ea033700d2438000e34380001207980053
:10514c0023079800e5033700f243800003448000f6
:10515c001207980023079800e003370012448000e0
:10516c00234480001207980023079800db033700c4
:10517c0032448000434480001207980023079800b3
:10518c00d603370052448000634480001207980015
:10519c0023079800d10337007244800083448000b9
:1051ac001207980023079800cc0337009244800024
:1051bc00a34480001207980023079800c703370008
:1051cc00b0448000cf80de006cf30700100798001d
:1051dc0021079800c1033700c2448000d3448000eb
:1051ec001207980023079800bc033700e2448000a4
:1051fc00f34480001207980023079800b703370088
:10520c000245800013458000120798002307980080
:10521c00b203370022458000334580001207980006
:10522c0023079800ad0337004245800053458000aa
:10523c001207980023079800a803370062458000e6
:10524c00734580001207980023079800a3033700ca
:10525c008245800093458000120798002307980030
:10526c009e033700a2458000b345800012079800ca
:10527c002307980099033700c0458000cf80de00db
:10528c003ef307001007980021079800930337009e
:10529c00d2458000e3458000120798002307980050
:1052ac008e033700f24580000346800012079800f9
:1052bc00230798008903370012468000234680009c
:1052cc0012079800230798008403370032468000a9
:1052dc004346800012079800230798007f0337008d
:1052ec0052468000634680001207980023079800fe
:1052fc007a033700724680008346800012079800bc
:10530c00230798007503370092468000a34680005f
:10531c00120798002307980070033700b2468000ec
:10532c00c346800012079800230798006b033700d0
:10533c00d0468000cf80de0010f3070010079800e5
:10534c002107980065033700e2468000f346800091
:10535c00120798002307980060033700024780006b
:10536c001347800012079800230798005b0337004f
:10537c0022478000334780001207980023079800cb
:10538c0056033700424780005347800012079800ad
:10539c002307980051033700624780007347800051
:1053ac0012079800230798004c03370082478000af
:1053bc009347800012079800230798004703370093
:1053cc00a2478000b347800012079800230798007b
:1053dc0042033700c2478000d34780001207980071
:1053ec00230798003d033700e0478000cf80de00a4
:1053fc00e2f20700100798002107980037033700e6
:10540c00f247800003488000120798002307980099
:10541c00320337001248800023488000120798009e
:10542c00230798002d033700324880004348800042
:10543c001207980023079800280337005248800071
:10544c006348800012079800230798002303370055
:10545c007248800083488000120798002307980048
:10546c001e03370092488000a34880001207980062
:10547c002307980019033700b2488000c348800006
:10548c00120798002307980014033700d2488000b5
:10549c00e348800012079800230798000f03370099
:1054ac00f0488000cf80de00b4f2070010079800af
:1054bc002107980009033700024980001349800036
:1054cc001207980023079800040337002249800034
:1054dc00334980001207980023079800ff02370019
:1054ec004249800053498000120798002307980016
:1054fc00fa02370062498000734980001207980055
:10550c0023079800f50237008249800093498000f8
:10551c001207980023079800f0023700a249800078
:10552c00b34980001207980023079800eb0237005c
:10553c00c2498000d34980001207980023079800c5
:10554c00e6023700e2498000f34980001207980018
:10555c0023079800e1023700024a8000134a8000ba
:10556c001207980023079800dc023700224a8000bb
:10557c00334a80001207980023079800d70237009f
:10558c00424a8000534a8000120798002307980073
:10559c00d2023700624a8000734a800012079800da
:1055ac0023079800cd023700824a8000934a80007e
:1055bc001207980023079800c8023700a24a8000ff
