:020000040000fa
:080000000001040000000000f3
:020000040000fa
:10020000cfdc200080ff20000001880000000000fb
:10021000050007000c000700680c02000000000049
:100220000040da000000fe004440a9000000200069
:100230000000e0000300320000002000a001880060
:100240004440a8000000060020f922000100200020
:100250001600370062004000e080480091018800ed
:100260009001ba0062004000e080480091018800df
:100270009002ba0062004000e08048000002eb00fb
:100280006028e10005003a008301e900070033001f
:10029000038009000059eb00040037006128e100e9
:1002a000010032000082eb00050007009101880088
:1002b0001001ba000200e000e6ff3a00000005006d
:1002c000910188008002780062004000e0804800d0
:1002d0003559ba008301e900080032002559ba00f7
:1002e0008301e900050032000400e000f4ff320061
:1002f00015d9ba008301e900f1ff3a0000000600b9
:1003000003f0a200889fbe008a9fbe008c1f780069
:1003100090010700970133006450e1004f00320064
:100320006420e1005200320003826c0007003b00b1
:100330000905d0000306d000820f54000c065d00b2
:1003400002003900020032008901780003067800bb
:100350008582550004003d000003fd008103fd007f
:100360008502ea008b854200840f720002003b0088
:1003700060001000e08018006011b8000005eb007c
:100380007a28e1000a00390006007800c75ddd0028
:10039000f707b200878075002d0037008281710059
:1003a0000a017800610560008180d1000080d300df
:1003b0008502e900f9ff3b000604400087844800fd
:1003c00002003b0060041400e0841c000988a300c4
:1003d000070032008a81710082817100610164002e
:1003e0008904d1000884d3008b05e800170037008a
:1003f0000978a30013003a000b00e000130034005a
:100400008b05e9000804440089844c000a44740008
:100410000978a3000d003a000b00e000070034004b
:100420008b05e9000804440089844c0001003a006f
:100430000b0020000978a300f7ff32000001eb0059
:1004400002003700828171000a017800590107001b
:100450000cf0a70001f0a0004f0137006420e1007c
:1004600002003a00838f6c004f0133000801be0088
:100470000200be004801370014002000730137005d
:10048000889fbe008a9fbe008c1f78003101070044
:100490003801330003866c006450e1002400320010
:1004a0006420e100270032006150e10022003200a8
:1004b0006120e100210032008b854200eb07b10092
:1004c0000134b800003ab8000804420089844a00a8
:1004d000013ab8000030b8008880400009014a00a5
:1004e0000400330000004000818048000201490000
:1004f0008b05e900c909dd008301700001003200ad
:1005000013002000c814de004814dd004709de0097
:100510001200b200c808de00088470002501070040
:1005200001f0a1000cf0a70001f0a0001a013700b3
:100530006120e1001c0132000801be000200be0083
:10054000f7ff37006150e100fcff3a001601370069
:10055000889fbe008a9fbe008c1f7800fd000700a8
:100560000401330003866c006450e1002e00320069
:100570006420e100330032006150e1002f003200be
:100580006120e1003100320085855500eb07b000a5
:10059000090020000804200005003700080444007a
:1005a00089844c000a0031000603430087834b0016
:1005b0000001530081815b00f8ff33000203be009d
:1005c0000800a0000804440089844c00f6ff3900ac
:1005d000c639dd00830173000100320013002000e2
:1005e0008904d1000884d3000998a30005003200d3
:1005f0000800a7000300a0008904d1000884d300ec
:100600008b05e8008904d1000884d3000001eb00c9
:100610000281d200e700070001f0a1000cf0a70062
:1006200001f0a000dc0037006420e100de003200b1
:100630000801be000200be00f7ff37006120e100a4
:10064000d90032006000b800f3ff3700000020003e
:1006500001f82700f0ff3700f4ff2f00fb00370000
:100660000081eb00140137000001eb00120137009c
:10067000889fbe008a9fbe008c1f78000004be00c9
:10068000760107000478a30026003a006120e1000b
:100690002500320009f8a30025003a006420e1009b
:1006a00021003200f507b1000508a3000200320066
:1006b00000004000818048006044b8000310200022
:1006c000020020000000400081804800080544002e
:1006d00089854c000a0541008b8549000a055000b8
:1006e0008b855800030033000a00be00020474002a
:1006f000838474008301d1000281d300830f7100d1
:10070000f0ff3a008904d1000884d3006001490059
:1007100082017800c1adde00fb07b000a500070034
:100720009d0037000960a0000800be009a00370055
:1007300012022000526e8800f0ff2f00f1ff270008
:1007400095003700889fbe008a9fbe008c1f7800ee
:10075000800007001002200002003b00506e88005d
:10076000840037008a0062006408e10002003a0059
:10077000506e88008c0037006108e100fcff3200f9
:100780000800be000304780071ff070001f0a1001b
:100790004701070008f0a600040037000001be0072
:1007a00091042400b0fd2000d5fe070009f0a70049
:1007b00001f0a200780037000001be002701070009
:1007c0000470a70003f0a1006509b1001600320013
:1007d0000d0035006828e10006003500f0ff2f000d
:1007e000f1ff27000300e00013003b000100280098
:1007f0000000050000004000818048008502e900fb
:10080000fcff3a0008003700f88f420002003c006d
:100810008000eb00000005008100d1000080d300c3
:100820008502e800fcff3a000300e00002003b0004
:1008300060001000e080180000000600889fbe00e5
:100840008a9fbe00010578000100e0000400350029
:1008500008003c000000e0002000320005003700e6
:1008600060001000e080180002003b0001f02c0046
:100870001a0037000004be006011b8006b092000a8
:100880000982cf00020039000882cf000441b00085
:10089000694252000e00320008003b008281710064
:1008a000610164008904d1000884d3008b05e8004d
:1008b0000442e800f9ff3a0005003700080444004c
:1008c00089844c008b05e9000442e900fbff3a00f3
:1008d000380007000af0a70001f0a0004f05be0095
:1008e0004f04be00000006000001be00db00070050
:1008f0000470a70003f0a10003f8a30013003a005e
:100900006509b10010003200090035006928e100d6
:100910000200350001002800000005000000400032
:10092000818048008502e900fcff3a0000000600d3
:10093000f88f4200050035008100d1000080d3000f
:100940008502e800fcff3a00000006008000eb0092
:10095000000005000004be00c00007000003be0048
:100960000405be000200be00bc000700844f7500f5
:10097000000006000200be006450e10005003600e1
:100980006420e100020036000968a30001003a007b
:100990000800be000160a0004f0678004f05be00b1
:1009a0004f04be0000000600f0ff2f00f1ff2700fb
:1009b000f9ff370081002000618055000b003d00e9
:1009c0000b00200061fe2f000100e1001d0034003b
:1009d00082817100610164008904d1000884d30020
:1009e0000000e800faff3a00710020006100640096
:1009f000030070000200600009003200610444003e
:100a0000e0844c000988a500050032008b05e80051
:100a10006808e10002003a008904d1000884d3008c
:100a2000f20f20000258e10005003d00c75ddd0027
:100a3000f907b20089807500080078000000060000
:100a40000bf827008b00780000000500889fbe008f
:100a50008a9fbe00841f7800beff07004f00780009
:100a600011003300f0ff2f00838f6c0006003b0065
:100a7000040565000a00a7000800370009f0a60079
:100a80001000200008003700820f5400838f5c00a4
:100a9000030039001000200001003e00000020008b
:100aa00009f0a7000000ea004f05be004f04be0099
:100ab0000000e00000000600889fbe008a9fbe0084
:100ac0008c9fbe00820578000004be006300070012
:100ad0000800be006420e1000700390002003a006f
:100ae000f1ff2700f0ff2f000160a000120220009c
:100af000526e8800550037006120e10003003a0083
:100b00000b00a70001f823005000370001f0a100fe
:100b1000020021009364240057fe07000800be0075
:100b200004003500b2fd2000930c2400c50007002e
:100b30000004be000005eb000b00a6004f0dde0018
:100b400001f0a1000004be0032982f0023ea230028
:100b50004bfe07000001eb0003f023000b00a70091
:100b600003f82300e7fd070013ff07000000a700bc
:100b70000a00a20031ff07000b00e0000300320072
:100b80000200200003f02300ddfd070001f0a200b9
:100b90000006be00020020009304240038fe070077
:100ba0000801be00d7fd0700809fbe000c00be00fc
:100bb00022a22a00d3a7230031fe07004f01be0066
:100bc000d0fd07000004be0001f0a10002002000db
:100bd0000398230028fe07000800be001900350016
:100be0000001be0026fe07000006be00b2c52900b7
:100bf000e362230022fe070022222b00f3942b0045
:100c0000c0fd07000c01be001dfe0700e2732800b6
:100c100083c02300bbfd07000c01be0018fe0700c7
:100c200042aa2a00a3e22b00b6fd07000c01be0079
:100c300013fe07000801be0011fe07000801be00f8
:100c4000b0fd07000a00a70001f0a2004f06be0099
:100c50004f05be004f04be0000000600c70ade00bc
:100c6000f107b200f50fb20008003200e1cf4200f8
:100c7000020032000170a00024000500810f700006
:100c8000010032000408050044000500810f7000d7
:100c900002003a00140005008502e900000040004f
:100ca00081c04800fcff3b000170a000240005004b
:100cb000889fbe008a9fbe008c9fbe000004be00bd
:100cc000e6ff07000800be00890678006420e10006
:100cd00008003900040032000160a0001202200068
:100ce000526e88005300370091fc2300b0fd2000b5
:100cf0004e0037000006eb0009f0a10003f82300c6
:100d0000020020000800be00dbfd070006003400e2
:100d100001f82300000020000801be000cfe0700bf
:100d20000004be002c0020000800be0093e8230051
:100d3000320a2300d0fd0700120034000801be0073
:100d4000d1fd2300703d2b006efd07000005be00a5
:100d5000b3f32300f27a26000800be00c8fd0700a6
:100d600003f823000200200065fd07000801be0013
:100d700064fd07000a01be00f5fd07000004be0087
:100d80000c06e8000800be0001f0a10002002000ef
:100d900003982300b8fd07000800be0016003500c8
:100da0000801be00b6fd07000005be0032cd2c00d4
:100db00043fb230053fd0700809fbe0012692800fb
:100dc00003d52b000a00be00adfd0700620f210015
:100dd00013ef2b004bfd07000a01be00a8fd070022
:100de0004f01be00dafd07000801be00a4fd0700a8
:100df0000801be0043fd07000c00e0000b003200bc
:100e00000c10a70001f0a200b2fd200093fc23000b
:100e10006260e1000400320022a9200063f0230098
:100e20000c10a70063f8230036fd07000df0a700a3
:100e300001f0a2004f06be004f05be004f04be00e9
:100e4000000006000400200000003700889fbe005c
:100e50008a9fbe008c1f78004f26dd00bdfe070074
:100e6000c4fe33006120e100430032006250e10023
:100e700041003e003e0039006420e1003c003200a9
:100e8000058255000f003b000402e80038003a00dc
:100e9000800f5300818f5b00350034000800be00d6
:100ea00003f0a10001f0a60003f0a0000cf0a700e1
:100eb00014fd0700b8fe37000603430087834b008c
:100ec0000c4646000005530081855b00020033009c
:100ed0000a03be000c00a0000402e900f6ff3b007c
:100ee000850578000602430087824b0004003a0023
:100ef0006000b80009f0a70001f0a000a6fe3700ce
:100f00000002520081825a000704e000040033000e
:100f10000603430087834b008b05e900faff370087
:100f2000090578000604be000203be006011b80087
:100f3000a0fe0700e00f5200e08f5a0007003500c6
:100f400002003c000c08a300040032000601be00b1
:100f500003f0a0000cf0a700eafc07000a85680077
:100f600001f0a1000af0a70001f0a0008afe3700fe
:100f70000800be0088fe3700100220000cf0a6001a
:100f8000506e880088fe37000000fa00800278006a
:100f9000001293006421b800020140003719780064
:100fa0002711780061039000f103900006899900f1
:100fb0001789990020062000800f520002003c0093
:100fc0000400e80080129b000080fa000000060088
:100fd000889fbe0022b22000a1b3200060b620008e
:100fe000d30207007ccdbf000000fb00cf80de00f5
:100ff000f10f5000e08f580082013e0000600100b8
:10100000110037004800370019003700180037007a
:10101000170037001e0037004e00370081003700f0
:10102000de0037009f003700a7003700fa003700c6
:10103000ea003700ee003700fc0037002d013700d2
:101040007901370058013700325b8000435b800034
:10105000c05c8000d15c8000a9fc0700a26b80000e
:10106000b36b80008a0207000000e0006e013200ce
:10107000925b8000a35b8000905d8000a15d80009a
:101080009ffc0700c26b8000d36b80002d003700ef
:101090007ecdbf000000fb0003003200e10f5000d6
:1010a0002100320060013700925b8000a35b80006a
:1010b000905d8000a15d800091fc0700c26b800004
:1010c000d36b8000720207000000e000560132007e
:1010d0006011b800d05b8000e15b8000e6fc070097
:1010e0000000e00050013a006011b800f05b8000a1
:1010f000015c8000e0fc07000000e0004a013a00cb
:101100007e6dec00a6b3200025be200084bc20002c
:10111000e3ba200042b9200061b62000c0d520000b
:10112000900307002a003700325b8000435b800099
:10113000c05c8000d15c800071fc0700a26b800065
:10114000b36b8000520207000000e000360132005d
:101150003e0037007ecdbf000000fb0003003200e0
:10116000e10f50001c0032002f013700925b80001d
:10117000a35b8000905d8000a15d800060fc0700a3
:10118000c26b8000d36b8000410207000000e000ca
:10119000250132006011b800f05b8000015c800026
:1011a000b5fc07000000e0001f013a007e6dec0076
:1011b000a6b3200025be200084bc2000e3ba200096
:1011c00042b9200061b62000c0d5200065030700a9
:1011d000202bef0014013700325b8000435b80005e
:1011e000c05c8000d15c800045fc0700a26b8000e1
:1011f000b36b8000260207000000e00013003a00f5
:10120000a6b3200025be200084bc2000e3ba200045
:1012100042b9200061b62000c0d52000510307006c
:1012200001013700325b8000435b8000c05c8000be
:10123000d15c800032fc0700a26b8000b36b8000a1
:10124000130207000000e0000d0032006011b8003a
:10125000d05b8000e15b800087fc07000000e000bd
:10126000f1003a006011b800f05b8000015c800082
:1012700081fc07000000e000eb003a009500370019
:10128000a6b3200025be200084bc2000e3ba2000c5
:1012900042b9200061b62000c0d52000310307000c
:1012a000e1003700a6b3200025be200084bc20004a
:1012b000e3ba200042b9200061b62000c0d520006a
:1012c00028030700c7003700325b8000435b8000c3
:1012d000c05c8000d15c800009fc0700a26b80002c
:1012e000b36b8000ea0107000000e0002900320033
:1012f0007f4de20027003a0010c0b3007fedb70039
:10130000804de20001003a00ab10070010c0b300ae
:1013100080edb7007cedb7007d4de2000d0032009e
:10132000e25c8000f35c80000200be0054fc070019
:101330000004be00405d8000515d80000001be00e1
:10134000f0fb07000001be000800be0080fc0700a3
:101350000d003700e25c8000f35c80000200be00fc
:1013600047fc07000004be00405d8000515d800026
:101370000001be00e3fb07000001be000800be0044
:1013800073fc070001f0a200e06a8800f16a88009f
:101390009d0037007f4de200a3003a00a6b3200075
:1013a00025be200084bc2000e3ba200042b9200002
:1013b00061b62000c0d52000ea02070021b220005b
:1013c00040b920006a040700005d8000115d8000c4
:1013d000205d8800315d880093003700525b8000fb
:1013e000635b8000605e8000715e800033003700c8
:1013f000525b8000635b8000605e8000715e8000f5
:10140000bffb0700a26b8000b36b8000a001070048
:101410000000e00084003200725b8000835b80008b
:10142000305f8000415f800024003700a6b32000b9
:1014300025be200084bc2000e3ba200042b9200071
:1014400061b62000c0d52000c602070021b22000ee
:1014500080bc200046040700a05e8000b15e8000d2
:10146000c05e8800d15e880021b2200020be20002e
:101470003f040700705f8000815f8000905f8800fc
:10148000a15f8800125c8000235c8000805e800089
:10149000915e80009afb0700a26b8000b36b800016
:1014a0007b0107000000e0005f003200325c80003a
:1014b000435c8000505f8000615f800090fb07000c
:1014c000a26b8000b36b8000710107000000e00098
:1014d0005500320010c0b3007fedb700804de20030
:1014e00001003a003410070010c0b30080edb700cf
:1014f0004d003700a6b3200025be200084bc20008c
:10150000e3ba200042b9200061b62000c0d5200017
:101510009402070021b2200040b920001404070003
:10152000005d8000115d8000205d8800315d8800d5
:10153000a6b3200025be200084bc2000e3ba200012
:1015400042b9200061b62000c0d520008502070006
:1015500021b22000e0ba200005040700d05d800021
:10156000e15d8000f05d8800015e88006011b800d8
:10157000d05b8000e15b8000bffb07000000e00063
:1015800029003a00305b8000415b8000c05c88002d
:10159000d15c8800905b8000a15b8000905d88003a
:1015a000a15d880020003700a6b3200025be2000e2
:1015b00084bc2000e3ba200042b9200061b62000bc
:1015c000c0d520006702070021b2200040b92000ea
:1015d000e7030700005d8000115d8000205d88004a
:1015e000315d880021b22000e0ba2000e00307004e
:1015f000d05d8000e15d8000f05d8800015e8800c4
:10160000090037007c6def00a6b3200025be200046
:1016100084bc2000e3ba200042b9200061b620005b
:10162000c0d520004f02070082cdbf000008a300f4
:101630000500320023b22000c2bf200041b92000c3
:1016400060b620000a0407007f4de2000900320066
:1016500001002000816388006149240091638800b3
:1016600000002000e064880080342400f0648800da
:10167000080037000100200081638800a14f24008a
:101680009163880000002000e06488006039240035
:10169000f064880082cdbf000028a300050032005e
:1016a00023b2200082c22000e1ba200060b62000f0
:1016b0000804070082cdbf000018a3000600320016
:1016c000a4b3200023b2200042c5200041b920006d
:1016d00060b620001804070082cdbf000038a300c8
:1016e00006003200a4b3200023b2200002c820006c
:1016f000e1ba200060b6200022040700ac0be20033
:1017000002003a007c2cef007e2cef00c60be200ba
:1017100002003a00a82cef00aa2cef0082cdbf00f7
:101720006a006000ea0f500004003a00a2b32000f3
:1017300001c8200040c520002504070082cdbf005d
:101740000048a3000500320023b22000c2ca2000d6
:1017500081bc200060b620003904070082cdbf00a4
:101760000068a3000500320023b2200082cd2000d3
:1017700021be200060b620004a04070082cdbf00d1
:101780000058a30006003200a4b3200023b22000ba
:1017900042d0200081bc200060b620005a0407001f
:1017a000824de20006003d00a4b3200023b22000d9
:1017b00002d3200021be200060b62000650407008f
:1017c000e00be20002003a002c2def002e2def007e
:1017d000fa0be20002003a00582def005a2def00fc
:1017e00082cdbf000058a300060032000004e000d4
:1017f00004003d00a2b3200001d3200040d020000f
:1018000067040700325a8000435a8000000020001d
:10181000a13f2400bafa070012c0b300af100700be
:1018200002002000a33f2400505a8000615a80002b
:10183000b4fa070022c0b300a81007007f4de200f1
:1018400011003a00005d8000115d800001f0a100f0
:10185000a26b8000b36b80007ffb07000000e000fc
:1018600009003400d05b8000e15b800001f0a10042
:101870006011b80000fb07000000e00002003a0021
:10188000816dec0001003700816def0010d8200061
:10189000f1c0b30090cf100002003400600f0700c9
:1018a000816def00905c8000e10f500006003a006f
:1018b000c80dec00406e8800e40f500002003a00b2
:1018c0006f0f0700c82def004f04be000000060098
:1018d000889fbe008a1f7800202bef005e10070053
:1018e000c8d52000881f780000d32000801f780012
:1018f00040d02000801f780080cd2000801f78001d
:10190000c0ca2000801f780029be2000891f7800ef
:101910008abc20008a1f780000c82000801f780041
:1019200047c5200086c22000c5bf200064b6200045
:10193000e3ba200042b92000a1b3200020b2200069
:101940008a040700125980002359800070598000d2
:1019500081598000260407009e100700bd10070073
:1019600010c0b30022080700d882a900d8a2a9009d
:10197000dc82a900dca2a800290f07006000b800e3
:10198000e06a8800f16a8800006b8800116b8800ab
:101990007c6def007f6def00a6b320008902780018
:1019a0000a027800e3ba200042b9200061b62000a4
:1019b000080078006b010700f08757000000000066
:1019c000feff3700889fbe000004be006011b80013
:1019d00021fb07000000e000020035000800be0007
:1019e000020037000800be0001f0a2004f04be0054
:1019f00000000600889fbe0015003700b2fd2000e1
:101a0000930424000800be0013fb07000000e00060
:101a100005003400b2fd2000930c24000800be0035
:101a200037fa07000a003700b2fd200093042c00ab
:101a30000800be0090fa07000000e00005003c002e
:101a4000b2fd2000930c24000800be002dfa070010
:101a50000004be00b2fd2000930424000800be0074
:101a6000fdfa07000000e000e4ff3c00b2fd2000aa
:101a700093042c000800be007ffa07000000e0007d
:101a8000deff34000800be004f04be000000060068
:101a9000889fbe008a9fbe000005be000204be00f3
:101aa0000200be0001f0a2000a01be0072fa0700a7
:101ab0000000e00007003d000801be000a00be0073
:101ac0006dfa07000000e00002003d001000200059
:101ad000010037000000eb004f05be004f04be00c0
:101ae00000000600889fbe008a9fbe000005be0061
:101af0000204be00d8fa07000000e00006003c0027
:101b000009f0a2000801be000a00be005afa070050
:101b10000000e00002003d000800be0001003700a8
:101b20000a00be004f05be004f04be0000000600c4
:101b3000ee874700889fbe008a9fbe008c9fbe0034
:101b40008e1f78000004be000207780069100700ad
:101b5000b0b79f00c1b79f00da100700d0b79f0051
:101b6000e1b79f000001be003fb09700cfb09700e3
:101b7000e3f907001901be0075fa0700f0b79f00ee
:101b800081bf9f0028019000b80190003fb09700ee
:101b9000cfb09700daf907006e019000fe019000c7
:101ba0006bfa07000006be00600c9800710c9800ec
:101bb00048019000d80190005fb09700efb0970007
:101bc000cff907006e019000fe01900060fa070057
:101bd0000005be00001498001114980068019000e0
:101be000f80190007fb097008fb89700c4f9070004
:101bf0006e019000fe01900055fa0700400c98001d
:101c0000510c98000a01be000c00be00bdf907008f
:101c10000200200003f0230019fa0700200c9800ae
:101c2000310c98006e019000fe01900014fa07003c
:101c30000005be00080890009808900088fa070088
:101c40000001be000a00be000dfa07002811900036
:101c5000b8119000abf907002014980031149800d7
:101c60006e019000fe01900028089000b8089000d6
:101c700003fa07000005be000808900098089000cd
:101c800079fa07000001be000a00be00fcf9070057
:101c900048119000d81190009af90700401498005c
:101ca000511498007fb097008fb897006004980097
:101cb000710498004fff0700000c9800110c980069
:101cc0003fb09700cfb097002004980031049800ef
:101cd0005fb09700efb0970040049800510498005f
:101ce0000001be003fb09700cfb0970085f9070014
:101cf0000200200003f02300e1f90700008cbe0081
:101d00004f0778004f06be004f05be004f04be00cf
:101d1000ef00b10000000600889fbe008a9fbe0051
:101d20008c1f780082027800030678000405780092
:101d30000001fb00c0042000800f51001c00320095
:101d40000c003c0068005000800f51003100320050
:101d500004003c0063005000800f51001900320065
:101d60007c00370070042000800f51002f003200eb
:101d70007800370040062000800f5100310032000b
:101d800004003c0063005000800f51001b00320033
:101d90007000370070062000800f51002f003200c5
:101da00065004000800f51000e00320069003700ce
:101db0001301be0022069800330698001101be00f0
:101dc000050037001301be00220698003306980074
:101dd00061019000f101900025009000b500900095
:101de000250037001301be00220698003306980034
:101df00021099000b10990001d0037001301be00b9
:101e0000220698003306980041099000d1099000fd
:101e1000170037001301be00220698003306980011
:101e200021019000b1019000ebff37001301be00cb
:101e3000220698003306980041019000d1019000dd
:101e4000e5ff37001301be00220698003306980014
:101e500061099000f1099000050037001301be00f0
:101e6000220698003306980001119000911190000d
:101e700065009000f500900021f907000004be0005
:101e8000008ebe002c019000bc0190001cf90700e0
:101e90006a019000fa019000adf907006006980011
:101ea000710698002c019000bc0190000800be0053
:101eb00014f907000200200003f0230070f9070066
:101ec0006a019000fa0190006df907004c01900042
:101ed000dc0190000bf907004006980051069800bd
:101ee0001c01be006c089000fc08900064f907001b
:101ef0000005be00000e9800110e98004c019000e5
:101f0000dc0190000c1090009c1090005cf9070020
:101f10000004be00200e9800310e98006c01900065
:101f2000fc0190002c109000bc10900054f90700a8
:101f30000001be00400e9800510e98000a00be003d
:101f4000f0f807000801be00eef807004016980000
:101f5000511698004f0678004f05be004f04be0092
:101f600000000600889fbe008a9fbe008c9fbe00b6
:101f70000005be000206be000404be000060900022
:101f80000000fb00cf80de00f10f5000e08f580012
:101f90006c013e00006001001100370013003700a3
:101fa00018003700210037003200370034003700b6
:101fb0005b0037006400370086003700930037006d
:101fc00095003700d8003700f00037000b013700cc
:101fd0001b013700330137003a0137004701370052
:101fe000f0c0b3006065980056013700f0c0b30040
:101ff000606598001a01be001b00be00c1f8070012
:1020000051013700f0c0b300606598001b00be00ae
:1020100020069800310698002a019000ba0190002d
:102020006b009000fb00900010003700f0c0b30080
:10203000606598001b00be002006980031069800dd
:102040001a6090000004e000240132000b099000a7
:102050009b0990002a009000ba009000a8f80700a1
:1020600064fe07006b019000fb019000a5f80700db
:1020700039013700f0c0b3006065980030003700c8
:10208000f0c0b300606598002a6090000000fb007b
:102090002b003200e10f500031013a004b1190004b
:1020a000db1190002a089000ba08900094f807000d
:1020b0000001be00f2f807000004be002b119000e2
:1020c000bb1190000a0890009a0890008cf8070055
:1020d0000001be00eaf807000001be000800be00d3
:1020e00088f8070062f907000001be00008dbe00fd
:1020f0001a6090000004e000030032001b00be00e4
:1021000080f80700030037001a01be001b00be0064
:102110007bf8070020069800310698001001370070
:10212000f0c0b300606598002a6090000000fb00da
:1021300003003200e10f50000500320008013700b3
:102140001b00be0020003700f0c0b300606598009f
:102150004b119000db1190002a089000ba08900003
:1021600067f807000001be00c5f807000004be00c4
:102170002b119000bb1190000a0890009a08900063
:102180005ff807000001be00bdf807000001be00b7
:102190000800be005bf8070035f907000001be002b
:1021a000008dbe001a6090000004e00003003200c1
:1021b0001b00be0053f80700030037001a01be00e1
:1021c0001b00be004ef8070020069800310698005c
:1021d0003e003700e0c0b300606598001a609000d0
:1021e0000004e000030032004c009000dc0090008e
:1021f000030037004c009000dc00900001f0a200ca
:102200006006980071069800d5003700b0c0b30092
:1022100060659800bf003700e0c0b30060659800bb
:102220004b119000db1190002a089000ba08900032
:1022300033f807000001be0091f807000004be005b
:102240002b119000bb1190000a0890009a08900092
:102250002bf807000001be0089f807000001be004e
:102260000800be0027f8070001f907000001be00c2
:10227000008dbe001a6090000004e00003003200f0
:102280001b00be001ff80700030037001a01be0044
:102290001b00be001af807002006980031069800bf
:1022a0001a6090000004e000030032004c0090002f
:1022b000dc009000030037004c009000dc00900030
:1022c00001f0a20060069800710698002b119000a2
:1022d000bb1190000a0890009a08900008f80700c7
:1022e0000004be004b119000db1190002a08900002
:1022f000ba08900002f807000801be0011f90700b3
:102300000002be0020059800310598001a60900078
:102310000004e000710032000b0990009b0990005e
:102320000400be004dff370000cfb3006065980089
:102330002b009000bb009000200298003102980012
:102340001a6090000004e000090032001601be008f
:102350002a009000ba00900049f807000001be0072
:102360004b009000db009000e5f7070031003700dc
:102370001601be002a009000ba00900040f8070045
:102380004b019000db0190002900370000cfb30023
:10239000606598004b009000db009000a002980060
:1023a000b10298001a6090000004e00008003200ba
:1023b0001601be002a009000ba00900030f8070015
:1023c0002b019000bb019000cef7070008003700fa
:1023d0001601be002a009000ba00900028f80700fd
:1023e0000001be002b009000bb009000c4f7070066
:1023f00020049800310498005900370000cfb30042
:10240000606598004a019000da0190002b0090006e
:10241000bb009000bbf7070020049800310498002f
:102420006a019000fa0190004b009000db009000e0
:10243000b4f70700a0049800b104980048003700e2
:1024400000cab300606598001a6090000004e000c4
:102450000300320044009000d400900003003700d5
:1024600044009000d400900001f0a20060049800a5
:10247000710498001a6090000004e000030032002c
:1024800049009000d90090000300370049009000f7
:10249000d900900001f0a200e0049800f104980037
:1024a0002f003700a0c0b300606598006000b8003e
:1024b0006006980071069800e0019800f10198000c
:1024c00020003700f0c0b300606598001a01be001c
:1024d0001b00be008bf70700d7fe3700b2fd2000bf
:1024e000930424002a009000ba00900085f70700aa
:1024f0000b0990009b099000d8fe3700a0c0b300e4
:10250000606598004c009000dc0090006006980028
:10251000710698001a6090000004e0000300320089
:102520004d009000dd009000030037004d0090004a
:10253000dd00900001f0a200e0069800f10698008e
:10254000070037001b00be002006980031069800e7
:102550006b009000fb009000a0069800b106980068
:102560004f06be004f05be004f04be00000006002f
:10257000889fbe008a9fbe008c9fbe000006be00e2
:1025800040019000d001900003f0a100f000900005
:102590006000900053fd07006006980071069800e7
:1025a0000c0990009c09900055f707000004be003c
:1025b0006d019000fd0190002c089000bc08900077
:1025c000aff707000005be000001be000800be0016
:1025d00021f807000000e000050034000c0990001d
:1025e0009c0990000a00be0046f707001a00370059
:1025f0000c0990009c0990006c009000fc00900079
:102600003ff707000004be002c0d9000bc0d9000a9
:102610000a00be0001f0a2006d019000fd019000d3
:1026200097f707000001be000800be0092f7070000
:102630000000e0000a003d006d019000fd019000e7
:102640000a00be008ef707000001be000c089000d3
:102650009c0890002af70700600698007106980011
:102660004f06be004f05be004f04be00000006002e
:10267000889fbe008a1f78000104780082047800d9
:1026800003057800030278008201780001017800d8
:1026900080007800c0c4b3009ffd07006800900070
:1026a000f8009000000c9800110c98004910900060
:1026b000d910900060049800710498008a00780096
:1026c00008007800aaff07004f0578004f04be00fd
:1026d00000000600889fbe008a1f78000104780071
:1026e00082047800030578000302780082017800f4
:1026f000010178008000780010c4b30086fd070057
:1027000068009000f8009000000c9800110c9800f0
:1027100049109000d910900060049800710498004e
:102720008a0078000800780091ff07004f057800c4
:102730004f04be0000000600889fbe0080027800a3
:102740000204780084047800030278008201780093
:102750000101780085007800c0c6b3006efd070057
:1027600069099000f909900048109000d810900075
:10277000dcfc070040149800511498004f04be0080
:1027800000000600889fbe008002780002047800e6
:102790008404780003027800820178000101780047
:1027a0008500780010c6b3005bfd0700091190009a
:1027b0009911900048109000d8109000c9fc0700b3
:1027c00040149800511498004f04be000000060009
:1027d000889fbe008a1f780080047800010478007a
:1027e0000205780041119000d1119000d0109000a6
:1027f00040109000c3f6070002002000a33f240011
:10280000b8fc070060059800710598004811900019
:10281000d811900049109000d9109000b8f6070028
:1028200002002000a33f2400aefc0700000d98002a
:10283000110d98004f0578004f04be0000000600ff
:10284000889fbe008a1f7800010478008204780007
:102850000305780003027800820178000101780006
:102860008000780040c4b3002bfd07006800900092
:10287000f8009000000c9800110c9800491090008e
:10288000d910900060049800710498008a007800c4
:102890000800780036ff07004f0578004f04be009f
:1028a00000000600889fbe008a1f7800010478009f
:1028b0008204780003057800030278008201780022
:1028c000010178008000780070c4b30012fd070099
:1028d00068009000f8009000000c9800110c98001f
:1028e00049109000d910900060049800710498007d
:1028f0008a007800080078001dff07004f05780067
:102900004f04be0000000600889fbe0080027800d1
:1029100002047800840478000302780082017800c1
:10292000010178008500780040c6b300fafc07007a
:1029300029099000b909900048109000d810900023
:1029400068fc070040149800511498004f04be0022
:1029500000000600889fbe00800278000204780014
:102960008404780003027800820178000101780075
:102970008500780070c6b300e7fc070049099000a5
:10298000d909900048109000d810900055fc07001d
:1029900040149800511498004f04be000000060037
:1029a00040129000d01290006401980075019800c8
:1029b00041129000d1129000040998001509980066
:1029c0000000060000a0fe003600f800849fbe0054
:1029d000869fbe007ef907008460a9004f03be00f9
:1029e0004f02be003600f9000080fe0000400600e5
:1029f000889fbe008a9fbe000005be000000200028
:102a000001f82300d2f607000004be0005a1a800cb
:102a100004c1a9000421a90002f02f00f3772400cb
:102a200097f607000001be000a00be0092f60700fc
:102a30000000e00008003c00f0ccb3000461b600e8
:102a40000801be000a00be00c1f607005af70700e1
:102a5000670050003a00370002f02f00f38f240087
:102a60000800be0086f607000001be000a00be0096
:102a700081f607000000e0000e003c0004c1bf002a
:102a80000054a1000044a00004e1b70002002000af
:102a9000031024000800be0079f607000001be0004
:102aa0000a00be00aaf6070043f707000000e9008d
:102ab0002300370002f02f00f3a724000800be0017
:102ac0006ff607000001be000a00be006af60700ac
:102ad0000000e00007003c0004c1bf000044a1006a
:102ae0000054a00004e1b7000200200003282400e5
:102af0000d00370002f02f00f3b724000800be00dd
:102b00005ff607000001be000a00be005af607008b
:102b10000000e00012003c0000c3b3000461b700f5
:102b200002002000033824000800be0054f607000d
:102b30000001be000a00be0085f607001ef7070070
:102b4000100888008460a9008c60a80095c0bf00b0
:102b50000044a1000046b30095e0b70005e1a800dd
:102b60004f05be004f04be00000006008f87e8003e
:102b7000889fbe008a9fbe008c9fbe008e1f78007b
:102b80005fb69700cfb697003fb79700081c2e009e
:102b900049be24000888be0038a62200f930230070
:102ba000280098003900980008002000092224001d
:102bb0004800980059009800d8cc2c00c9cc2300bc
:102bc000680098007900980008002400c969240072
:102bd000080898001908980078712b0019852300bf
:102be0002808980039089800f862230019eb2300a0
:102bf0008888be0068c2260009d92300a800980072
:102c0000b9009800c8009800d90098006044b80046
:102c1000e8009800f9009800880898009908980042
:102c20000a0020008b3c2400aa089800bb089800ea
:102c3000ca089800db0898000a002000ab3f240077
:102c4000ea089800fb0898008a1098009b109800ea
:102c50000a0020000bfc2300aa109800bb1098006b
:102c60004abe2c006b112400ca109800db1098009b
:102c7000088abe002802980039029800480298008d
:102c8000590298006802980079029800080a980092
:102c9000190a9800280a9800390a9800480a9800ea
:102ca000590a9800680a9800790a98000812980052
:102cb00019129800281298003912980048129800aa
:102cc000591298000005eb006a1298000889be00ae
:102cd0002801980039019800a099290091f9230052
:102ce000400198005101980068019800790198000e
:102cf0000809980019099800000020000106240026
:102d00002009980031099800140020004409980017
:102d10008889be00a8019800b90198000000200031
:102d200001082400c0019800d1019800e801980032
:102d3000f90198008809980099099800000020007e
:102d4000011e2400a0099800b1099800c409980048
:102d5000888ebe00a8069800b906980002002000e0
:102d600003f82300c2069800d3069800e8069800ee
:102d7000f9069800880e9800990e9800000020002f
:102d800001042400a00e9800b10e9800c40e980013
:102d9000088fbe002807980039079800420798005e
:102da000530798006807980079079800080f980063
:102db000190f9800200f9800310f9800440f9800c9
:102dc000888abe00a8029800b9029800c80298003c
:102dd000d9029800e8029800f9029800880a980041
:102de000990a9800a80a9800b90a9800c80a980099
:102df000d90a980000002000010c2400e00a980085
:102e0000f10a98008812980099129800a812980068
:102e1000b9129800c8129800d9129800088bbe0009
:102e20002803980039039800480398005903980034
:102e30006803980079039800080b9800190b980014
:102e4000280b9800390b9800480b9800590b9800f4
:102e5000600b9800710b98000813980019139800e4
:102e600028139800391398004813980059139800b4
:102e7000888bbe00a8039800b9039800c803980087
:102e8000d9039800e8039800f9039800880b98008c
:102e9000990b9800a80b9800b90b9800c80b9800e4
:102ea000d90b980000002000a14f2400e00b9800ef
:102eb000f10b98008813980099139800a8139800b4
:102ec000b9139800c8139800d9139800088ebe0053
:102ed0002806980039069800480698005906980078
:102ee0006806980079069800080e9800190e980058
:102ef000280e9800390e9800480e9800590e980038
:102f00000000200061392400600e9800710e9800c6
:102f10000816980019169800281698003916980077
:102f200048169800591698002fb097000888be00e0
:102f3000280098003900980048009800590098002f
:102f4000680098007900980008089800190898000f
:102f500028089800390898004808980059089800ef
:102f600000002000010a24002fb19700600998009a
:102f700071099800081198001911980028119800fb
:102f80003911980048119800591198001fb1970005
:102f90000889be002801980039019800480198006e
:102fa0005901980068019800790198000809980073
:102fb00019099800280998003909980048099800cb
:102fc0005909980060099800710998000811980043
:102fd000191198002811980039119800481198008b
:102fe000591198000fb097000888be00280098007b
:102ff000390098004800980059009800680098002f
:103000007900980008089800190898002808980086
:1030100039089800480898005908980000002000d6
:10302000614924000fb19700600998007109980068
:10303000081198001911980028119800391198006a
:1030400048119800591198007fa997000889be007f
:10305000280198003901980048019800590198000a
:1030600068019800790198000809980019099800ea
:1030700028099800390998004809980059099800ca
:1030800060099800710998000811980019119800ba
:10309000281198003911980048119800591198008a
:1030a0006fa897000888be00280098003900980093
:1030b000480098005900980068009800790098002e
:1030c00008089800190898002808980039089800fe
:1030d000f0282c0051d723006fa9970040099800d1
:1030e0005109980050a32f00e1d0230060099800f7
:1030f000710998000a619800146198002a6198008b
:103100003a6198004a6198005a6198006a61980093
:103110004f0778004f06be004f05be004f04be00ab
:103120002f00b1000000060000a0fe003600f800ed
:10313000849fbe00869fbe0090c3bf000000d100e8
:10314000670060003600320090c3bf000000d1006d
:1031500067006000e40f500007003c00e10f5000e2
:1031600016003c000000e00029003200e10f500092
:103170000800320025003700e60f50001a00320028
:10318000e50f500011003400e70f50001d00320021
:103190001e00370097e3a90097c3a90097a3a900d1
:1031a0009783a9009763a9009743a9009723a900d3
:1031b0009703a90096a3a900150037009683a900dc
:1031c0009663a9009643a9001100370011c0b3000f
:1031d00040d920006402070040d920004f030700b7
:1031e0009623a9000a0037008040eb0040d8200059
:1031f0005d02070040d82000480307009603a9009d
:103200000300370096c3a90001003700ffff370015
:1032100090c3bf000000d10067006000caff3a0001
:103220009623ef008760a9004f03be004f02be0047
:103230003600f9000080fe0000400600c61ade00dd
:103240004a1bdd004612de0004027300ca11dd00d5
:103250000000fb00e20f50002500320005003c009a
:103260000000e0000a003200e10f500014003200bc
:103270004e003700e40f500035003200e30f5000dd
:1032800027003400e50f50003d00320047003700b2
:10329000f07f2000008060004200dd000118800007
:1032a00032002e008280600080807000011888004b
:1032b0000003a90014188800231888003b00370079
:1032c000f07f2000008060004200dd004118800097
:1032d00032002e00828060008080700041188800db
:1032e0000803a90054188800631888002f003700cd
:1032f000f07f2000008060004200dd008118800027
:1033000032002e008280600080807000811888006a
:103310001003a90094188800a31888002300370020
:10332000f07f2000008060004200dd00c1188000b6
:1033300032002e008280600080807000c1188800fa
:103340001803a900d4188800e31888001700370074
:10335000f07f2000008060004200dd000119800045
:1033600032002e0082806000808070000119880089
:103370002003a90014198800231988000b003700c6
:10338000f07f2000008060004200dd0041198000d5
:1033900032002e0082806000808070004119880019
:1033a0002803a9005419880063198800000006004a
:1033b000c61ade004a1bdd004612de00040273005e
:1033c000ca11dd000000fb0003003200e10f5000d5
:1033d0000d00320018003700f07f200000806000f0
:1033e0004200dd008119800032002e0082806000e2
:1033f00080807000811988003003a800941988002b
:10340000a31988000d003700f07f200000806000c5
:103410004200dd00c119800032002e008280600071
:1034200080807000c11988003803a800d419880072
:10343000e319880001003700ffff37000000060095
:103440000000fb00e10f50000a00320003003c00c6
:103450000000e000040032000f003700e20f5000cf
:10346000070032000c0037008000eb006ec3bf0085
:10347000050037008000eb005ec3bf00020037008c
:103480008000eb004ec3bf000038a30003003a00e9
:103490001100200001003700ffff37000100780015
:1034a000000006001000fa00889fbe00e0b79f00f1
:1034b000f1b79f0082bf9f0093bf9f00a4bf9f00f2
:1034c000b5bf9f00c6bf9f00d7bf9f00cfe4970046
:1034d000f07f2000efb09700808f500012003e0078
:1034e0007fb197008fb99700f0ff2f0031002000c7
:1034f000800f5100818f59000b003e003ff0970074
:10350000e84f500008003e000004e00006003200d2
:10351000e3cf540004003e0000c4eb002ff09700fe
:10352000e14f500001003600ffff37000040eb0084
:10353000c3ff07000004e000010032000044eb007c
:1035400010c0b300beff07000004e000010032001d
:1035500018c0b30020c0b300b9ff07000004e000aa
:103560000100320028c0b300e14f4400efff3200f9
:103570000800fb00e10f50005b00320003003c003c
:103580000000e0000400320001013700e20f5000ab
:10359000aa003200fe003700aff09700e1c06000e3
:1035a00060c3bf000004a1000140700060e3b700e9
:1035b0006023a9006523a900f20320006fb29700e1
:1035c00082006200c208dd0060c3bf00634060008b
:1035d0000140700060e3b700007c20000000620042
:1035e0004600de004300dd001136200091407800e7
:1035f000e7c0600080c070000100780061e3b700a0
:10360000ffb0970082806000c208dd0065c3bf0084
:10361000634060000140700065e3b7007fb1970030
:103620008fb9970000fc230001002000000061001a
:10363000818061004a0add004600de000000720061
:10364000c608de0062e3b700c21add004e11de00dc
:1036500002817200ce19de006f0161008001eb0073
:103660004411dd0063c3bf006f4060000240700082
:1036700063e3b700bff197006fc161004311dd0044
:1036800064c3bf0071c8b300014060000240700015
:1036900064e3b7008040eb000304e0000800320060
:1036a000633620006c8257003ff197000180fb00d9
:1036b000e47178008140e80082cf5000fbff3900c0
:1036c00063c06400e136200091407800c2cfb300af
:1036d00082c0600080c07000010078006ee3b70017
:1036e0006e63a800ab003700aff09700e1c0600048
:1036f00050c3bf000004a1000140700050e3b700b8
:103700005023a9005523a900f20320006fb09700b1
:1037100082006000c208dd0050c3bf00634060004b
:103720000140700050e3b700007c2000efb097002c
:10373000008060004600de004300dd0011352000ff
:1037400091407800e7c0600080c070000100780000
:1037500051e3b700ffb0970082806000c208dd002f
:1037600055c3bf00634060000140700055e3b700df
:103770007fb197008fb9970000fc23000100200063
:1037800000006100818061004a0add004600de0021
:1037900000007200c608de0052e3b700c21add0066
:1037a0004e11de0002817200ce19de006f01610051
:1037b0008001eb004411dd0053c3bf006f40600087
:1037c0000240700053e3b700bff197006fc1610082
:1037d0004311dd0054c3bf0071c8b3000140600055
:1037e0000240700054e3b7008040eb000304e000a7
:1037f00008003200633520006c8257003ff19700cb
:103800000180fb00e47178008140e80082cf500025
:10381000fbff390063c06400e1352000914078006f
:10382000c2cfb30082c0600080c070000100780089
:103830005ee3b7005e63a80056003700aff0970064
:10384000e1c0600040c3bf000004a100014070005f
:1038500040e3b7004023a9004523a900f20320005c
:103860006fb0970082006000c208dd0040c3bf0057
:10387000634060000140700040e3b700007c20001e
:10388000efb09700008060004600de004300dd00de
:103890001134200091407800e7c0600080c07000c3
:1038a0000100780041e3b700ffb09700828060001c
:1038b000c208dd0045c3bf006340600001407000e6
:1038c00045e3b7007fb197008fb9970000fc230054
:1038d0000100200000006100818061004a0add00d3
:1038e0004600de0000007200c608de0042e3b700ba
:1038f000c21add004e11de0002817200ce19de0018
:103900006f0161008001eb004411dd0043c3bf0083
:103910006f4060000240700043e3b700bff19700c2
:103920006fc161004311dd0044c3bf0071c8b30023
:10393000014060000240700044e3b7008040eb00ab
:103940000304e00008003200633420006c8257005a
:103950003ff197000180fb00e47178008140e800ae
:1039600082cf5000fbff390063c06400e1342000c7
:1039700091407800c2cfb30082c0600080c0700068
:10398000010078004ee3b7004e63a8000100370045
:10399000ffff37004f04be000080fa000000060061
:1039a00080417800e74f50000f003e006740600004
:1039b000113920009140780082cfb30082c06000ae
:1039c00080c070000100780091e3b7008380fb00a5
:1039d00090c3bf000080fb004500de00810f500057
:1039e000fbff3a0001003700ffff37000000060030
:1039f000889fbe000044780040c0b300e8ff070085
:103a000091e3a90091a3a9009183a9009163a80063
:103a100092c3bf00f043b20009c4b3000940700074
:103a200092e3b70092c3bf0001ccb3000140600035
:103a30000014a00092e3b70095c3a90095c3bf008e
:103a400082cfb300024060003040b30095e3b7007e
:103a500094e3a80094c3bf00e7c0400001406000a9
:103a60000044a00094e3b70094c3bf00024060008c
:103a70000014a00094e3b70094c3a8008ee3a9004b
:103a80008e43a8007ee3a9006011b800013f20002a
:103a90000040eb0046fe07006011b800013f200027
:103aa00010c0b30042fe07000880fb004404dd00a4
:103ab0006011b800880078000040eb00dffd0700cf
:103ac0006011b8008800780010c0b300dbfd07006b
:103ad000083fb2006011b8008800780020c0b30031
:103ae000d6fd07006011b8008800780030c0b30030
:103af000d2fd07006011b8008800780040c0b30014
:103b0000cefd07006011b8008800780050c0b300f7
:103b1000cafd07009a23ef009623ef0098e3a80060
:103b200098c3a90098a3a8009883a9009863a90046
:103b30009843a9009823a8009803a800a1c0bf003b
:103b4000f1c8b3000140600009407000a1e0b70077
:103b50008f60a8008760a9000040eb0090ff07007d
:103b60004f04be0000000600800178000180fb00c9
:103b700003003200e10f5000210032004300370003
:103b800080c3bf0061006000e0419800001c80001d
:103b90004300dd004500de008009780085c3bf00da
:103ba0000080fb004200de00121c80004611dd0098
:103bb000020040000100200090019800a10198003f
:103bc00084c3bf006f006000f04198000041eb002b
:103bd0000900320065382000004278008280fb0036
:103be00001804100e1c07a00014898000241e800ec
:103bf000844f5100f9ff39008ee3a90024003700fb
:103c00000137200091407800e1806000e141980098
:103c1000801b80004300dd004500de008009780045
:103c20000100e0000900320075c3bf000080fb0006
:103c30004200de00921b80004611dd0002004000c1
:103c40000100200090019800a101980074c3bf00fa
:103c50006f006000f04198000041eb000900320065
:103c600065372000004278008280fb00018041001f
:103c7000e1c07a00014898000241e800844f5100f9
:103c8000f9ff39007ee3a90001003700ffff37008c
:103c900000000600c26d8000d36d8000306d800092
:103ca000416d800096f10700306d8800416d8800fd
:103cb000dcc2bf004400de00610060000000a20022
:103cc0004400dd00c12d2000914078000144a10096
:103cd00080c0700001007800dce2b7000000060040
:103ce000c26d8000d36d8000306d8000416d80001a
:103cf00084f10700306d8800416d8800dcc2bf0090
:103d00004400de00610060000000a2004400dd000d
:103d1000c12d2000914078000144a10080c07000b6
:103d200001007800dce2b70000000600e26d8000d0
:103d3000f36d8000506d8000616d800070f10700b0
:103d4000506d8800616d8800dcc2bf004500de0058
:103d5000610060000000a2004500dd00c12d2000d0
:103d6000914078000154a10080c0700001007800eb
:103d7000dce2b70000000600e26d8000f36d800019
:103d8000506d8000616d80005ef10700506d88000d
:103d9000616d8800dcc2bf004500de00610060008c
:103da0000000a2004500dd00c12d200091407800f8
:103db0000154a10080c0700001007800dce2b7006f
:103dc00000000600306d8000416d8000000006009c
:103dd000506d8000616d800001f0a20000000600bf
:103de00000a0fe003600f800849fbe00869fbe0043
:103df000889fbe0049168000206d8000008454001a
:103e000001003b000804ea000808a3000700320094
:103e10000908a300050032000918a30002003200bf
:103e2000afff0700010037009aff07000828a30032
:103e3000070032000928a300050032000938a3005a
:103e400002003200ccff070001003700b7ff070077
:103e5000296d880085e0a9004f04be004f03be0015
:103e60004f02be003600f9000080fe000040060050
:103e7000b2fd200093042400f0598000015a800014
:103e80007ff107000200200083342400b0f1070016
:103e9000c06d8800d16d8800b2fd2000930424001d
:103ea000105a8000215a800075f10700020020009e
:103eb00083342400a6f10700e06d8800f16d8800ce
:103ec000c602a800c622a800c642a800c662a80072
:103ed000a802a800a822a800a842a800a862a800da
:103ee000c040a800c060a900c080a800c0a0a90070
:103ef000c440a900c460a900c480a900c4a0a9004e
:103f000085e0a90000c7b3009b60b7008de0a80062
:103f100040168000206d880000000600889fbe00cb
:103f20008a9fbe0080057800900078006f80600056
:103f300009003a007b409000e14f500081053a00b3
:103f40008b48900050c5b30080cf50007d053a00eb
:103f5000800507007c0537009b0078006f806000bb
:103f6000e20f500078053200ef0f50007305320069
:103f70009b0078006f806000e50f500002003a005f
:103f8000bf050700700537009b0078006f80600058
:103f9000e60f500002003a00870507006a05370067
:103fa0009b0078006f806000ea0f50004c003a00e0
:103fb0007b409000e64f500062053a000b489000ad
:103fc0000080fb001b4990000281fb000a102000ca
:103fd0000a91b90002004000cf80de0017f207000e
:103fe00002002000a347240059f10700505c88001c
:103ff000615c88002b4890000080fb003b499000ea
:104000000281fb000a91b90002004000cf80de006f
:104010000af2070002002000a34724004cf1070029
:10402000705c8800815c88006044b800585b880040
:10403000695b8800785b8800895b88004b4890004a
:104040000080fb005b4990000281fb000a91b900ef
:1040500002004000cf80de00f8f1070002002000df
:10406000a34724003af10700905b8800a15b880019
:104070000800be00190707000800be001a07070065
:104080004b4890000080fb005b4990000281fb00e0
:104090000a91b90002004000cf80de00e7f107007e
:1040a00002002000a347240029f10700f5060700bd
:1040b0007c6def007f6def00806def00a6b32000f8
:1040c00025be200084bc2000e3ba200042b92000b5
:1040d00061b62000c0d52000a2f707001705370001
:1040e0009b0078006f806000eb0f500023003a00c7
:1040f0007b409000e24f500012053a008b48900040
:10410000c0c4b30080cf500004003a001b489000a8
:104110000080fb00605d8800080537008b48900038
:1041200010c4b30080cf500004003a001b48900038
:104130000080fb00305e8800000537008b4890004f
:1041400040c4b30080cf500004003a001b489000e8
:104150000080fb00005f8800f80437008b48900067
:1041600070c4b30080cf5000f4043a001b489000a4
:104170000080fb00d05f8800f00437009b007800cf
:104180006f806000e80f500011003a00d882a9004b
:10419000d8a2a9008b489000e1c06000c408dd00ef
:1041a000dcc2bf000044a10001407000dce2b700a7
:1041b0009b489000e1c06000c508dd00dcc2bf0084
:1041c0000054a10001407000dce2b700db043700be
:1041d0009b0078006f806000e90f500003003a00f8
:1041e0000b4890005f050700d70437009b0078005c
:1041f0006f806000ec0f500004003a000b48900004
:104200000080fb00905c8800cf0437009b007800a2
:104210006f806000e70f500085023a000b48900065
:104220000004e0000f003a007b409000e14f500096
:10423000c4043a007c6def007f6def00806def00ed
:10424000a6b3200025be200084bc2000e3ba2000d5
:1042500042b9200061b62000c0d5200041f7070018
:10426000b60437000b4c9000e14f54001c003a009c
:104270007b409000e34f5000b2043a002b4890007e
:104280004800dd001b4990000281fb000200400055
:10429000cf80de0069f1070002002000a347240060
:1042a000abf00700e06a8800f16a88000800780037
:1042b0007cedb7007f6def00806def00a6b32000ae
:1042c00025be200084bc2000e3ba200042b92000b3
:1042d00061b62000c0d5200022f707009704370000
:1042e0000b4c9000e24f54001c003a007b409000c1
:1042f000e34f500093043a002b4890004800dd0043
:104300001b4990000281fb0002004000cf80de00cc
:104310004af1070002002000a34724008cf00700a8
:10432000006b8800116b8800080078007cedb700f6
:104330007f6def00806def00a6b3200025be20004a
:1043400084bc2000e3ba200042b9200061b62000fe
:10435000c0d5200003f70700780437000b4c90000d
:10436000e34f54001e003a007b409000e44f5000a1
:1043700074043a002b4890004800dd001b4990006f
:104380000281fb0002004000cf80de002bf107001d
:1043900002002000a34724006df00700006b880096
:1043a000116b8800080078007cedb7003b48900056
:1043b0007dedb7007f6def00806def00a6b32000ac
:1043c00025be200084bc2000e3ba200042b92000b2
:1043d00061b62000c0d52000e2f607005704370080
:1043e0000b4d9000e44f55002d003a007b409000ab
:1043f000e64f500053043a002b4990000281fb0025
:10440000081020000891b9001b4890000080fb00b4
:1044100002004000cf80de0008f10700020020000b
:10442000a34724004af00700606b8800716b880086
:104430004b4990000281fb000891b9003b48900075
:104440000080fb0002004000cf80de00fbf0070090
:1044500002002000a34724003df00700806b880085
:10446000916b88000a0078007cedb7005b489000f3
:104470007dedb7007f6def00806def00a6b32000eb
:1044800025be200084bc2000e3ba200042b92000f1
:1044900061b62000c0d52000b2f60700270437001f
:1044a0000b4d9000e54f55002e003a007b409000e8
:1044b000e64f500023043a002b4990000281fb0094
:1044c000081020000891b9001b4890000080fb00f4
:1044d00002004000cf80de00d8f00700020020007c
:1044e000a34724001af00700606b8800716b8800f6
:1044f0004b4990000281fb000891b9003b489000b5
:104500000080fb0002004000cf80de00cbf00700ff
:1045100002002000a34724000df00700806b8800f4
:10452000916b88000a0078007cedb7005b48900032
:104530007dedb7007f6def00806def007e6def00c9
:10454000a6b3200025be200084bc2000e3ba2000d2
:1045500042b9200061b62000c0d5200081f60700d6
:10456000f60337000b489000e64f50002e003a004b
:104570007b459000e64f5500f2033a002b4990002e
:104580000281fb00081020000891b9001b48900030
:104590000080fb0002004000cf80de00a7f0070093
:1045a00002002000a3472400e9ef0700606b8800a9
:1045b000716b88004b4990000281fb000891b900a3
:1045c0003b4890000080fb0002004000cf80de00ee
:1045d0009af0070002002000a3472400dcef070048
:1045e000806b8800916b88000a0078007cedb70032
:1045f0005b4890007dedb7007f6def00806def00b0
:104600007e6def00a6b3200025be200084bc2000f4
:10461000e3ba200042b9200061b62000c0d52000d6
:1046200050f60700c50337000b4d9000e74f5500cb
:104630002d003a007b409000e64f5000c1033a0045
:104640002b4990000281fb00081020000891b9005e
:104650001b4890000080fb0002004000cf80de007d
:1046600076f0070002002000a3472400b8ef0700ff
:10467000606b8800716b88004b4990000281fb00e1
:104680000891b9003b4890000080fb000200400008
:10469000cf80de0069f0070002002000a34724005d
:1046a000abef0700806b8800916b88000a007800f0
:1046b0007cedb7005b4890007dedb7007f6def00ab
:1046c000806def00a6b3200025be200084bc200032
:1046d000e3ba200042b9200061b62000c0d5200016
:1046e00020f60700950337008b489000e8cf500074
:1046f00012003a007b409000e24f500091033a00d4
:10470000010078007cedb7001b4890007dedb700fc
:104710007f6def00806def00a6b3200025be200066
:1047200084bc2000e3ba200042b9200061b620001a
:10473000c0d520000bf60700800337008b4890009f
:10474000e9cf500012003a007b409000e24f500049
:104750007c033a00010078007cedb7001b48900014
:104760007dedb7007f6def00806def00a6b32000f8
:1047700025be200084bc2000e3ba200042b92000fe
:1047800061b62000c0d52000f6f507006b033700a6
:104790000b4d9000ea4f55002d003a007b409000f1
:1047a000e64f500067033a002b4990000281fb005e
:1047b000081020000891b9001b4890000080fb0001
:1047c00002004000cf80de001cf007000200200045
:1047d000a34724005eef0700606b8800716b8800c0
:1047e0004b4990000281fb000891b9003b489000c2
:1047f0000080fb0002004000cf80de000ff00700c9
:1048000002002000a347240051ef0700806b8800be
:10481000916b88000a0078007cedb7005b4890003f
:104820007dedb7007f6def00806def00a6b3200037
:1048300025be200084bc2000e3ba200042b920003d
:1048400061b62000c0d52000c6f507003b03370045
:104850000b4c9000eb4f54001e003a007b40900040
:10486000e44f500037033a002b4890004800dd0029
:104870001b4990000281fb0002004000cf80de0057
:10488000eeef070002002000a347240030ef0700ee
:10489000006b8800116b8800080078007cedb70081
:1048a0003b4890007dedb7007f6def00806def001d
:1048b000a6b3200025be200084bc2000e3ba20005f
:1048c00042b9200061b62000c0d52000a5f5070040
:1048d0001a0337000b4c9000ec4f54001e003a00b6
:1048e0007b409000e44f500016033a002b489000a4
:1048f0004800dd001b4990000281fb0002004000df
:10490000cf80de00cdef070002002000a347240087
:104910000fef0700006b8800116b8800080078001b
:104920007cedb7003b4890007dedb7007f6def0058
:10493000806def00a6b3200025be200084bc2000bf
:10494000e3ba200042b9200061b62000c0d52000a3
:1049500084f50700f90237000b4d9000ed4f55002c
:104960002d003a007b409000e64f5000f5023a00df
:104970002b4990000281fb00081020000891b9002b
:104980001b4890000080fb0002004000cf80de004a
:10499000aaef070002002000a3472400ecee070066
:1049a000206b8800316b88004b4990000281fb002e
:1049b0000891b9003b4890000080fb0002004000d5
:1049c000cf80de009def070002002000a3472400f7
:1049d000dfee0700406b8800516b88000a0078000a
:1049e0007cedb7005b4890007dedb7007f6def0078
:1049f000806def00a6b3200025be200084bc2000ff
:104a0000e3ba200042b9200061b62000c0d52000e2
:104a100054f50700c90237008b489000eecf5000d4
:104a200012003a007b409000e24f5000c5023a006d
:104a3000010078007cedb7001b4890007dedb700c9
:104a40007f6def00806def00a6b3200025be200033
:104a500084bc2000e3ba200042b9200061b62000e7
:104a6000c0d520003ff50700b40237008b48900006
:104a7000efcf500010003a007b409000e14f500013
:104a8000b0023a00010078007cedb7007f6def00c6
:104a9000806def00a6b3200025be200084bc20005e
:104aa000e3ba200042b9200061b62000c0d5200042
:104ab0002cf50700a10237008b489000f0cf500082
:104ac0002d003a007b409000e24f50009d023a00da
:104ad000010078007cedb7002b4990000281fb00bb
:104ae000081020000891b9001b4890000080fb00ce
:104af00002004000cf80de0050ef070002002000df
:104b0000a347240092ee0700e06a8800f16a88005b
:104b10004b4990000281fb000891b9003b4890008e
:104b20000080fb0002004000cf80de0043ef070062
:104b300002002000a347240085ee0700006b8800d8
:104b4000116b88005b4890007dedb7007f6def0032
:104b5000806def00a6b3200025be200084bc20009d
:104b6000e3ba200042b9200061b62000c0d5200081
:104b7000fcf40700710237008b489000f1cf500021
:104b800070023a007b409000e54f50006d023a0001
:104b9000010078007cedb7007f6def00806def00c5
:104ba0002b4990000281fb00081020000891b900f9
:104bb0001b4890000080fb0002004000cf80de0018
:104bc0001eef070002002000a347240060ee07004c
:104bd000e05c8800f15c88004b4990000281fb009a
:104be0000891b9003b4890000080fb0002004000a3
:104bf000cf80de0011ef070002002000a347240051
:104c000053ee0700b05d8800c15d8800a6b32000a8
:104c100025be200084bc2000e3ba200042b9200059
:104c200061b62000c0d52000cef407004302370053
:104c30009b0078006f806000e30f500041023a0053
:104c40000b4890000004e00024013a007b409000f3
:104c5000e84f50003b023a001b4890008080fb0068
:104c6000c0042000808f50001c0032000c003c006b
:104c700068005000808f50009800320004003c0013
:104c800063005000808f5000540032002d02370026
:104c900070042000808f5000d000320029023700bd
:104ca00040062000808f5000ac00320004003c0021
:104cb00063005000808f50006800320021023700ee
:104cc00070062000808f5000e40032006500400034
:104cd000808f5000210032001a0237002b489000cc
:104ce0000080fb003b4990000281fb00081020007f
:104cf0000891b90002004000cf80de00cfee07002f
:104d0000c0608800d16088004b4890000080fb00a4
:104d10005b4990000281fb000891b900020040004d
:104d2000cf80de00c5ee0700e0608800f1608800fb
:104d30006b4890000080fb007b4990000281fb00e3
:104d40000891b90002004000cf80de00bbee0700f2
:104d50000061880011618800f80137002b4890003d
:104d60000080fb003b4990000281fb0008102000fe
:104d70000891b90002004000cf80de00afee0700ce
:104d800080638800916388004b4890000080fb009e
:104d90005b4990000281fb000891b90002004000cd
:104da000cf80de00a5ee0700a0638800b163880015
:104db0006b4890000080fb007b4990000281fb0063
:104dc0000891b90002004000cf80de009bee070092
:104dd000c0638800d1638800d80137002b48900059
:104de0000080fb003b4990000281fb00081020007e
:104df0000891b90002004000cf80de008fee07006e
:104e000020628800316288004b4890000080fb00df
:104e10005b4990000281fb000891b900020040004c
:104e2000cf80de0085ee0700406288005162880076
:104e30006b4890000080fb007b4990000281fb00e2
:104e40000891b90002004000cf80de007bee070031
:104e50006062880071628800b80137002b489000ba
:104e60000080fb003b4990000281fb0008102000fd
:104e70000891b90002004000cf80de006fee07000d
:104e8000e0648800f16488004b4890000080fb00db
:104e90005b4990000281fb000891b90002004000cc
:104ea000cf80de0065ee0700006588001165880090
:104eb0006b4890000080fb007b4990000281fb0062
:104ec0000891b90002004000cf80de005bee0700d1
:104ed0002065880031658800980137002b489000d4
:104ee0000080fb003b4990000281fb00081020007d
:104ef0000891b90002004000cf80de004fee0700ad
:104f000040668800516688004b4890000080fb0096
:104f10005b4990000281fb000891b900020040004b
:104f2000cf80de0045ee070060668800716688006d
:104f30006b4890000080fb007b4990000281fb00e1
:104f40000891b90002004000cf80de003bee070070
:104f50008066880091668800780137002b489000b1
:104f60000080fb003b4990000281fb0008102000fc
:104f70000891b90002004000cf80de002fee07004c
:104f800000698800116988004b4890000080fb0090
:104f90005b4990000281fb000891b90002004000cb
:104fa000cf80de0025ee0700206988003169880087
:104fb0006b4890000080fb007b4990000281fb0061
:104fc0000891b90002004000cf80de001bee070010
:104fd0004069880051698800580137002b489000cb
:104fe0000080fb003b4990000281fb00081020007c
:104ff0000891b90002004000cf80de000fee0700ec
:10500000a0678800b16788004b4890000080fb00d3
:105010005b4990000281fb000891b900020040004a
:10502000cf80de0005ee0700c0678800d1678800ea
:105030006b4890000080fb007b4990000281fb00e0
:105040000891b90002004000cf80de00fbed0700b0
:10505000e0678800f1678800380137002b4890002e
:105060000080fb003b4990000281fb0008102000fb
:105070000891b90002004000cf80de00efed07008c
:10508000606a8800716a88004b4890000080fb00cd
:105090005b4990000281fb000891b90002004000ca
:1050a000cf80de00e5ed0700806a8800916a880005
:1050b0006b4890000080fb007b4990000281fb0060
:1050c0000891b90002004000cf80de00dbed070050
:1050d000a06a8800b16a8800180137000b48900068
:1050e000e14f5000ab003a007b409000e54f50008c
:1050f00014013a001b4890008080fb00400420000f
:10510000808f50005900320004003c0063005000c2
:10511000808f50002e0032000a01370070042000fa
:10512000808f50007600320065004000808f500074
:1051300004013a00ab48900060c7b30080cf500034
:1051400016003a004b4890004800dd003b499000b3
:105150000281fb0002004000cf80de00b7ed0700b7
:1051600002002000a3472400f9ec0700e05c88005f
:10517000f15c8800f25a8000035b800036ed070086
:105180000000e000ed003400f05a8000015b800078
:10519000e05c8800f15c8800e80037004b48900034
:1051a0004800dd003b4990000281fb000200400006
:1051b000cf80de00a1ed070002002000a3472400fd
:1051c000e3ec0700405d8800515d8800db0037009c
:1051d000ab48900060c7b30080cf500016003a0083
:1051e0004b4890004800dd003b4990000281fb00e5
:1051f00002004000cf80de0090ed0700020020009a
:10520000a3472400d2ec0700b05d8800c15d880090
:10521000125b8000235b80000fed07000000e000c0
:10522000c6003400105b8000215b8000b05d880008
:10523000c15d8800c10037004b4890004800dd0088
:105240003b4990000281fb0002004000cf80de005d
:105250007aed070002002000a3472400bcec070001
:10526000105e8800215e8800b4003700ab489000d3
:1052700060c7b30080cf500014003a003b48900054
:105280004800dd006007b000cf80de006bed070056
:1052900002002000a3472400adec0700805e8800d8
:1052a000915e8800f25a8000035b8000eaec070000
:1052b0000000e000a1003400f05a8000015b800093
:1052c000805e8800915e88009c0037005b489000fb
:1052d0004800dd004b4990000281fb0002004000c5
:1052e000cf80de0055ed070002002000a347240018
:1052f00097ec0700e05e8800f15e88008f003700c1
:10530000ab48900060c7b30080cf500014003a0053
:105310003b4890004800dd006007b000cf80de0011
:1053200046ed070002002000a347240088ec070098
:10533000505f8800615f8800f25a8000035b800044
:10534000c5ec07000000e0007c003400f05a80004b
:10535000015b8000505f8800615f88007700370044
:105360005b4890004800dd004b4990000281fb0043
:1053700002004000cf80de0030ed07000200200078
:10538000a347240072ec0700b05f8800c15f88006b
:105390006a0037000b489000e24f50002d003a00a1
:1053a0007b409000e44f500066003a001b4890009c
:1053b0008080fb0040042000808f50000b003200f2
:1053c00004003c0063005000808f50001400320045
:1053d0005c00370070042000808f50000300320012
:1053e00065004000808f500056003a003b48900016
:1053f0004800dd002b4990000281fb0002004000c4
:10540000cf80de000ded070002002000a34724003e
:105410004fec0700a06b8800b16b88004700370095
:105420003b4890004800dd002b4990000281fb00c2
:1054300002004000cf80de0000ed070002002000e7
:10544000a347240042ec0700c06b8800d16b8800a2
:105450003a0037000b489000e34f500039003a0003
:105460007b409000e44f500036003a001b4890000b
:105470008080fb0070042000808f500022003200ea
:1054800004003c0063005000808f50001100320087
:105490002c00370020052000808f500029003a00a2
:1054a0003b4890004800dd002b4990000281fb0042
:1054b00002004000cf80de00e0ec07000200250083
:1054c000337c240022ec0700d0598800e159880081
:1054d0001a0037003b4890004800dd002b4990003f
:1054e0000281fb0002004000cf80de00d3ec070009
:1054f00002002500337c240015ec0700f0598800d9
:10550000015a88000c0037003b4890004800dd003d
:105510002b4990000281fb0002004000cf80de009a
:10552000c6ec070002002500337c240008ec0700cd
:10553000105a8800215a8800b101070014010700a1
:10554000010037002b0107004f05be004f04be00cd
:10555000000006001000fa000001200080bf9f003c
:105560006011b80092bf9f00a3bf9f000041eb00f5
:10557000e2f79f0011c0b300f1f79f00a1cab3008a
:1055800081ff9f008f87e800e2ff9f008fb89700a0
:105590001fb99700afb997003fba9700cfba9700ed
:1055a0005fbb9700efbb9700bef707008f87e9004e
:1055b0000080fa00000006001000fa0064012000dc
:1055c00084bf9f006011b80092bf9f00a3bf9f00df
:1055d0000041eb00e2f79f0011c0b300f1f79f001c
:1055e0007fcdbf0080ff9f008f87e800e2ff9f0014
:1055f000040078008fb897001fb99700afb99700e3
:105600003fba9700cfba97005fbb9700efbb9700f8
:10561000a4f707008f87e9000080fa000000060069
:105620001000fa004001200080bf9f006011b80008
:1056300092bf9f00a3bf9f000041eb00e2f79f00d5
:1056400011c0b300f1f79f0081ff9f008f87e80032
:10565000e2ff9f008fb897001fb99700afb997007e
:105660003fba9700cfba97005fbb9700efbb970098
:105670008cf707008f87e9000080fa000000060021
:105680001000fa00889fbe008a9fbe000200200022
:10569000a3472400505c8000615c800078eb070029
:1056a00045ec07000005be0002002000a3472400cf
:1056b000705c8000815c800071eb07003eec0700ad
:1056c0000004be0002002000a3472400b05b80005d
:1056d000c15b80006aeb070037ec07005401200033
:1056e000c4b79f006011b800d2b79f00e3b79f0016
:1056f0008041eb00e3ef9f0062c0b300f2ef9f0038
:105700008af79f0048d5de009af79f00a8f79f0010
:1057100048c4de00b8f79f00c0f79f004880de0055
:10572000d0f79f008f87e800e3ff9f000400780018
:10573000cfb097005fb19700efb197007fb29700ad
:105740008fba97001fbb9700afbb970055f70700b4
:105750008f87e9004f05be004f04be000080fa00ad
:10576000000006001000fa00889fbe008a9fbe005d
:105770008c1f7800004678000080fb00e10f50008d
:105780001c00320003003c000000e0000600320074
:1057900053003700e20f500029003200e30f5000a1
:1057a0003a0032004e00370002002000a3472400d8
:1057b000305b8000415b800031eb0700feeb0700af
:1057c0008005780002002000a3472400005d8000cf
:1057d000115d80002aeb0700f7eb07000005780059
:1057e00002002000a3472400d05b8000e15b800022
:1057f0003800370002002000a3472400905b80009f
:10580000a15b80001eeb0700ebeb07008005780032
:1058100002002000a3472400d05d8000e15d8000ed
:1058200017eb0700e4eb07000005780002002000fa
:10583000a3472400f05b8000015c80002500370056
:1058400002002000a3472400505b8000615b8000c1
:105850000beb0700d8eb0700800578000200200062
:10586000a3472400a05e8000b15e800004eb070027
:10587000d1eb07000005780002002000a3472400b8
:10588000105c8000215c80001200370002002000c4
:10589000a3472400705b8000815b8000f8ea07006a
:1058a000c5eb07008005780002002000a347240014
:1058b000705f8000815f8000f1ea0700beeb0700a7
:1058c0000005780002002000a3472400305c80001f
:1058d000415c8000eaea0700b7eb070000017800ae
:1058e00099012000b9b79f006000b800c0b79f00c1
:1058f000d1b79f000044eb00c8ef9f0080c0b30009
:10590000d0ef9f00ecef9f00fbef9f0048d8de0038
:1059100080f79f009af79f0048d0de00a0f79f0015
:10592000b2f79f004890de00c0f79f000200200001
:1059300003f02300e0638000f1638000d0ea0700f9
:1059400001f0a1009ceb0700d0f79f008f87e800d3
:10595000e8ff9f0009007800bfb097004fb19700a3
:10596000dfb197006fb29700ffb297000fbb9700af
:105970009fbb9700cbf607008f87e9004f067800a2
:105980004f05be004f04be000080fa000000060074
:105990001000fa002001200080bf9f006011b800b5
:1059a00092bf9f00a3bf9f000041eb00e2f79f0062
:1059b00011c0b300f1f79f0021c5b30081ff9f0024
:1059c0008f87e800e2ff9f008fb897001fb997000c
:1059d000afb997003fba9700cfba97005fbb970067
:1059e000efbb9700aff607008f87e9000080fa0051
:1059f000000006001000fa001001200080bf9f0088
:105a00006011b80092bf9f00a3bf9f000041eb0050
:105a1000e2f79f0011c0b300f1f79f0091c4b300fb
:105a200081ff9f008f87e800e2ff9f008fb89700fb
:105a30001fb99700afb997003fba9700cfba970048
:105a40005fbb9700efbb970096f607008f87e900d2
:105a50000080fa0000000600c021ef00105c20006a
:105a6000200e8800d021ef00c901a900c921a9009a
:105a7000c881a800c801a900c8a1a800c821a90020
:105a800040002000500e880000f02f00a00e88007b
:105a9000ccc1bf0001ccb30001406000c040b300e6
:105aa000cce1b700f0c3b300cc61b600c1e1a800ff
:105ab00012c0b30000002000a13f2400070007002f
:105ac00022c0b30000002000a13f24000300070013
:105ad000d802a900d842a90000000600889fbe0095
:105ae0008a1f78000004be000245780002002c00e6
:105af00033472400d8ea07000000e0000200340029
:105b000008002c003947240002002000831c2400d8
:105b10000800be0058ea07000000e00002003d0057
:105b200008002000891c240002002000a33f24005c
:105b30000800be00f2e9070001f0a1000200220007
:105b4000835324004eea070002002000a33f2400f4
:105b50007fea07000a01fb00e10f51000300320059
:105b6000e20f51000d003200170037005eeb070016
:105b7000b00e880002002000a33f24000800be00f1
:105b8000b5ea07000000e00002003400dc02a800d3
:105b90000d003700dc02a9000b00370052eb0700b4
:105ba000c00e880002002000a33f24000800be00b1
:105bb000a9ea07000000e00002003400dc42a8006f
:105bc00001003700dc42a9004f0578004f04be00f9
:105bd00000000600a822a800d902a800c622a8003a
:105be00070c0b3009460b7009c60b7008200a90049
:105bf0008220a8009e0007000100070000000600a8
:105c0000b2fd200093042400f0598000015a800066
:105c10001bea070002002000833c24004cea070036
:105c2000006e8800116e8800b2fd200093042400ed
:105c3000105a8000215a800011ea0700020020005b
:105c4000833c240042ea0700206e8800316e880001
:105c5000000006008c00a8008e00a80000000600ce
:105c60008c00a9008e00a900000006006000b800aa
:105c7000706d8800816d8800906d8800a16d88002e
:105c800000000600889fbe00d2598000e3598000c2
:105c9000fbe907000200200003f02300f8e90700f9
:105ca0000004be000001be00706d8000816d8000a8
:105cb00093e90700706d8800816d88000801be00bf
:105cc000906d8000a16d80008de90700906d8800c7
