:020000040000fa
:080000000002040000000000f2
:020000040000fa
:10040000efe92000005f24000001880000000000e8
:100410000c00070020a825000100200011000700a3
:10042000000020000000e000020032000000020096
:100430000000000050360200000000000040da001a
:100440000000fe004440a900000020000000e00081
:100450000300320000002000a00188004440a800f2
:100460000000060091018800800078000000eb0089
:1004700015003700e280400032a0b4009101ba00bc
:10048000e280400032a0b4009102ba00e280400055
:1004900032a0b4000002eb00472bde00f507b200eb
:1004a000602ce10004003a000059eb008301e900f0
:1004b000fdff3e00040037006128e100010032002a
:1004c0000082eb00040007001101ba000200e00006
:1004d000e8ff3a00000006003159ba008301e90044
:1004e0000c0032002159ba008301e90008003200f3
:1004f0000400e00003003a00e280400032a0b400b3
:10050000f5ff370011d9ba008301e900faff3a007c
:100510008100e800e180400032a0b4000000060045
:10052000889fbe008a9fbe00010578000100e000a0
:100530000400350008003c000000e000200032000c
:100540000500370060001000e080180002003b004a
:1005500001f02c001a0037000004be006011b80042
:100560006b0920000982cf00020039000882cf0009
:100570000441b000694252000e00320008003b0006
:1005800082817100610164008904d1000884d30074
:100590008b05e8000442e800f9ff3a000500370047
:1005a0000804440089844c008b05e9000442e900fa
:1005b000fbff3a002c0207000af0a70001f0a000a0
:1005c0004f05be004f04be0000000600889fbe001d
:1005d0008a9fbe008c1f780049020700500233003a
:1005e00003866c006450e1002e0032006420e100bc
:1005f000330032006150e1002f0032006120e10041
:100600003100320085855500eb07b000090020005d
:1006100008042000050037000804440089844c00c9
:100620000a0031000603430087834b00000153009a
:1006300081815b00f8ff33000203be000800a000c8
:100640000804440089844c00f6ff3900c639dd00f7
:100650008301730001003200130020008904d100df
:100660000884d3000998a300050032000800a70001
:100670000300a0008904d1000884d3008b05e800a2
:100680008904d1000884d3000001eb000281d2006c
:10069000f501070001f0a1000cf0a70001f0a00097
:1006a000280237006420e1002a0232000801be005f
:1006b0000200be00f7ff37006120e1002502320092
:1006c0006000b800f3ff37000000200001f82700a9
:1006d000f0ff3700889fbe008a9fbe008c1f780005
:1006e000070207000e02330003866c006450e1002d
:1006f000240032006420e100270032006150e10054
:10070000220032006120e100210032008b8542008e
:10071000eb07b1000134b800003ab8000804420009
:1007200089844a00013ab8000030b800888040004f
:1007300009014a00040033000000400081804800a5
:10074000020149008b05e900c909dd008301700041
:100750000100320013002000c814de004814dd0040
:100760004709de001200b200c808de0008847000ed
:10077000bd01070001f0a1000cf0a70001f0a000ee
:10078000f00137006120e100f20132000801be00f3
:100790000200be00f7ff37006150e100fcff3a00a5
:1007a000ec0137000001be00ed0107000470a70056
:1007b00003f0a1006509b100160032000d003500fc
:1007c0006828e10006003500f0ff2f00f1ff270048
:1007d0000300e00013003b000100280000000500ba
:1007e00000004000818048008502e900fcff3a00db
:1007f00008003700f88f420002003c008000eb0048
:10080000000005008100d1000080d3008502e800cf
:10081000fcff3a000300e00002003b006000100013
:10082000e08018000000060003f0a200889fbe00d0
:100830008a9fbe008c1f7800b1010700b801330009
:100840006450e1004f0032006420e10052003200a9
:1008500003826c0007003b000905d0000306d000ae
:10086000820f54000c065d000200390002003200c5
:1008700089017800030678008582550004003d0058
:100880000003fd008103fd008502ea008b85420024
:10089000840f720002003b0060001000e08018002e
:1008a0006011b8000005eb007a28e1000a00390069
:1008b00006007800c75ddd00f707b200878075008d
:1008c0002d003700828171000a0178006105600007
:1008d0008180d1000080d3008502e900f9ff3b0050
:1008e000060440008784480002003b0060041400b6
:1008f000e0841c000988a300070032008a8171008f
:1009000082817100610164008904d1000884d300f0
:100910008b05e800170037000978a30013003a00a0
:100920000b00e000130034008b05e90008044400cc
:1009300089844c000a4474000978a3000d003a0031
:100940000b00e000070034008b05e90008044400b8
:1009500089844c0001003a000b0020000978a300b4
:10096000f7ff32000001eb000200370082817100c6
:100970000a0178003c0107000cf0a70001f0a0007c
:10098000700137006420e10002003a00838f6c00a0
:10099000700133000801be000200be00690137008b
:1009a000f4ff2f0083013700040020009c01370072
:1009b000140020007f013700040020007d01370073
:1009c0000001eb00e50137000081eb00e301370097
:1009d000889fbe008a9fbe008c1f780048010700d8
:1009e0001002200002003b00e07488004c01370038
:1009f0008a0062006408e10002003a00e0748800a6
:100a0000540137006108e100fcff32000800be001d
:100a100003047800edfe070001f0a1003802070092
:100a200008f0a600040037000001be009104240075
:100a3000b0fd20007cff070009f0a70001f0a20034
:100a400040013700889fbe008a9fbe008c1f78003f
:100a50000004be00420107000478a30026003a000b
:100a60006120e1002500320009f8a30025003a00ca
:100a70006420e10021003200f507b1000508a30061
:100a80000200320000004000818048006044b8004d
:100a90000310200002002000000040008180480078
:100aa0000805440089854c000a0541008b854900f2
:100ab0000a0550008b855800030033000a00be0071
:100ac00002047400838474008301d1000281d30086
:100ad000830f7100f0ff3a008904d1000884d3002d
:100ae0006001490082017800c1adde00fb07b00063
:100af000dd000700130137000960a0000800be00f8
:100b00001001370012022000e2748800f0ff2f006d
:100b1000f1ff27000b013700889fbe008a9fbe00af
:100b20008c9fbe005b020700850478000005be00b4
:100b30006420e10049003e006220e1000300320031
:100b4000090035000bf8a300440032000bf8a300a5
:100b50000800320010022000e0748800f0ff2f002f
:100b6000f1ff27003d00370001f82f0000002000b2
:100b70003a0037003d0007002bff07000006be00cb
:100b80000a00be00324f200053f3230084ff070009
:100b9000060034000c00be003400070022ff0700ee
:100ba0000006be000a00be00020037008904e9000a
:100bb0000c00be002d000700c6fe07002b0007003a
:100bc0001aff07000001be000c00be007ffe0700f8
:100bd0000005be000001be00befe07000006be000c
:100be000a2f32300430d2c0010ff0700809fbe00de
:100bf0000c00be00d2e32700d3f02b00b5fe0700a7
:100c00004f01be0071fe07000006be000a01be00d3
:100c1000b0fe07000a01be0004ff07000006be0088
:100c20006148b9003efe07000005be0032082800fa
:100c3000e3952b00a7fe07000c01be00fbfe07009a
:100c40000006be000a00be000200280013f32300c5
:100c5000a0fe07000c01be00f4fe07004f06be0018
:100c60004f05be004f04be000000060003f0230045
:100c700002000500889fbe008a9fbe008c9fbe00b8
:100c80000004be00b60007000800be006420e100ba
:100c900048003e005500320072212700132b24002b
:100ca0003fff070047003c000800be00c2ec2800e0
:100cb000e32c2c003eff0700470035000800be0073
:100cc00001f0a100020020000338230038ff0700d4
:100cd000430035000800be00b2a32a0083fb2300b6
:100ce0007cfe07000200200003f0230001f0a700b3
:100cf00003f0a000cdfe0700aafe07000005be001d
:100d000007fe070001f0a2000006be000200280056
:100d100013f323006ffe07000801be00c3fe0700a7
:100d2000809fbe000c00be0032082800e3952b0017
:100d300068fe07004f01be00bcfe07000006be00b3
:100d40000001be0063fe0700809fbe0042412500f7
:100d500083b823005ffe07000200200003e82300a1
:100d6000b2fe07000c01be005afe07000006be00de
:100d70004f00be00f2f92b00c3d4230055fe07003c
:100d80000200200003f02300a8fe07000c01be00b3
:100d9000a5fe07000001be000c00be000bfe070010
:100da0000200200003f02300a0fe070061014500bf
:100db000c50107004f06be004f05be004f04be0030
:100dc0000000060001f82700000020002202200099
:100dd000e2748800f7ff37006000b800fbff3700bf
:100de00001f8230000002000f2ff370009f8a300fb
:100df000f0ff32006000b800eeff37000001be00d7
:100e0000570007000470a70003f0a10003f8a30037
:100e100013003a006509b1001000320009003500e6
:100e20006928e100020035000100280000000500eb
:100e300000004000818048008502e900fcff3a0084
:100e400000000600f88f4200050035008100d10047
:100e50000080d3008502e800fcff3a000000060095
:100e60008000eb000000050081002000618055003b
:100e70000b003d000b00200061fe2f000100e1008f
:100e80001d00340082817100610164008904d10079
:100e90000884d3000000e800faff3a007100200047
:100ea000610064000300700002006000090032006d
:100eb00061044400e0844c000988a500050032006c
:100ec0008b05e8006808e10002003a008904d100bf
:100ed0000884d300f20f20000258e10005003d0015
:100ee000c75ddd00f907b200898075000800780051
:100ef000000006000bf827008b00780000000500ba
:100f00000004be00160007000003be000405be007a
:100f10000200be0012000700844f750000000600aa
:100f20000200be006450e100050036006420e100cc
:100f3000020036000968a30001003a000800be0064
:100f40000160a0004f0678004f05be004f04be00b0
:100f500000000600f0ff2f00f1ff2700f9ff370027
:100f6000c70ade00f107b200f50fb2000800320038
:100f7000e1cf4200020032000170a0002400050011
:100f8000810f7000010032000408050044000500d4
:100f9000810f700002003a00140005008502e9008c
:100fa0000000400081c04800fcff3b000170a00031
:100fb00024000500889fbe008a9fbe00841f780021
:100fc000cfff07004f00780011003300f0ff2f0023
:100fd000838f6c0006003b00040565000a00a70033
:100fe0000800370009f0a6001000200008003700b4
:100ff000820f5400838f5c00030039001000200032
:1010000001003e000000200009f0a7000000ea00f7
:101010004f05be004f04be000000e00000000600c7
:10102000889fbe008a9fbe008c1f78004f26dd007f
:10103000b3ff0700baff33006120e1004300320034
:101040006250e10041003e003e0039006420e100b2
:101050003c003200058255000f003b000402e8000e
:1010600038003a00800f5300818f5b003500340058
:101070000800be0003f0a10001f0a60003f0a000ec
:101080000cf0a700e9fd0700aeff370006034300a0
:1010900087834b000c4646000005530081855b00aa
:1010a000020033000a03be000c00a0000402e900a5
:1010b000f6ff3b00850578000602430087824b005f
:1010c00004003a006000b80009f0a70001f0a00099
:1010d0009cff37000002520081825a000704e000a2
:1010e000040033000603430087834b008b05e900af
:1010f000faff3700090578000604be000203be00af
:101100006011b80058ff0700e00f5200e08f5a004e
:101110000700350002003c000c08a3000400320068
:101120000601be0003f0a0000cf0a700bffd070001
:101130000a85680001f0a1000af0a70001f0a000f4
:1011400080ff37000800be007eff3700100220003d
:101150000cf0a600e07488007eff3700889fbe0078
:101160008a9fbe008c9fbe00820578000004be00ee
:101170007bff07000800be006420e1000700390083
:1011800002003a00f1ff2700f0ff2f000160a000ed
:1011900012022000e2748800550037006120e1004f
:1011a00003003a000b00a70001f8230050003700ad
:1011b00001f0a1000200210093642400fcfd07005f
:1011c0000800be0004003500b2fd2000930c24008e
:1011d000f5fd07000004be000005eb000b00a600b3
:1011e0004f0dde0001f0a1000004be0032982f0078
:1011f00023ea230037fd07000001eb0003f0230082
:101200000b00a70003f8230088fd070065fd070019
:101210000000a7000a00a200c1fc07000b00e000cc
:10122000030032000200200003f023007efd0700cf
:1012300001f0a2000006be0002002000930424007a
:1012400024fd07000801be0078fd0700809fbe0056
:101250000c00be0022a22a00d3a723001dfd070018
:101260004f01be0071fd07000004be0001f0a100a7
:101270000200200003982300cdfd07000800be00f7
:10128000190035000001be0012fd07000006be0077
:10129000b2c52900e36223000efd070022222b00c5
:1012a000f3942b0061fd07000c01be0009fd07004f
:1012b000e273280083c023005cfd07000c01be0020
:1012c00004fd070042aa2a00a3e22b0057fd0700f5
:1012d0000c01be00fffc07000801be00fdfc07007a
:1012e0000801be0051fd07000a00a70001f0a2009e
:1012f0004f06be004f05be004f04be0000000600b2
:10130000889fbe008a9fbe008c9fbe000004be0066
:1013100013ff07000800be00890678006420e10082
:1013200008003900040032000160a0001202200011
:10133000e27488005300370091fc2300b0fd2000c8
:101340004e0037000006eb0009f0a10003f823006f
:10135000020020000800be0095fd070006003400d2
:1013600001f82300000020000801be0097fc0700e0
:101370000004be002c0020000800be0093e82300fb
:10138000320a23008afd0700120034000801be0063
:10139000d1fd2300703d2b0024fd07000005be0099
:1013a000b3f32300f27a26000800be00c9fc070050
:1013b00003f82300020020001bfd07000801be0007
:1013c0001afd07000a01be0080fc07000004be00f1
:1013d0000c06e8000800be0001f0a1000200200099
:1013e0000398230072fd07000800be0016003500b8
:1013f0000801be00b7fc07000005be0032cd2c007e
:1014000043fb230009fd0700809fbe0012692800ee
:1014100003d52b000a00be00aefc0700620f2100be
:1014200013ef2b0001fd07000a01be00a9fc070015
:101430004f01be0065fc07000801be00a5fc0700c7
:101440000801be00f9fc07000c00e0000b003200b0
:101450000c10a70001f0a200b2fd200093fc2300b5
:101460006260e1000400320022a9200063f0230042
:101470000c10a70063f82300ecfc07000df0a70098
:1014800001f0a2004f06be004f05be004f04be0093
:10149000000006000003be00b1fe07006220e1006c
:1014a000020032000600be0005000500e507b1009d
:1014b000f107b20004f023008480700007f0a70059
:1014c00001f0a000240005000003be00a4fe0700f8
:1014d0006220e100020032000600be0000000600ab
:1014e00085024100e30f20000328e10005003c00d5
:1014f000a3fe2f000328e10007003d0005002000a7
:1015000001003700f50f200020022000e074880061
:101510006000b800080037001300200083815200eb
:1015200005003d008100d1000080d3008301e80068
:10153000fcff3a0005002000c72add00f107b200d9
:101540008580700007f0a70001f0a00000000600f1
:020000040000fa
:0200000401f009
:04000c00f9ff0000f8
:020000040000fa
:0200000401f009
:04001000fbff0000f2
:020000040000fa
:0200000401f009
:040014007fff00006a
:020000040000fa
:10000800b05a0000b05a0000b05a0000b05a0000c0
:10001800b05a0000b05a0000b05a0000b05a0000b0
:10002800b05a0000b05a0000b05a00009e4e0000be
:10003800ba400000b05a0000b05a0000c24e00009a
:10004800e64e0000b05a0000b05a0000b05a000056
:10005800b05a0000b05a0000d4400000b05a000066
:10006800b05a0000b05a0000b05a0000b05a000060
:10007800b05a0000b05a0000b05a0000b05a000050
:10008800b05a0000b05a0000b05a00000a4f0000f1
:100098002e4f0000b05a0000b05a0000b05a0000bd
:1000a800b05a0000b05a0000b05a0000fe400000ec
:1000b800b05a0000b05a0000b05a0000b05a000010
:1000c800b05a0000b05a0000b05a0000b05a000000
:1000d800b05a0000b05a0000b05a0000b05a0000f0
:1000e800b05a0000b05a0000b05a0000b05a0000e0
:1000f800b05a0000b05a0000b05a0000b05a0000d0
:10010800b05a0000b05a0000b05a0000b05a0000bf
:10011800b05a0000b05a0000b05a0000b05a0000af
:10012800b05a0000b05a0000b05a0000b05a00009f
:10013800b05a0000b05a0000b05a0000b05a00008f
:10014800b05a0000b05a0000b05a0000b05a00007f
:10015800b05a0000b05a0000b05a0000b05a00006f
:10016800b05a0000b05a0000b05a0000b05a00005f
:10017800b05a0000b05a0000b05a0000b05a00004f
:10018800b05a0000b05a0000b05a0000b05a00003f
:10019800b05a0000b05a0000b05a0000b05a00002f
:1001a800b05a0000b05a0000b05a0000b05a00001f
:1001b800b05a0000b05a0000b05a0000b05a00000f
:1001c800b05a0000b05a0000b05a0000b05a0000ff
:1001d800b05a0000b05a0000b05a0000b05a0000ef
:1001e800b05a0000b05a0000b05a0000b05a0000df
:0801f800b05a0000b05a0000eb
:020000040000fa
:10020800b05a0000b05a0000b05a0000b05a0000be
:10021800b05a0000b05a0000b05a0000b05a0000ae
:10022800b05a0000b05a0000b05a00009e4e0000bc
:10023800ba400000b05a0000b05a0000c24e000098
:10024800e64e0000b05a0000b05a0000b05a000054
:10025800b05a0000b05a0000d4400000b05a000064
:10026800b05a0000b05a0000b05a0000b05a00005e
:10027800b05a0000b05a0000b05a0000b05a00004e
:10028800b05a0000b05a0000b05a00000a4f0000ef
:100298002e4f0000b05a0000b05a0000b05a0000bb
:1002a800b05a0000b05a0000b05a0000fe400000ea
:1002b800b05a0000b05a0000b05a0000b05a00000e
:1002c800b05a0000b05a0000b05a0000b05a0000fe
:1002d800b05a0000b05a0000b05a0000b05a0000ee
:1002e800b05a0000b05a0000b05a0000b05a0000de
:1002f800b05a0000b05a0000b05a0000b05a0000ce
:10030800b05a0000b05a0000b05a0000b05a0000bd
:10031800b05a0000b05a0000b05a0000b05a0000ad
:10032800b05a0000b05a0000b05a0000b05a00009d
:10033800b05a0000b05a0000b05a0000b05a00008d
:10034800b05a0000b05a0000b05a0000b05a00007d
:10035800b05a0000b05a0000b05a0000b05a00006d
:10036800b05a0000b05a0000b05a0000b05a00005d
:10037800b05a0000b05a0000b05a0000b05a00004d
:10038800b05a0000b05a0000b05a0000b05a00003d
:10039800b05a0000b05a0000b05a0000b05a00002d
:1003a800b05a0000b05a0000b05a0000b05a00001d
:1003b800b05a0000b05a0000b05a0000b05a00000d
:1003c800b05a0000b05a0000b05a0000b05a0000fd
:1003d800b05a0000b05a0000b05a0000b05a0000ed
:1003e800b05a0000b05a0000b05a0000b05a0000dd
:0803f800b05a0000b05a0000e9
:020000040000fa
:101550000400fa00000f7800110798001e009000a8
:101560001e004000104078008080fb001e009000ac
:101570001e0040000000e800104078000080fb00e2
:101580004800dd00008040000080fa0000000600f6
:101590000600fa00000f7800110798002207980053
:1015a0002e009000800078001e0090000081400016
:1015b0001e0078008040780000c0eb0000c0600092
:1015c00000497800ae0090001e00900000804000ae
:1015d0000001e8009e00780000f02f00008060000d
:1015e0004800de00004978000080fa000000060094
:1015f0000400fa00000f7800110798009e00900088
:101600001e007800d2ff0700cf80de00c4fb070079
:1016100002002000a3472400ecfb07000080fa0032
:10162000000006000800fa00008fbe0022079800a4
:10163000330798001e00be0002002000a3472400cc
:1016400024fc070057fc07003e019000ae0090000c
:10165000cfff07000080fa00000006000c00fa002f
:1016600040079800510798000000eb001007980011
:10167000640f47000000eb00100798000d003700d2
:10168000de0090001e009000008040008000780086
:101690004e00900000804000904078001e007800ce
:1016a000014878001e0fe8001e0090000000e800ce
:1016b000100798001e009000e30f5000f0ff340068
:1016c0002e009000be0090000080fa00000006008e
:1016d0000c00fa0020079800310798004207980094
:1016e000530798000000eb0010079800640f4700b4
:1016f0000000eb00100798000d003700de0090009e
:101700001e00900000804000800078004e00900095
:10171000808040001e0078001040780080487800eb
:101720001e0fe8001e0090000000e800100798005f
:101730001e009000e30f5000f0ff34000080fa001c
:10174000000006002800fa00881f7800100f98009b
:1017500020c5b300005798001e08900010007800c4
:101760006f0060006101b800420f9800530f9800ad
:10177000f0002000010020004e099000de099000da
:10178000800f5100818f59005f0b3e004e08900082
:10179000de089000006001000f0037005a0b370090
:1017a0007f0337002d00370008013700180037008d
:1017b000b3003700fc003700e0003700520b370061
:1017c0002200370023003700f3003700fc05370004
:1017d0004d0b37004a0b37001e08900070409000f8
:1017e000e14f500007003a001e089000804890002a
:1017f00050c5b30080cf500002003a00620b0700d2
:10180000430b370090c4b30000579800400b3700db
:10181000f0c0b3004aebb7000040eb004debb7005f
:101820000040eb004eebb700c6812000858e200003
:10183000648c2000438a20002288200041852000fb
:10184000a0b22000ec0e0700310b37008e0b070012
:101850002f0b37005c0b07002d0b37001e08900084
:1018600070409000e64f500082003a000000eb000c
:101870008c2107001e089000680040008000eb00eb
:101880005bff070040079800510798001e08900072
:10189000680040002100200055ff07002007980045
:1018a000310798001e0890006800400041002000a9
:1018b0004fff0700008fbe000040eb004aebb7006f
:1018c0000040eb004debb7000040eb004eebb700e3
:1018d000c6812000858e2000648c2000438a200071
:1018e0002288200041852000a0b22000c20e0700ff
:1018f0000000eb00104588000000eb002046880047
:101900000000eb00304788000000eb0040488800f2
:101910000000eb00801f7800a0b22000801f78003c
:1019200060ae2000801f780020aa2000801f780071
:10193000e0a52000801f7800a0a12000801f780073
:10194000808e2000801f7800608c2000801f78002f
:10195000609d2000801f780027992000e6942000d9
:10196000a590200044852000438a20002288200082
:10197000c1812000008020007d1d0700f2875700f4
:101980006000b800262607006000b8002b2607007c
:101990004e019000de019000c2438800d3438800ce
:1019a0002e009000be009000e0438800f1438800c4
:1019b0001e01be0002438800134388001e00be00c3
:1019c000900c07002043880031438800e0408000ed
:1019d000f14080001e01be003efb07000200200017
:1019e00003002400f9fa07000d260700e0408000fc
:1019f000f140800001f0a2001e01be0035fb07008f
:101a00000200200003002400f0fa07000b26070064
:101a1000100020001045880010002000204688009b
:101a20001000200030478800100020004048880047
:101a30000040eb004aebb7000040eb004debb70075
:101a40000040eb004eebb700c6812000858e2000e1
:101a5000648c2000438a20002288200041852000d9
:101a6000a0b22000640e0700100020000d21070026
:101a7000a70a370090c4b30000579800a40a3700a3
:101a80001e08900070409000e24f500028003a007d
:101a90001e08900080489000c0c4b30080cf500062
:101aa00005003a001e089000104890000080fb00de
:101ab00010458800960a37001e0890008048900064
:101ac00010c4b30080cf500005003a001e089000fb
:101ad000104890000080fb00204688008c0a3700e8
:101ae0001e0890008048900040c4b30080cf500092
:101af00005003a001e089000104890000080fb008e
:101b000030478800820a37001e0890008048900005
:101b100070c4b30080cf50007d0a3a001e089000c8
:101b2000104890000080fb0040488800780a370089
:101b300090c4b30000579800750a37001e08900043
:101b40000048900061406000614060004501dd0098
:101b5000c12c200091407800f0cdb30000c060009f
:101b600002407000cce2b7001e08900010489000c0
:101b700061406000614060004601dd00c12c200032
:101b800091407800f0cbb30000c0600002407000cc
:101b9000cce2b7005e0a37001e08900000489000b3
:101ba000070b07005a0a37001e08900000489000f3
:101bb0000080fb00004488001e0890000048900050
:101bc0000080fb00c2200700510a37001e08900069
:101bd000004890000080fb006101b900620f98008e
:101be000730f980020012000010020006e09900072
:101bf000fe099000800f5100818f590065023e0060
:101c00006e089000fe08900000600100120037008e
:101c100027003700420037005d0037007b003700a7
:101c20009f003700c5003700eb0037000f01370079
:101c30002d0137004b013700750137009301370044
:101c4000b1013700d5013700f901370051023700e3
:101c50000d0237002e0237001e08900070409000e1
:101c6000e14f50000f003a000040eb004aebb70094
:101c70000040eb004debb7000040eb004eebb7002f
:101c8000c6812000858e2000648c2000438a2000bd
:101c90002288200041852000a0b22000d60d070038
:101ca0001b0a370090c4b30000579800180a370089
:101cb0001e08900070409000e34f500015003a005d
:101cc0001e089000680040001100200048fe070038
:101cd000505988006159880010c0b3004aebb70022
:101ce0000040eb004debb7000040eb004eebb700bf
:101cf000c6812000858e2000648c2000438a20004d
:101d00002288200041852000a0b22000ba0d0700e3
:101d1000ff09370090c4b30000579800fc09370052
:101d20001e08900070409000e34f500015003a00ec
:101d30001e08900068004000110020002cfe0700e3
:101d4000705988008159880020c0b3004aebb70061
:101d50000040eb004debb7000040eb004eebb7004e
:101d6000c6812000858e2000648c2000438a2000dc
:101d70002288200041852000a0b220009e0d07008f
:101d8000e309370090c4b30000579800e00937001a
:101d90001e08900070409000e44f500018003a0078
:101da0001e089000680040001100200010fe07008f
:101db000705988008159880030c0b3004aebb700e1
:101dc0001e089000304890004bebb7000040eb003d
:101dd0004debb7000040eb004eebb700c681200092
:101de000858e2000648c2000438a200022882000f9
:101df00041852000a0b220007f0d0700c4093700f4
:101e000090c4b30000579800c10937001e08900025
:101e100070409000e64f50001e003a001e089000ef
:101e20006800400011002000f1fd0700d059880033
:101e3000e15988001e089000680040003100200031
:101e4000ebfd0700f0598800015a880040c0b3003c
:101e50004aebb7001e089000504890004bebb700cb
:101e60000040eb004debb7000040eb004eebb7003d
:101e7000c6812000858e2000648c2000438a2000cb
:101e80002288200041852000a0b220005a0d0700c2
:101e90009f09370090c4b300005798009c09370091
:101ea0001e08900070409000e64f500020003a005d
:101eb0001e0890006800400011002000ccfd0700c3
:101ec000d0598800e15988001e0890006800400041
:101ed00031002000c6fd0700f0598800015a880033
:101ee00050c0b3004aebb7001e0890005048900065
:101ef0004bebb7000040eb004debb7000040eb00b0
:101f00004eebb7000040eb004cebb700c681200061
:101f1000858e2000648c2000438a200022882000c7
:101f200041852000a0b22000330d0700780937005a
:101f300090c4b30000579800750937001e08900040
:101f400070409000e64f500020003a001e089000bc
:101f50006800400011002000a5fd0700d05988004e
:101f6000e15988001e089000680040003100200000
:101f70009ffd0700f0598800015a880060c0b30037
:101f80004aebb7001e089000504890004bebb7009a
:101f90000040eb004debb7000040eb004eebb7000c
:101fa0000040eb004cebb700c6812000858e20007e
:101fb000648c2000438a2000228820004185200074
:101fc000a0b220000c0d07005109370090c4b300e7
:101fd000005798004e0937001e089000704090008e
:101fe000e64f50001e003a001e08900068004000b6
:101ff000110020007efd0700d0598800e1598800bb
:102000001e089000680040003100200078fd0700a5
:10201000f0598800015a880070c0b3004aebb7003d
:102020001e089000504890004bebb7000040eb00ba
:102030004debb7000040eb004eebb700c68120002f
:10204000858e2000648c2000438a20002288200096
:1020500041852000a0b22000e70c07002c093700c2
:1020600090c4b30000579800290937001e0890005b
:1020700070409000e44f500018003a0080c0b30058
:102080004aebb7001e089000304890004bebb700b9
:102090000040eb004debb7000040eb004eebb7000b
:1020a0001e089000680040001100200050fd07004d
:1020b0007044880081448800c6812000858e2000fd
:1020c000648c2000438a2000228820004185200063
:1020d000a0b22000c80c07000d09370090c4b3005f
:1020e000005798000a0937001e08900070409000c1
:1020f000e44f500018003a0090c0b3004aebb7001c
:102100001e089000304890004bebb7000040eb00f9
:102110004debb7000040eb004eebb7001e089000ff
:10212000680040001100200031fd07008045880054
:1021300091458800c6812000858e2000648c200097
:10214000438a20002288200041852000a0b2200080
:10215000a90c0700ee08370090c4b30000579800a0
:10216000eb0837001e08900070409000e84f5000c8
:1021700024003a001e089000680040001100200072
:102180001bfd0700d0598800e15988001e08900007
:10219000680040003100200015fd0700f05988005c
:1021a000015a8800a0c0b3004aebb7001e08900097
:1021b00068004000510020000dfd070070448800b9
:1021c000814488001e089000704890004bebb700d7
:1021d0000040eb004debb7000040eb004eebb700ca
:1021e000c6812000858e2000648c2000438a200058
:1021f0002288200041852000a0b220007e0c07002c
:10220000c308370090c4b30000579800c0083700d7
:102210001e08900070409000e44f500018003a00f3
:102220001e0890006800400011002000f0fc07002c
:102230007059880081598800b0c0b3004aebb700dc
:102240001e089000304890004bebb7000040eb00b8
:102250004debb7000040eb004eebb700c68120000d
:10226000858e2000648c2000438a20002288200074
:1022700041852000a0b220005f0c0700a4083700b1
:1022800090c4b30000579800a10837001e089000c2
:1022900070409000e44f500018003a001e08900073
:1022a0006800400011002000d1fc07007059880030
:1022b00081598800c0c0b3004aebb7001e089000e7
:1022c000304890004bebb7000040eb004debb700ff
:1022d0000040eb004eebb700c6812000858e200049
:1022e000648c2000438a2000228820004185200041
:1022f000a0b22000400c07008508370090c4b3004e
:1023000000579800820837001e0890007040900027
:10231000e64f50001e003a001e0890006800400082
:1023200011002000b2fc070090598800a1598800d4
:102330001e0890006800400031002000acfc07003f
:10234000b0598800c1598800d0c0b3004aebb7002b
:102350001e089000504890004bebb7000040eb0087
:102360004debb7000040eb004eebb700c6812000fc
:10237000858e2000648c2000438a20002288200063
:1023800041852000a0b220001b0c07006008370028
:1023900090c4b300005798005d0837001e089000f5
:1023a00070409000e64f50001e003a00e0c0b300bd
:1023b0004aebb7001e089000504890004bebb70066
:1023c0000040eb004debb7000040eb004eebb700d8
:1023d0001e089000680040001100200084fc0700e7
:1023e00090468800a14688001e08900068004000c2
:1023f000310020007efc0700a0478800b14788001c
:10240000c6812000858e2000648c2000438a200035
:102410002288200041852000a0b22000f60b070092
:102420003b08370090c4b3000057980038083700c5
:102430001e08900070409000e14f50000f003a00dd
:10244000f0c0b3004aebb7000040eb004debb70023
:102450000040eb004eebb700c6812000858e2000c7
:10246000648c2000438a20002288200041852000bf
:10247000a0b22000e00b07002508370090c4b3008d
:1024800000579800220837001e0890007040900006
:10249000e54f50001b003a0010c1b3004aebb700f3
:1024a0000040eb004debb7000040eb004eebb700f7
:1024b0001e08900068004000110020004cfc07003e
:1024c00070448800814488001e0890006800400025
:1024d0003100200046fc07008045880091458800b7
:1024e000c6812000858e2000648c2000438a200055
:1024f0002288200041852000a0b22000be0b0700ea
:102500000308370090c4b300005798000008370054
:102510001e08900070409000e54f50001a003a00ed
:1025200020c1b3004aebb7001e089000004c900099
:102530000800fb00cf80de00f9f70700200f9800ad
:10254000310f98000804e00007003d000200200061
:10255000033824002e089000be089000b3f807004e
:10256000200f9800310f980002002000030824007b
:102570002e089000be08900056f807007059880099
:1025800081598800e207370090c4b30000579800d3
:10259000df07370090c4b30000579800dc0737000e
:1025a0001e08900068004000110020002bfc07006e
:1025b00060079800710798001e089000004890007e
:1025c0000080fb006101b900e0ff2f00f1ff2f0048
:1025d00002014000838148000217980013179800f9
:1025e000900d2000010020000e1190009e1190001f
:1025f000800f5100818f59006e023e000e10900036
:102600009e10900000600100d90037006902370079
:102610006802370067023700df003700e300370049
:10262000eb0037006302370062023700f100370029
:10263000f5003700f9003700fd00370001013700d1
:1026400005013700090137000d013700110137007e
:10265000190137005702370056023700550237007c
:10266000540237005302370052023700510237003c
:10267000500237004f0237004e0237004d0237003c
:102680004c0237004b0237004a0237001301370073
:10269000480237004702370046023700140137006e
:1026a0004402370043023700420237001a01370064
:1026b000400237003f0237003e0237001b0137005f
:1026c0003c0237003b0237003a0237002101370055
:1026d0003802370037023700360237002201370050
:1026e0003402370033023700320237002801370046
:1026f000300237002f0237002e0237002901370041
:102700002c0237002b0237002a023700290237003b
:10271000280237002702370026023700250237003b
:102720002402370023023700220237002701370036
:102730002b0137002f0137003301370037013700f5
:102740003b0137001b0237001a023700190237001d
:10275000180237001702370016023700150237003b
:10276000140237001302370012023700110237003b
:1027700034013700380137003c0137004001370091
:1027800044013700480137000a02370009023700c8
:10279000080237000702370006023700050237003b
:1027a000040237000302370002023700010237003b
:1027b0000002370041013700450137004901370069
:1027c0004d0137005101370055013700f90137003d
:1027d000f8013700f7013700f6013700f50137003f
:1027e000f4013700f3013700f2013700f10137003f
:1027f000f0013700ef0137004e013700520137007a
:10280000560137005a0137005e0137006201370078
:10281000e8013700e7013700e6013700e50137003e
:10282000e4013700e3013700e2013700e10137003e
:10283000e0013700df013700de0137005b013700c0
:102840005f01370063013700670137006b01370014
:102850006f013700d7013700d6013700d5013700a7
:10286000d4013700d3013700d2013700d10137003e
:10287000d0013700cf013700ce013700cd0137003e
:10288000680137006c0137007001370074013700b0
:10289000780137007c013700c6013700c5013700d9
:1028a000c4013700c3013700c2013700c10137003e
:1028b000c0013700bf013700be013700bd0137003e
:1028c000bc01370075013700790137007d01370001
:1028d000810137008501370089013700b5013700d4
:1028e000b4013700b3013700b2013700b10137003e
:1028f000b0013700af013700ae013700ad0137003e
:10290000ac013700ab013700820137008601370088
:102910008a0137008e013700920137009601370097
:10292000a4013700a3013700a2013700a10137003d
:10293000a00137009f0137009e0137009301370047
:10294000970137009b0137009a0137009901370042
:10295000980137009701370096013700950137003d
:102960006800370076003700840037009200370097
:102970006e019000fe019000624088007340880064
:102980000240800013408000604080007140800061
:10299000a41f0700de0637006e009000fe009000c6
:1029a000e0408800f1408800d90637006e019000b1
:1029b000fe0190000241880013418800024180001e
:1029c000134180008042800023220700d006370098
:1029d0006e009000fe009000204188003141880088
:1029e0002241800033418000904280003322070062
:1029f000c70637006e019000fe01900082418800fa
:102a000093418800c20637006e009000fe009000df
:102a1000a0418800b1418800bd0637006e019000da
:102a2000fe019000c2418800d3418800b8063700fb
:102a30006e009000fe009000e0418800f1418800a7
:102a4000b30637006e019000fe019000024288003c
:102a500013428800ae0637006e009000fe00900022
:102a60002042880031428800a90637006e0190009c
:102a7000fe0190004242880053428800a4063700bd
:102a80006e009000fe009000604288007142880055
:102a90009f0637006e009000fe00900041f707008f
:102aa0008042880002418000134180008042800003
:102ab000e9210700960637006e009000fe009000a6
:102ac00038f707009042880022418000334180009f
:102ad00090428000e02107008d0637006e019000d3
:102ae000fe01900052448800634488008806370045
:102af0006e009000fe009000d0448800e144880001
:102b0000830637006e019000fe019000f2448800b9
:102b1000034588007e0637006e009000fe0090009e
:102b20006045880071458800790637006e01900085
:102b3000fe019000e2458800f345880074063700e6
:102b40006e009000fe00900000468800114688004c
:102b50006f0637006e019000fe01900072468800fb
:102b6000834688006a0637006e009000fe009000e1
:102b7000f046880001478800650637006e01900026
:102b8000fe01900012478800234788006006370046
:102b90006e009000fe0090008047880091478800fa
:102ba0005b0637006e019000fe019000024888002d
:102bb00013488800560637006e009000fe00900013
:102bc0002048880031488800510637006e01900087
:102bd000fe01900092498800a34988004c06370006
:102be0006e009000fe009000b0498800c149880046
:102bf000470637006e019000fe019000d249880020
:102c0000e3498800420637006e009000fe00900005
:102c1000f0498800014a88003d0637006e019000a7
:102c2000fe019000124a8800234a880038063700c7
:102c30006e009000fe009000304a8800414a8800f3
:102c4000330637006e019000fe019000b24b880001
:102c5000c34b88002e0637006e009000fe009000e7
:102c6000d04b8800e14b8800290637006e019000a8
:102c7000fe019000f24b8800034c880024063700c8
:102c80006e009000fe009000104c8800214c8800df
:102c90001f0637006e019000fe019000324c880044
:102ca000434c88001a0637006e009000fe0090002a
:102cb000504c8800614c8800150637006e0190006a
:102cc000fe019000d24d8800e34d880010063700c9
:102cd0006e009000fe009000f04d8800014e8800cc
:102ce0000b0637006e019000fe019000124e880026
:102cf000234e8800060637006e009000fe0090000c
:102d0000304e8800414e8800010637006e01900069
:102d1000fe019000524e8800634e8800fc0537008b
:102d20006e009000fe009000704e8800814e88007a
:102d3000f70537006e019000fe019000f24f880009
:102d400003508800f20537006e009000fe009000ee
:102d50001050880021508800ed0537006e0190006a
:102d6000fe0190003250880043508800e80537008b
:102d70006e009000fe009000505088006150880066
:102d8000e30537006e019000fe019000725088004c
:102d900083508800de0537006e009000fe00900032
:102da00090508800a1508800d90537006e0190002e
:102db000fe0190001252880023528800d40537008b
:102dc0006e009000fe009000305288004152880052
:102dd000cf0537006e019000fe019000525288002e
:102de00063528800ca0537006e009000fe00900014
:102df0007052880081528800c50537006e0190002e
:102e0000fe01900092528800a3528800c00537004e
:102e10006e009000fe009000b0528800c152880001
:102e2000bb0537006e019000fe019000325488000f
:102e300043548800b60537006e009000fe009000f5
:102e40005054880061548800b10537006e0190002d
:102e5000fe0190007254880083548800ac0537004e
:102e60006e009000fe00900090548800a1548800ed
:102e7000a70537006e019000fe019000b254880053
:102e8000c3548800a20537006e009000fe00900039
:102e9000d0548800e15488009d0537006e019000f1
:102ea000fe0190005256880063568800980537004e
:102eb0006e009000fe0090007056880081568800d9
:102ec000930537006e019000fe0190009256880035
:102ed000a35688008e0537006e009000fe0090001b
:102ee000b0568800c1568800890537006e019000f1
:102ef000fe019000d2568800e35688008405370012
:102f00006e009000fe009000f05688000157880087
:102f10007f0537006e019000fe0190007258880016
:102f2000835888007a0537006e009000fe009000fc
:102f300090588800a1588800750537006e019000f0
:102f4000fe019000b2588800c35888007005370011
:102f50006e009000fe009000d0588800e158880074
:102f60006b0537006e019000fe019000f25888005a
:102f700003598800660537006e009000fe0090003f
:102f80001059880021598800610537006e019000b2
:102f9000fe019000125a8800235a88005c05370011
:102fa0006e009000fe009000305a8800415a880060
:102fb0005705370090c4b3000057980054053700f8
:102fc0001e089000004890000080fb006101b900dd
:102fd0002217980033179800b00d20000100200040
:102fe0002e119000be119000800f5100818f59006a
:102ff0003f053e002e109000be10900000600100c2
:10300000db003700df003700e3003700e700370060
:10301000eb003700ef003700f3003700f700370010
:10302000fb003700ff0037000301370007013700be
:103030000b0137000f01370013013700170137006c
:103040001b0137001f01370023013700270137001c
:103050002c013700310137003501370039013700c5
:103060003d01370041013700450137004901370074
:103070004d01370051013700550137005901370024
:103080005d01370062013700660137006a013700d1
:103090006e01370072013700760137007a01370080
:1030a00083013700880137008c0137009001370019
:1030b00094013700980137009c013700a0013700c8
:1030c000a9013700ae013700b2013700b601370061
:1030d000ba013700be013700c2013700c601370010
:1030e000cf013700d4013700d8013700dc013700a9
:1030f000e0013700e4013700e8013700ec01370058
:10310000f5013700fa013700fe01370002023700ef
:10311000060237000a0237000e023700120237009b
:10312000160237001a0237001e023700220237004b
:10313000260237002a0237002e02370032023700fb
:10314000360237003a0237003e02370042023700ab
:10315000460237004a0237004e023700520237005b
:10316000560237005a0237005e023700620237000b
:10317000660237006a0237006e02370072023700bb
:10318000760237007a0237007e023700820237006b
:10319000860237008a0237008e023700920237001b
:1031a000960237009a0237009e023700a2023700cb
:1031b000a6023700aa023700ae023700b20237007b
:1031c000b6023700ba023700be023700c20237002b
:1031d000c6023700ca023700ce023700d2023700db
:1031e000d6023700da023700de023700e20237008b
:1031f000e6023700ea023700ee023700f20237003b
:10320000f6023700fa023700fe02370002033700e9
:10321000060337000a0337000e0337001203370096
:10322000160337001a0337001e0337002203370046
:10323000260337002a0337002e03370032033700f6
:10324000360337003a0337003e03370042033700a6
:10325000460337004a0337004e0337005203370056
:10326000560337005a0337005e0337006203370006
:10327000660337006a0337006e03370072033700b6
:10328000760337007a0337007e0337008203370066
:10329000860337008a0337008e0337009203370016
:1032a000960337009a0337009e033700a2033700c6
:1032b000a6033700aa033700ae033700b203370076
:1032c000b6033700ba033700be033700c203370026
:1032d000c6033700ca033700ce033700d2033700d6
:1032e000d6033700da033700de033700e203370086
:1032f000e6033700ea033700ee033700f203370036
:10330000f6033700fa033700fe03370002043700e4
:10331000060437000a0437000e0437001204370091
:10332000160437001a0437001e0437002204370041
:10333000260437002a0437002e04370032043700f1
:10334000360437003a04370040043700460437009b
:103350004c04370052043700580437005e0437002d
:10336000ce003700fb003700280137005501370039
:1033700002408000134080006207980073079800a5
:103380005b043700204080003140800060079800d7
:103390007107980056043700624080007340800037
:1033a000620798007307980051043700404080007e
:1033b0005140800060079800710798004c04370066
:1033c000a2408000b3408000620798007307980015
:1033d00047043700c0408000d1408000600798005b
:1033e0007107980042043700e2408000f3408000fb
:1033f00062079800730798003d0437000041800081
:103400001141800060079800710798003804370068
:1034100022418000334180006207980073079800c2
:10342000330437004041800051418000600798001c
:10343000710798002e0437006241800073418000bc
:1034400062079800730798002904370080418000c4
:1034500091418000600798007107980024043700ac
:10346000a2418000b3418000620798007307980072
:103470001f043700c0418000d141800060079800e0
:10348000710798001a043700e2418000f341800080
:103490006207980073079800150437000042800007
:1034a00011428000600798007107980010043700ef
:1034b0002242800033428000620798007307980020
:1034c0000b043700404280005142800060079800a2
:1034d0007107980006043700624280007342800042
:1034e000620798007307980001043700804280004b
:1034f000cf80de000af4070060079800710798008b
:10350000fb03370090428000cf80de0004f4070008
:103510006007980071079800f5033700a04280000b
:10352000b14280006007980071079800f0033700ef
:10353000c2428000d342800062079800730798005f
:10354000eb033700e0428000f14280006007980002
:1035500071079800e60337000243800013438000a0
:103560006207980073079800e1033700204380004a
:10357000314380006007980071079800dc03370032
:10358000424380005343800062079800730798000d
:10359000d7033700604380007143800060079800c4
:1035a00071079800d2033700824380009343800064
:1035b0006207980073079800cd033700a04380008e
:1035c000b14380006007980071079800c803370076
:1035d000c2438000d34380006207980073079800bd
:1035e000c3033700e0438000f14380006007980088
:1035f00071079800be03370000448000cf80de00d2
:10360000c7f307006007980071079800b8033700f8
:1036100012448000234480006207980073079800da
:10362000b3033700304480004144800060079800b5
:1036300071079800ae033700524480006344800055
:103640006207980073079800a90337007044800050
:10365000814480006007980071079800a403370038
:1036600092448000a344800062079800730798008a
:103670009f033700b0448000c14480006007980079
:10368000710798009a033700d2448000e344800019
:10369000620798007307980095033700f044800094
:1036a000014580006007980071079800900337007b
:1036b00010458000cf80de0099f307006007980076
:1036c000710798008a033700224580003345800047
:1036d0006207980073079800850337004045800013
:1036e00051458000600798007107980080033700fb
:1036f0006245800073458000620798007307980058
:103700007b0337008045800091458000600798006a
:103710007107980076033700a2458000b34580000a
:10372000620798007307980071033700c045800056
:10373000d145800060079800710798006c0337003e
:10374000e2458000f3458000620798007307980007
:10375000670337000046800011468000600798002c
:10376000710798006203370020468000cf80de009a
:103770006bf3070060079800710798005c0337003f
:103780003246800043468000620798007307980025
:10379000570337005046800061468000600798005c
:1037a00071079800520337007246800083468000fc
:1037b00062079800730798004d0337009046800019
:1037c000a146800060079800710798004803370001
:1037d000b2468000c34680006207980073079800d5
:1037e00043033700d0468000e14680006007980020
:1037f000710798003e033700f246800003478000bf
:10380000620798007307980039033700104780005b
:103810002147800060079800710798003403370043
:1038200030478000cf80de003df30700600798003e
:10383000710798002e0337004247800053478000ed
:1038400062079800730798002903370060478000db
:1038500071478000600798007107980024033700c3
:1038600082478000934780006207980073079800a2
:103870001f033700a0478000b14780006007980011
:10388000710798001a033700c2478000d3478000b1
:10389000620798007307980015033700e04780001f
:1038a000f147800060079800710798001003370007
:1038b0000248800013488000620798007307980050
:1038c0000b033700204880003148800060079800d3
:1038d000710798000603370040488000cf80de0063
:1038e0000ff3070060079800710798000003370086
:1038f0005248800063488000620798007307980070
:10390000fb02370070488000814880006007980003
:1039100071079800f602370092488000a3488000a3
:103920006207980073079800f1023700b0488000e2
:10393000c14880006007980071079800ec023700ca
:10394000d2488000e348800062079800730798001f
:10395000e7023700f04880000149800060079800c6
:1039600071079800e2023700124980002349800065
:103970006207980073079800dd0237003049800025
:10398000414980006007980071079800d80237000d
:1039900052498000634980006207980073079800cd
:1039a000d302370070498000814980006007980089
:1039b00071079800ce02370092498000a349800029
:1039c0006207980073079800c9023700b049800069
:1039d000c14980006007980071079800c402370051
:1039e000d2498000e349800062079800730798007d
:1039f000bf023700f0498000014a8000600798004c
:103a000071079800ba023700124a8000234a8000ea
:103a10006207980073079800b5023700304a8000ab
:103a2000414a80006007980071079800b002370093
:103a3000524a8000634a800062079800730798002a
:103a4000ab023700704a8000814a8000600798000e
:103a500071079800a6023700924a8000a34a8000ae
:103a60006207980073079800a1023700b04a8000ef
:103a7000c14a800060079800710798009c023700d7
:103a8000d24a8000e34a80006207980073079800da
:103a900097023700f04a8000014b800060079800d1
:103aa0007107980092023700124b8000234b800070
:103ab00062079800730798008d023700304b800032
:103ac000414b80006007980071079800880237001a
:103ad000524b8000634b8000620798007307980088
:103ae00083023700704b8000814b80006007980094
:103af000710798007e023700924b8000a34b800034
:103b0000620798007307980079023700b04b800075
:103b1000c14b80006007980071079800740237005d
:103b2000d24b8000e34b8000620798007307980037
:103b30006f023700f04b8000014c80006007980056
:103b4000710798006a023700124c8000234c8000f5
:103b5000620798007307980065023700304c8000b8
:103b6000414c8000600798007107980060023700a0
:103b7000524c8000634c80006207980073079800e5
:103b80005b023700704c8000814c80006007980019
:103b90007107980056023700924c8000a34c8000b9
:103ba000620798007307980051023700b04c8000fc
:103bb000c14c800060079800710798004c023700e4
:103bc000d24c8000e34c8000620798007307980095
:103bd00047023700f04c8000014d800060079800dc
:103be0007107980042023700124d8000234d80007b
:103bf00062079800730798003d023700304d80003f
:103c0000414d800060079800710798003802370026
:103c1000524d8000634d8000620798007307980042
:103c200033023700704d8000814d8000600798009e
:103c3000710798002e023700924d8000a34d80003e
:103c4000620798007307980029023700b04d800082
:103c5000c14d80006007980071079800240237006a
:103c6000d24d8000e34d80006207980073079800f2
:103c70001f023700f04d8000014e80006007980061
:103c8000710798001a023700124e8000234e800000
:103c9000620798007307980015023700304e8000c5
:103ca000414e8000600798007107980010023700ad
:103cb000524e8000634e80006207980073079800a0
:103cc0000b023700704e8000814e80006007980024
:103cd0007107980006023700924e8000a34e8000c4
:103ce000620798007307980001023700b04e800009
:103cf000c14e80006007980071079800fc013700f2
:103d0000d24e8000e34e800062079800730798004f
:103d1000f7013700f04e8000014f800060079800e7
:103d200071079800f2013700124f8000234f800086
:103d30006207980073079800ed013700304f80004c
:103d4000414f80006007980071079800e801370034
:103d5000524f8000634f80006207980073079800fd
:103d6000e3013700704f8000814f800060079800aa
:103d700071079800de013700924f8000a34f80004a
:103d80006207980073079800d9013700b04f800090
:103d9000c14f80006007980071079800d401370078
:103da000d24f8000e34f80006207980073079800ad
:103db000cf013700f04f800001508000600798006d
:103dc00071079800ca01370012508000235080000c
:103dd0006207980073079800c501370030508000d3
:103de000415080006007980071079800c0013700bb
:103df000525080006350800062079800730798005b
:103e0000bb0137007050800081508000600798002f
:103e100071079800b601370092508000a3508000cf
:103e20006207980073079800b1013700b050800016
:103e3000c15080006007980071079800ac013700fe
:103e4000d2508000e350800062079800730798000a
:103e5000a7013700f05080000151800060079800f2
:103e600071079800a2013700125180002351800091
:103e700062079800730798009d0137003051800059
:103e80004151800060079800710798009801370041
:103e900052518000635180006207980073079800b8
:103ea00093013700705180008151800060079800b5
:103eb000710798008e01370092518000a351800055
:103ec000620798007307980089013700b05180009d
:103ed000c151800060079800710798008401370085
:103ee000d2518000e3518000620798007307980068
:103ef0007f013700f0518000015280006007980078
:103f0000710798007a013700125280002352800016
:103f100062079800730798007501370030528000df
:103f200041528000600798007107980070013700c7
:103f30005252800063528000620798007307980015
:103f40006b0137007052800081528000600798003a
:103f5000710798006601370092528000a3528000da
:103f6000620798007307980061013700b052800023
:103f7000c152800060079800710798005c0137000b
:103f8000d2528000e35280006207980073079800c5
:103f900057013700f05280000153800060079800fd
:103fa000710798005201370012538000235380009c
:103fb00062079800730798004d0137003053800066
:103fc000415380006007980071079800480137004e
:103fd0005253800063538000620798007307980073
:103fe00043013700705380008153800060079800c0
:103ff000710798003e01370092538000a353800060
:10400000620798007307980039013700b0538000a9
:10401000c153800060079800710798003401370091
:10402000d2538000e3538000620798007307980022
:104030002f013700f0538000015480006007980082
:10404000710798002a013700125480002354800021
:1040500062079800730798002501370030548000ec
:1040600041548000600798007107980020013700d4
:1040700052548000635480006207980073079800d0
:104080001b01370070548000815480006007980045
:10409000710798001601370092548000a3548000e5
:1040a000620798007307980011013700b054800030
:1040b000c154800060079800710798000c01370018
:1040c000d2548000e3548000620798007307980080
:1040d00007013700f0548000015580006007980008
:1040e00071079800020137001255800023558000a7
:1040f0006207980073079800fd0037003055800074
:10410000415580006007980071079800f80037005b
:10411000525580006355800062079800730798002d
:10412000f3003700705580008155800060079800cb
:1041300071079800ee00370092558000a35580006b
:104140006207980073079800e9003700b0558000b7
:10415000c15580006007980071079800e40037009f
:10416000d2558000e35580006207980073079800dd
:10417000df003700f055800001568000600798008e
:1041800071079800da00370012568000235680002d
:104190006207980073079800d500370030568000fa
:1041a000415680006007980071079800d0003700e2
:1041b000525680006356800062079800730798008b
:1041c000cb00370070568000815680006007980051
:1041d00071079800c600370092568000a3568000f1
:1041e0006207980073079800c1003700b05680003e
:1041f000c15680006007980071079800bc00370026
:10420000d2568000e356800062079800730798003a
:10421000b7003700f0568000015780006007980013
:1042200071079800b20037001257800023578000b2
:104230006207980073079800ad0037003057800080
:10424000415780006007980071079800a800370068
:1042500052578000635780006207980073079800e8
:10426000a3003700705780008157800060079800d6
:10427000710798009e00370092578000a357800076
:10428000620798007307980099003700b0578000c4
:10429000c1578000600798007107980094003700ac
:1042a000d2578000e3578000620798007307980098
:1042b0008f003700f0578000015880006007980099
:1042c000710798008a003700125880002358800038
:1042d0006207980073079800850037003058800007
:1042e00041588000600798007107980080003700ef
:1042f0005258800063588000620798007307980046
:104300007b0037007058800081588000600798005b
:10431000710798007600370092588000a3588000fb
:10432000620798007307980071003700b05880004a
:10433000c158800060079800710798006c00370032
:10434000d2588000e35880006207980073079800f5
:1043500067003700f058800001598000600798001e
:1043600071079800620037001259800023598000bd
:1043700062079800730798005d003700305980008d
:104380004159800060079800710798005800370075
:1043900052598000635980006207980073079800a3
:1043a00053003700705980008159800060079800e1
:1043b000710798004e00370092598000a359800081
:1043c000620798007307980049003700b0598000d1
:1043d000c1598000600798007107980044003700b9
:1043e000d2598000e3598000620798007307980053
:1043f0003f003700f0598000015a800060079800a4
:10440000710798003a003700125a8000235a800042
:10441000620798007307980035003700305a800013
:10442000415a8000600798007107980030003700fb
:104430004acbbf000000fb00cf80de0038f0070051
:104440006007980071079800290037004bcbbf0028
:104450000000fb00cf80de0031f00700600798000d
:1044600071079800220037004ccbbf000000fb0012
:10447000cf80de002af007006007980071079800df
:104480001b0037004dcbbf000000fb00cf80de00db
:1044900023f00700600798007107980014003700a8
:1044a0004ecbbf000000fb00cf80de001cf00700f9
:1044b00060079800710798000d0037004fcbbf00d0
:1044c0000000fb00cf80de0015f0070060079800b9
:1044d000710798000600370050cbbf000000fb00ba
:1044e000cf80de000ef0070060079800710798008b
:1044f0006e009000fe009000980107000400370055
:10450000180007000200370090c4b300005798005d
:104510001e08900010007800ea0f50000e003200d4
:104520001e08900010007800eb0f50000a003200c7
:104530001e08900010007800ec0f500006003200ba
:104540001e08900010007800ed0f500002003200ad
:104550000e509000720107004f0478000080fa00ae
:10456000000006000200fa0010002000000f780092
:104570001e01e9001e007800110009000200d800a9
:104580000080fa00000006001000fa000001200080
:10459000000f78006000b80010079800210798000d
:1045a0000040eb006047980010c0b30070479800cf
:1045b000a0cab300004f98000e00780090100700ca
:1045c0000080fa00000006001000fa00b001200090
:1045d000000f78006000b8001007980021079800cd
:1045e0000040eb006047980010c0b300704798008f
:1045f0004dcbbf00004f98000e00780080100700e0
:104600000080fa00000006001000fa00b00120004f
:10461000000f78006000b80010079800210798008c
:104620000040eb006047980010c0b300704798004e
:1046300020c0b300004f98000e00780070100700f3
:104640000080fa00000006001000fa00900120002f
:10465000000f78006000b80010079800210798004c
:104660000040eb006047980010c0b300704798000e
:1046700010c0b300004f98000e00780060100700d3
:104680000080fa00000006001600fa00c043800017
:10469000d143800002002000a34724000df0070052
:1046a00040f0070020079800e0438000f1438000bd
:1046b00002002000a347240006f0070039f007009d
:1046c0001007980020438000314380000200200042
:1046d000a3472400ffef070032f00700000f780027
:1046e000e6004700a001200080087800660147002e
:1046f0006000b8001001980021019800e600470012
:104700000040eb00e0409800e600470060c0b300c6
:10471000f04098002e0090008040780000c0eb0030
:1047200080c0600066004700014898002e0090009d
:104730004880de008040780000c0eb0080c0600050
:1047400066004700114898001e00900080407800e5
:1047500000c0eb0080c06000660047002148980060
:104760001e0090004880de008040780000c0eb0012
:1047700080c0600066004700314898001e00780045
:104780008040780000c0eb0080c0600066004700f9
:10479000414898001e0078004880de008040780084
:1047a00000c0eb0080c060006600470051489800e0
:1047b00066004700121007000080fa0000000600a3
:1047c0001c00fa00005f98000e5890000000fb00eb
:1047d000500f980040042000de089000808f5000a9
:1047e0004e00320040042000de089000808f500010
:1047f00005003c0010042000de089000808f50006f
:10480000280032008100370070042000de0890008c
:10481000808f50005f003200c0042000de0890004e
:10482000808f50000100320078003700a0428000e5
:10483000b142800002002000a3472400a5ef07003a
:10484000d8ef07003007980090448000a144800012
:1048500002002000a34724009eef0700d1ef0700cd
:104860002007980040438000514380000200200050
:10487000a347240097ef0700caef0700100798002e
:10488000904e8000a14e800002002000030824000a
:104890004eef0700c3ef07000000fb00000f780099
:1048a00060003700004380001143800002002000b8
:1048b000a347240087ef0700baef070030079800ee
:1048c000a0458000b145800002002000a3472400dd
:1048d00080ef0700b3ef07002007980060438000d7
:1048e0007143800002002000a347240079ef0700f5
:1048f000acef070010079800b0508000c150800056
:10490000020020000308240030ef0700a5ef070095
:104910000000fb00000f780042003700c04280001a
:10492000d142800002002000a347240069ef070065
:104930009cef070030079800b0468000c146800019
:1049400002002000a347240062ef070095ef070054
:1049500020079800804380009143800002002000df
:10496000a34724005bef07008eef070010079800b5
:10497000904e8000a14e8000020020000308240019
:1049800012ef070087ef07000000fb00000f780020
:1049900024003700e0428000f14280000200200045
:1049a000a34724004bef07007eef07003007980075
:1049b000c0478000d147800002002000a3472400a8
:1049c00044ef070077ef070020079800a04380001e
:1049d000b143800002002000a34724003def070000
:1049e00070ef070010079800904e8000a14e8000e5
:1049f0000200200003082400f4ee070069ef07001e
:104a00000000fb00000f7800060037000000eb00fc
:104a1000300798000000eb00200798000000eb0032
:104a200010079800e8004700c001200080087800c7
:104a3000680147006000b80010019800210198004b
:104a4000e80047000040eb00e0409800e800470025
:104a500080c0b300f04098008e5890006800470076
:104a6000014898003e0090008040780000c0eb00b4
:104a700080c0600068004700114898003e00900028
:104a80004880de008040780000c0eb0080c06000fd
:104a900068004700214898002e0090008040780070
:104aa00000c0eb0080c060006800470031489800fb
:104ab0002e0090004880de008040780000c0eb00af
:104ac00080c0600068004700414898001e009000c8
:104ad0008040780000c0eb0080c0600068004700a4
:104ae000514898001e0090004880de008040780009
:104af00000c0eb0080c0600068004700614898007b
:104b00001e007800804078006800470071489800d7
:104b1000680047003a0f07000080fa000000060016
:104b20001200fa000057980010012000000f7800d2
:104b30006000b80010079800210798000040eb00c3
:104b40006047980010c0b300704798000e50900066
:104b5000004f98000080fa00000006001400fa00e0
:104b6000000f9800110f9800d0012000000f78006e
:104b70006000b80010079800210798000040eb0083
:104b80006047980040c0b300704798006801470034
:104b90008001eb000e0890009e089000ccf2070008
:104ba0000e007800160f07000080fa0000000600d3
:104bb0000800fa00008fbe006011b8001e00be00a1
:104bc00077ef07000000e00001003d00040037001f
:104bd0001e00be002007980031079800050037002e
:104be0001e00be000001be0003f0a20022079800d4
:104bf000330798002e009000be0090000080fa005d
:104c0000000006000800fa0020079800310798000d
:104c1000b2fd2000930c24002e009000be009000f6
:104c200061ef0700008fbe00b2fd20009304240056
:104c30001e00be005aef07000000e00001003c002b
:104c4000050037001e00be00b2fd2000930c2400ba
:104c5000f5ee0700008fbe00b2fd200093042c008b
:104c60001e00be0052ef07000000e000010034000b
:104c7000050037001e00be00b2fd2000930c24008a
:104c8000eaee0700008fbe001e00be000080fa00a2
:104c9000000006000c00fa00008fbe0022079800fa
:104ca000330798002e009000be00900001f0a20093
:104cb0000041eb00324f98001e01be003cef0700a0
:104cc0000000e000010035000200370010c0b30012
:104cd000304f98003e4890000004a2000004e0001d
:104ce00012003a000041eb00224f98002e01900084
:104cf000be0190001e00be002def07000000e00086
:104d0000010035000200370010c0b300204f9800aa
:104d10002e4890000004a2000004e00003003a00c6
:104d20001200200042079800020037000000eb004c
:104d3000400798004e0090000080fa000000060036
:104d40000c00fa00008fbe0022079800330798007d
:104d50002e019000be0190001e00be0010ef070063
:104d60000000e00001003c00050037002e0090002c
:104d7000be009000400798005107980012003700cd
:104d80002e009000be00900001f0a2001e01be00a7
:104d900003ef07000000e00001003c0007003700bf
:104da0002e009000be0090000001be0003f0a200a3
:104db0004207980053079800030037001e00be000a
:104dc00040079800510798004e009000de009000c8
:104dd0000080fa00000006001600fa00889fbe005e
:104de0008a9fbe008c9fbe00000f9800110f980094
:104df000220f9800ec00470068004700d618070013
:104e00004e009000de00900002002000a347240026
:104e100030ee070063ee0700614060006140600013
:104e200061406000614060004501dd00c12c200050
:104e300091407800f0cdb30000c0600002407000e7
:104e4000cce2b7006e009000fe009000020020004f
:104e5000a34724001fee070052ee070061406000e8
:104e60006140600061406000614060004601dd001b
:104e7000c12c200091407800f0cbb30000c060004e
:104e800002407000cce2b7004e009000de009000bf
:104e90006e019000fe01900063ee07000002be006c
:104ea0001e0890001001be000400be00c7ed070000
:104eb00020079800310798002e009000be00900057
:104ec00050ff0700008fbe004e029000de029000ef
:104ed0000e08900020019000b00190000400be0078
:104ee00051ee07000002be002e0890006001900005
:104ef000f00190000400be00b4ed07000e09900020
:104f000060099800710998006e029000fe029000fe
:104f10000e08900040019000d00190000400be00f7
:104f200041ee07000002be002e08900060019000d4
:104f3000f00190000400be00a4ed07000e099000ef
:104f400000119800111198000e0890006001900067
:104f5000f00190002e009000be00900032ee07009d
:104f60000002be002e08900060019000f001900049
:104f70000400be0095ed07000e099000400998005e
:104f8000510998000e089000600a9000f00a900005
:104f90000e08900000119000901190000400be00d7
:104fa00022ee0700020020000300240087ed070026
:104fb0000e09900020099800310998000e08900011
:104fc000d0089000400890006011b8007aee070009
:104fd0000000e00001003a00410037000e08900098
:104fe00020169000b01690000e089000200a900045
:104ff000b00a90000e08900040099000d00990007f
:105000000400be0071ed07000005be002e009000f8
:10501000be0090006aee07000004be000e0890007b
:10502000f00090006000900065ee07000001be00f7
:105030000800be00fced07000001be000a00be0033
:10504000a4ed07000001be000c00be00f7ed070054
:105050000e09900020119800311198000e08900060
:1050600040169000d01690000e089000200a900084
:10507000b00a90000e08900040099000d0099000fe
:105080000400be0051ed07000005be002e00900098
:10509000be0090004cee07000004be000e08900019
:1050a000f00090006000900047ee07000001be0095
:1050b0000800be00dced07000001be000a00be00d3
:1050c00084ed07000001be000c00be00d6ed070015
:1050d0000e099000401198005111980032003700dd
:1050e0000e08900020159000b01590000e0890005a
:1050f000200a9000b00a90002e08900060019000f5
:10510000f00190000400be0072ed07000004be0034
:105110000e08900090089000000890002aee07000a
:105120000001be000800be006aed07000001be00dd
:105130000a00be00bded07000e0990002011980086
:10514000311198000e08900040159000d015900085
:105150000e089000200a9000b00a90002e089000df
:1051600060019000f00190000400be0059ed0700be
:105170000004be000e089000900890000008900007
:105180000fee07000001be000800be0051ed070051
:105190000001be000a00be00a4ed07000e09900049
:1051a00040119800511198000e0890002e019000b7
:1051b000be01900062009800730098000e089000f5
:1051c0001e01be0002089800130898004e009000cf
:1051d000de0090000e099000200198003101980037
:1051e0006e009000fe0090000e09900040019800b3
:1051f000510198000e08900020029000b00290002b
:105200000e08900040019000d00190000400be0004
:1052100086ed07000200200003002400ebec0700ed
:105220000e0990000089be004f06be004f05be006b
:105230004f04be000080fa00000006000c00fa00d7
:10524000889fbe00008fbe00220798003307980099
:1052500044079800550798004e0090001000be00cb
:105260004e01900020019800310198001e01be00ff
:105270002e009000be0090006bed07004e019000e4
:105280000089be004e0090001002be004e0090004b
:1052900020019000b00190000400be0062ed070004
:1052a0000002be005e00900000099000900990008e
:1052b0000400be00c5ec07004e019000600198009c
:1052c000710198004e00900040049000d0049000be
:1052d0004e0090001002be004e0090002001900091
:1052e000b00190000400be0050ed07000200200055
:1052f00003002400b5ec07000002be005e00900031
:1053000000099000900990000400be00f1ec070035
:105310000001be000800be0044ed07004e019000f1
:1053200040019800510198004e009000600a9000e2
:10533000f00a90004e0090001001be000400be0074
:10534000e4ec07004e019000000998001109980054
:105350004e00900000129000901290004e009000bd
:1053600040019000d00190000400be00d9ec07007d
:105370004e01900020099800310998004e009000dd
:1053800020129000b01290004e009000600190003a
:10539000f00190000400be00ceec07004e0190002a
:1053a00040099800510998004e009000000a9000b2
:1053b000900a90004e00900040099000d0099000a3
:1053c0000400be0019ed07000002be004e00900070
:1053d00020099000b00990000400be0013ed070002
:1053e0004e01900000219800112198004f04be004a
:1053f0000080fa00000006001600fa00889fbe0038
:105400008a9fbe00000f78001107980022079800bd
:1054100033079800440798005507980066079800de
:105420001e007800006090000000fb006101b900e0
:10543000120f9800230f9800100120000100200097
:105440001e099000ae099000800f5100818f590015
:1054500077043e001e089000ae0890000060010036
:10546000110037001f0037003100370044003700bb
:1054700079003700c400370061013700410237006e
:10548000cd023700e2023700f702370095033700fc
:10549000c3033700f10337000a0437003104370033
:1054a00063043700460437009e007800f0c0b30064
:1054b000e06098001e0090001000be002e019000d9
:1054c00020019800310198001e009000f00090002b
:1054d000600090003e01900020019800310198008a
:1054e000640437009e007800f0c0b300e0609800cc
:1054f0001e0090001002be001e0078001001be00c9
:105500000400be00c9ec07002e01900020019800a5
:10551000310198001e009000f000900060009000a3
:105520003e0190002001980031019800510437009d
:105530009e007800f0c0b300e06098001e0090006c
:105540001000be002e01900020019800310198004b
:105550001e00900060029000f00290001e00780093
:1055600020019000b00190000400be00afec0700e5
:105570003e01900020019800310198003d04370061
:105580009e007800f0c0b300e06098001e0090001c
:105590001000be002e0190002001980031019800fb
:1055a0001e007800106090000004e000130032003c
:1055b0001e00900060049000f00490001e0078002f
:1055c00020029000b00290001e00900000099000a0
:1055d000900990000400be0093ec070089fd0700cd
:1055e0000001be000800be0090ec07003e019000e4
:1055f00020019800310198001e0437001e00900021
:1056000060049000f00490001e007800b00090004c
:1056100020009000b2fd20009304240083ec0700da
:105620000002be001e00900000099000900990004a
:105630000400be007cec070072fd07000001be0004
:105640000800be0079ec07003e01900020019800a0
:1056500031019800070437009e007800f0c0b300c5
:10566000e06098001e0090001000be002e01900027
:1056700020019800310198001e007800000a900077
:10568000900a90001e00900020119000b011900030
:105690000400be0064ec07000004be001e00780099
:1056a000200a9000b00a90001e0090004011900067
:1056b000d01190000400be005bec07000801be00a2
:1056c000c3ec07001e01780020019800310198000a
:1056d0001e007800106090000004e000130032000b
:1056e0001e00900060049000f00490001e007800fe
:1056f00020029000b00290001e009000000990006f
:10570000900990000400be0047ec07003dfd070033
:105710000001be000800be0044ec07003e019000fe
:105720002001980031019800d20337001e0090003c
:1057300060049000f00490001e007800b00090001b
:1057400020009000b2fd20009304240037ec0700f5
:105750000002be001e009000000990009009900019
:105760000400be0030ec070026fd07000001be006b
:105770000800be002dec07003e01900020019800bb
:1057800031019800bb0337009e007800f0c0b300e1
:10579000e06098001e007800206090000000fb0090
:1057a000000f98008e0890000100e0000400320015
:1057b0000e099000e10f51004a003200ad0337009e
:1057c0001e0090001000be002e01900020019800e5
:1057d000310198001e007800000a9000900a9000a5
:1057e0001e00900020119000b01190000400be0037
:1057f0000dec07000004be001e007800200a900097
:10580000b00a90001e00900040119000d01190004e
:105810000400be0004ec07000801be006cec0700a9
:105820001e01780020019800310198001e007800c8
:10583000106090000004e000130032001e00900091
:1058400060049000f00490001e0078002002900098
:10585000b00290001e009000000990009009900096
:105860000400be00f0eb0700e6fc07000001be00ec
:105870000800be00edeb07003e01900020019800fb
:10588000310198007b0337001e00900060049000f7
:10589000f00490001e007800b000900020009000fe
:1058a000b2fd200093042400e0eb07000002be00dc
:1058b0001e00900000099000900990000400be00b6
:1058c000d9eb0700cffc07000001be000800be00b6
:1058d000d6eb07003e0190002001980031019800ae
:1058e000640337001e007800200a9000b00a900080
:1058f0001e00900040119000d01190000400be00e6
:10590000c9eb07000004be001e007800200a9000ca
:10591000b00a90001e00900040119000d01190003d
:105920000400be00c0eb07000001be000800be007e
:1059300068eb07000005be001e007800000a90001a
:10594000900a90001e00900020119000b01190006d
:105950000400be00b4eb07000004be001e00780087
:10596000000a9000900a90001e0090002011900004
:10597000b01190000400be00abeb07000001be00b8
:105980000800be0053eb07000001be000a00be0085
:10599000a6eb07002bec07001e0178000089be0073
:1059a0001e007800106090000004e0000a00320041
:1059b0001e0090001002be001e0078001001be0004
:1059c0000400be0099eb07002e0190002001980012
:1059d00031019800270337001e0090001002be001e
:1059e0001e0078001001be000400be008eeb070010
:1059f0002e01900020019800310198001d0337000e
:105a00009e007800f0c0b300e06098001e007800af
:105a1000206090000000fb0070079800fe019000dd
:105a20000300e000040032007e009000e10f50000f
:105a30004a0032000f0337001e0090001000be0025
:105a40002e01900020019800310198001e0078007e
:105a5000000a9000900a90001e0090002011900013
:105a6000b01190000400be006feb07000004be0000
:105a70001e007800200a9000b00a90001e009000de
:105a800040119000d01190000400be0066eb0700aa
