:020000040000fa
:080000000002040000000000f2
:020000040000fa
:100400008fe82000805f24000001880000000000c9
:10041000050007000c000700003202000000000089
:100420000040da000000fe004440a9000000200067
:100430000000e0000300320000002000a00188005e
:100440004440a80000000600c09d240001002000d8
:100450001600370062004000e080480091018800eb
:100460009001ba0062004000e080480091018800dd
:100470009002ba0062004000e08048000002eb00f9
:100480006028e10005003a008301e900070033001d
:10049000038009000059eb00040037006128e100e7
:1004a000010032000082eb00050007009101880086
:1004b0001001ba000200e000e6ff3a00000005006b
:1004c000910188008002780062004000e0804800ce
:1004d0003559ba008301e900080032002559ba00f5
:1004e0008301e900050032000400e000f4ff32005f
:1004f00015d9ba008301e900f1ff3a0000000600b7
:10050000889fbe008a9fbe00010578000100e000c0
:100510000400350008003c000000e000200032002c
:100520000500370060001000e080180002003b006a
:1005300001f02c001a0037000004be006011b80062
:100540006b0920000982cf00020039000882cf0029
:100550000441b000694252000e00320008003b0026
:1005600082817100610164008904d1000884d30094
:100570008b05e8000442e800f9ff3a000500370067
:100580000804440089844c008b05e9000442e9001a
:10059000fbff3a006f0107000af0a70001f0a0007e
:1005a0004f05be004f04be0000000600889fbe003d
:1005b0008a9fbe008c1f78008c01070093013300d6
:1005c00003866c006450e1002e0032006420e100dc
:1005d000330032006150e1002f0032006120e10061
:1005e0003100320085855500eb07b000090020007e
:1005f00008042000050037000804440089844c00ea
:100600000a0031000603430087834b0000015300ba
:1006100081815b00f8ff33000203be000800a000e8
:100620000804440089844c00f6ff3900c639dd0017
:100630008301730001003200130020008904d100ff
:100640000884d3000998a300050032000800a70021
:100650000300a0008904d1000884d3008b05e800c2
:100660008904d1000884d3000001eb000281d2008c
:100670003801070001f0a1000cf0a70001f0a00074
:100680006b0137006420e1006d0132000801be00fb
:100690000200be00f7ff37006120e1006801320070
:1006a0006000b800f3ff37000000200001f82700c9
:1006b000f0ff3700889fbe008a9fbe008c1f780025
:1006c0004a0107005101330003866c006450e100c9
:1006d000240032006420e100270032006150e10074
:1006e000220032006120e100210032008b854200af
:1006f000eb07b1000134b800003ab800080442002a
:1007000089844a00013ab8000030b800888040006f
:1007100009014a00040033000000400081804800c5
:10072000020149008b05e900c909dd008301700061
:100730000100320013002000c814de004814dd0060
:100740004709de001200b200c808de00088470000d
:100750000001070001f0a1000cf0a70001f0a000cb
:10076000330137006120e100350132000801be008d
:100770000200be00f7ff37006150e100fcff3a00c5
:100780002f01370003f0a200889fbe008a9fbe00a1
:100790008c1f7800150107001c0133006450e10034
:1007a0004f0032006420e1005200320003826c00ee
:1007b00007003b000905d0000306d000820f54005b
:1007c0000c065d0002003900020032008901780049
:1007d000030678008582550004003d000003fd00fb
:1007e0008103fd008502ea008b854200840f7200c0
:1007f00002003b0060001000e08018006011b800ab
:100800000005eb007a28e1000a00390006007800b4
:10081000c75ddd00f707b200878075002d00370047
:10082000828171000a017800610560008180d10039
:100830000080d3008502e900f9ff3b000604400078
:100840008784480002003b0060041400e0841c0020
:100850000988a300070032008a817100828171003b
:10086000610164008904d1000884d3008b05e8008d
:10087000170037000978a30013003a000b00e000ce
:10088000130034008b05e9000804440089844c00ff
:100890000a4474000978a3000d003a000b00e00040
:1008a000070034008b05e9000804440089844c00eb
:1008b00001003a000b0020000978a300f7ff320086
:1008c0000001eb0002003700828171000a0178000c
:1008d000a00007000cf0a70001f0a000d400370032
:1008e0006420e10002003a00838f6c00d4003300e2
:1008f0000801be000200be00cd003700f4ff2f004b
:10090000d20037000001be00eb0007000470a70012
:1009100003f0a1006509b100160032000d0035009a
:100920006828e10006003500f0ff2f00f1ff2700e6
:100930000300e00013003b00010028000000050058
:1009400000004000818048008502e900fcff3a0079
:1009500008003700f88f420002003c008000eb00e6
:10096000000005008100d1000080d3008502e8006e
:10097000fcff3a000300e00002003b0060001000b2
:10098000e08018000000060014002000af003700cf
:100990000081eb00dd0037000001eb00db003700d9
:1009a000889fbe008a9fbe008c1f78008f000700c2
:1009b0001002200002003b003074880093003700d2
:1009c0008a0062006408e10002003a003074880086
:1009d0009b0037006108e100fcff32000800be0008
:1009e00003047800f1fe070001f0a10030010700c8
:1009f00008f0a600040037000001be0091042400a6
:100a0000b0fd20005fff070009f0a70001f0a20081
:100a100087003700889fbe008a9fbe008c1f780029
:100a20000004be00a40007000478a30026003a00da
:100a30006120e1002500320009f8a30025003a00fa
:100a40006420e10021003200f507b1000508a30091
:100a50000200320000004000818048006044b8007d
:100a600003102000020020000000400081804800a8
:100a70000805440089854c000a0541008b85490022
:100a80000a0550008b855800030033000a00be00a1
:100a900002047400838474008301d1000281d300b6
:100aa000830f7100f0ff3a008904d1000884d3005d
:100ab0006001490082017800c1adde00fb07b00093
:100ac000240007005a0037000960a0000800be009b
:100ad000570037001202200032748800f0ff2f0008
:100ae000f1ff2700520037000001be00720007002e
:100af0000470a70003f0a10003f8a30013003a005c
:100b00006509b10010003200090035006928e100d4
:100b10000200350001002800000005000000400030
:100b2000818048008502e900fcff3a0000000600d1
:100b3000f88f4200050035008100d1000080d3000d
:100b40008502e800fcff3a00000006008000eb0090
:100b50000000050081002000618055000b003d0071
:100b60000b00200061fe2f000100e1001d00340099
:100b700082817100610164008904d1000884d3007e
:100b80000000e800faff3a007100200061006400f4
:100b9000030070000200600009003200610444009c
:100ba000e0844c000988a500050032008b05e800b0
:100bb0006808e10002003a008904d1000884d300eb
:100bc000f20f20000258e10005003d00c75ddd0086
:100bd000f907b2008980750008007800000006005f
:100be0000bf827008b007800000005000004be0011
:100bf000310007000003be000405be000200be0075
:100c00002d000700844f7500000006000200be00a2
:100c10006450e100050036006420e1000200360067
:100c20000968a30001003a000800be000160a000ae
:100c30004f0678004f05be004f04be0000000600be
:100c4000f0ff2f00f1ff2700f9ff3700889fbe005b
:100c50008a9fbe00841f7800e4ff07004f007800e1
:100c600011003300f0ff2f00838f6c0006003b0063
:100c7000040565000a00a7000800370009f0a60077
:100c80001000200008003700820f5400838f5c00a2
:100c9000030039001000200001003e000000200089
:100ca00009f0a7000000ea004f05be004f04be0097
:100cb0000000e00000000600c70ade00f107b200f5
:100cc000f50fb20008003200e1cf4200020032000e
:100cd0000170a00024000500810f700001003200a7
:100ce0000408050044000500810f700002003a006e
:100cf000140005008502e9000000400081c04800a2
:100d0000fcff3b000170a00024000500889fbe008e
:100d10008a9fbe008c9fbe00820578000004be0042
:100d2000e5ff07000800be006420e100070039006d
:100d300002003a00f1ff2700f0ff2f000160a00041
:100d40001202200032748800550037006120e10053
:100d500003003a000b00a70001f823005000370001
:100d600001f0a100020021009364240006ff0700a7
:100d70000800be0004003500b2fd2000930c2400e2
:100d8000b00007000004be000005eb000b00a60049
:100d90004f0dde0001f0a1000004be0032982f00cc
:100da00023ea230043fe07000001eb0003f02300c9
:100db0000b00a70003f8230073fe0700d1fe070015
:100dc0000000a7000a00a200cdfd07000b00e00014
:100dd000030032000200200003f0230069fe070038
:100de00001f0a2000006be000200200093042400cf
:100df00030fe07000801be0063fe0700809fbe00b2
:100e00000c00be0022a22a00d3a7230029fe07005f
:100e10004f01be005cfe07000004be0001f0a1000f
:100e20000200200003982300d7fe07000800be0040
:100e3000190035000001be001efe07000006be00be
:100e4000b2c52900e36223001afe070022222b000c
:100e5000f3942b004cfe07000c01be0015fe0700aa
:100e6000e273280083c0230047fe07000c01be0088
:100e700010fe070042aa2a00a3e22b0042fe070050
:100e80000c01be000bfe07000801be0009fe0700b2
:100e90000801be003cfe07000a00a70001f0a20006
:100ea0004f06be004f05be004f04be000000060006
:100eb000889fbe008a9fbe008c9fbe000004be00bb
:100ec0007dff07000800be00890678006420e1006d
:100ed00008003900040032000160a0001202200066
:100ee000327488005300370091fc2300b0fd2000cd
:100ef0004e0037000006eb0009f0a10003f82300c4
:100f0000020020000800be009ffe0700060034001b
:100f100001f82300000020000801be00a3fd070027
:100f20000004be002c0020000800be0093e823004f
:100f3000320a230094fe0700120034000801be00ac
:100f4000d1fd2300703d2b000ffe07000005be0001
:100f5000b3f32300f27a26000800be00d5fd070097
:100f600003f823000200200006fe07000801be006f
:100f700005fe07000a01be008cfd07000004be004c
:100f80000c06e8000800be0001f0a10002002000ed
:100f9000039823007cfe07000800be001600350001
:100fa0000801be00c3fd07000005be0032cd2c00c5
:100fb00043fb2300f4fd0700809fbe001269280058
:100fc00003d52b000a00be00bafd0700620f210006
:100fd00013ef2b00ecfd07000a01be00b5fd070072
:100fe0004f01be0071fd07000801be00b1fd070002
:100ff0000801be00e4fd07000c00e0000b00320019
:101000000c10a70001f0a200b2fd200093fc230009
:101010006260e1000400320022a9200063f0230096
:101020000c10a70063f82300d7fd07000df0a70000
:1010300001f0a2004f06be004f05be004f04be00e7
:10104000000006000400200000003700889fbe005a
:101050008a9fbe008c1f78004f26dd00e3fe07004c
:10106000eafe33006120e100430032006250e100fb
:1010700041003e003e0039006420e1003c003200a7
:10108000058255000f003b000402e80038003a00da
:10109000800f5300818f5b00350034000800be00d4
:1010a00003f0a10001f0a60003f0a0000cf0a700df
:1010b000b5fd0700defe37000603430087834b00c3
:1010c0000c4646000005530081855b00020033009a
:1010d0000a03be000c00a0000402e900f6ff3b007a
:1010e000850578000602430087824b0004003a0021
:1010f0006000b80009f0a70001f0a000ccfe3700a6
:101100000002520081825a000704e000040033000c
:101110000603430087834b008b05e900faff370085
:10112000090578000604be000203be006011b80085
:1011300088fe0700e00f5200e08f5a0007003500dc
:1011400002003c000c08a300040032000601be00af
:1011500003f0a0000cf0a7008bfd07000a856800d3
:1011600001f0a1000af0a70001f0a000b0fe3700d6
:101170000800be00aefe3700100220000cf0a600f2
:1011800030748800aefe37000a00fa00889fbe0067
:101190008a9fbe00000f78001e00780010007800c3
:1011a0006f0060000000e0000d003a001e007800b3
:1011b00070409000e14f500007003a001e00780098
:1011c0008048900050c5b30080cf500002003a0024
:1011d000400707003b07370095080700390737002d
:1011e0001e007800100078006f006000e20f5000d1
:1011f000340732001e007800100078006f00600095
:10120000ef0f500002003a00790807002d07370061
:101210001e007800100078006f006000e50f50009d
:1012200002003a006b070700260737001e0078000f
:10123000100078006f006000e60f500002003a00d6
:10124000340707001f0737001e00780010007800e1
:101250006f006000ea0f50008a003a001e0078001c
:1012600070409000e64f500084003a006000b800e3
:10127000051d07006000b8000a1d070080e320007c
:10128000801f780040df2000801f780000db2000f6
:10129000801f7800c0d62000801f780080d22000f8
:1012a000801f7800a0bf2000801f7800c0bd2000f4
:1012b000801f780040ce2000801f780007ca2000e1
:1012c000c6c5200085c1200024b72000e3bb200054
:1012d00002ba2000a1b3200020b220005d15070053
:1012e000f08757001e007800004890008080fb00c7
:1012f0001e007800104890000080fb004800dd00d0
:1013000000804000cf80de007dfc0700020020004e
:10131000a3472400a5fc0700b05c8800c15c8800de
:101320001e007800204890008080fb001e0078009e
:10133000304890000080fb004800dd000080400045
:10134000cf80de006efc070002002000a3472400cf
:1013500096fc0700d05c8800e15c88009c1c0700bc
:101360000005be00d0598000e15980000004be0095
:101370001e007800404890008080fb001e0078002e
:10138000504890000080fb004800dd0000804000d5
:10139000cf80de005afc070002002000a347240093
:1013a00082fc07000001be000800be00c1fc07006f
:1013b0000200200003002c007cfc07000001be009e
:1013c0000a00be00f0fc0700af1c0700971c0700d6
:1013d0000005be00d0598000e15980000004be0025
:1013e0001e007800404890008080fb001e007800be
:1013f000504890000080fb004800dd000080400065
:10140000cf80de003efc070002002000a34724003e
:1014100066fc07000001be000800be00a5fc070036
:101420000200200003002c0060fc07000001be0049
:101430000a00be00d4fc07009a1c07000040eb0025
:1014400058eeb7000040eb005beeb7000040eb0049
:101450005ceeb700a6b32000a5bf2000c4bd2000ed
:10146000e3bb200002ba200021b7200080e3200067
:10147000ce090700de07070092063700ec070700d9
:10148000900637001e007800100078006f006000a2
:10149000eb0f50002f003a001e00780070409000c3
:1014a000e24f500029003a001e007800804890006a
:1014b000c0c4b30080cf500005003a001e00780081
:1014c000104890000080fb00e05d88001d003700a0
:1014d0001e0078008048900010c4b30080cf5000f8
:1014e00005003a001e007800104890000080fb00c4
:1014f000d05e8800130037001e00780080489000fe
:1015000040c4b30080cf500005003a001e007800b0
:10151000104890000080fb00c05f88000900370081
:101520001e0078008048900070c4b30080cf500047
:1015300004003a001e007800104890000080fb0074
:10154000b0608800aa0707005e063700b8070700ea
:101550005c0637001e007800100078006f00600005
:10156000e80f500002003a00a107070055063700b7
:101570001e007800100078006f006000e90f500036
:1015800004003a001e00780000489000df060700c3
:101590004c0637001e007800100078006f006000d5
:1015a000ec0f500005003a001e0078000048900043
:1015b0000080fb00f05c8800420637001e007800c7
:1015c000100078006f006000e70f50003c033a0005
:1015d0001e007800004890000004e00016003a0069
:1015e0001e00780070409000e14f500010003a005b
:1015f0000040eb0058eeb7000040eb005beeb70098
:101600000040eb005ceeb700a6b32000a5bf2000b1
:10161000c4bd2000e3bb200002ba200021b7200097
:1016200080e32000610907007107070025063700e5
:101630007f070700230637001e007800004890004f
:10164000e14f500025003a001e00780070409000e5
:10165000e34f50001f003a001e0078002048900021
:101660000080fb00c800dd001e00780010489000dc
:101670000080fb0000804000cf80de00a0fb070060
:1016800002002000a3472400c8fb0700c0718800a7
:10169000d171880010c0b30058eeb7000040eb00d5
:1016a0005beeb7000040eb005ceeb700a6b3200095
:1016b000a5bf2000c4bd2000e3bb200002ba20006b
:1016c00021b7200080e32000380907004807070001
:1016d000fc05370056070700fa0537001e007800a2
:1016e00000489000e24f500025003a001e007800ac
:1016f00070409000e34f50001f003a001e00780039
:10170000204890000080fb00c800dd001e0078002b
:10171000104890000080fb0000804000cf80de0079
:1017200077fb070002002000a34724009ffb07006f
:10173000e0718800f171880020c0b30058eeb70056
:101740000040eb005beeb7000040eb005ceeb70042
:10175000a6b32000a5bf2000c4bd2000e3bb20002d
:1017600002ba200021b7200080e320000f09070003
:101770001f070700d30537002d070700d1053700e5
:101780001e00780000489000e34f500028003a0007
:101790001e00780070409000e44f500022003a0094
:1017a0001e007800204890000080fb00c800dd008b
:1017b0001e007800104890000080fb000080400070
:1017c000cf80de004efb070002002000a34724006c
:1017d00076fb0700e0718800f171880030c0b3002b
:1017e00058eeb7001e0078003048900059eeb70060
:1017f0000040eb005beeb7000040eb005ceeb70092
:10180000a6b32000a5bf2000c4bd2000e3bb20007c
:1018100002ba200021b7200080e32000e30807007f
:10182000f3060700a705370001070700a5053700e5
:101830001e00780000489000e44f500037003a0046
:101840001e00780070409000e64f500031003a00d2
:101850001e007800204890000080fb00c800dd00da
:101860001e007800104890000080fb0000804000bf
:10187000cf80de0022fb070002002000a3472400e7
:101880004afb070040728800517288001e007800f1
:10189000404890000080fb00c800dd001e0078007a
:1018a000304890000080fb0000804000cf80de00c8
:1018b00013fb070002002000a34724003bfb0700a6
:1018c000607288007172880040c0b30058eeb700a3
:1018d0001e0078005048900059eeb7000040eb0021
:1018e0005beeb7000040eb005ceeb700a6b3200053
:1018f000a5bf2000c4bd2000e3bb200002ba200029
:1019000021b7200080e32000a8080700b8060700e0
:101910006c053700c60607006a0537001e00780010
:1019200000489000e54f500039003a001e00780052
:1019300070409000e64f500033003a001e007800df
:10194000204890000080fb00c800dd001e007800e9
:10195000104890000080fb0000804000cf80de0037
:10196000e7fa070002002000a34724000ffb07004e
:1019700040728800517288001e0078004048900034
:101980000080fb00c800dd001e0078003048900099
:101990000080fb0000804000cf80de00d8fa070006
:1019a00002002000a347240000fb070060728800ab
:1019b0007172880050c0b30058eeb7001e00780066
:1019c0005048900059eeb7000040eb005beeb700c6
:1019d0000040eb005ceeb7000040eb005aeeb700b1
:1019e000a6b32000a5bf2000c4bd2000e3bb20009b
:1019f00002ba200021b7200080e320006b08070016
:101a00007b0607002f053700890607002d053700e4
:101a10001e00780000489000e64f500039003a0060
:101a20001e00780070409000e64f500033003a00ee
:101a30001e007800204890000080fb00c800dd00f8
:101a40001e007800104890000080fb0000804000dd
:101a5000cf80de00aafa070002002000a34724007e
:101a6000d2fa070040728800517288001e00780088
:101a7000404890000080fb00c800dd001e00780098
:101a8000304890000080fb0000804000cf80de00e6
:101a90009bfa070002002000a3472400c3fa0700b6
:101aa000607288007172880060c0b30058eeb700a1
:101ab0001e0078005048900059eeb7000040eb003f
:101ac0005beeb7000040eb005ceeb7000040eb00bf
:101ad0005aeeb700a6b32000a5bf2000c4bd200069
:101ae000e3bb200002ba200021b7200080e32000e1
:101af0002e0807003e060700f20437004c060700d8
:101b0000f00437001e00780000489000e74f5000b6
:101b100037003a001e00780070409000e64f5000f9
:101b200031003a001e007800204890000080fb0041
:101b3000c800dd001e007800104890000080fb0007
:101b400000804000cf80de006dfa07000200200018
:101b5000a347240095fa070040728800517288005c
:101b60001e007800404890000080fb00c800dd00a7
:101b70001e007800304890000080fb00008040008c
:101b8000cf80de005efa070002002000a347240099
:101b900086fa0700607288007172880070c0b30016
:101ba00058eeb7001e0078005048900059eeb7007c
:101bb0000040eb005beeb7000040eb005ceeb700ce
:101bc000a6b32000a5bf2000c4bd2000e3bb2000b9
:101bd00002ba200021b7200080e32000f3070700ad
:101be00003060700b704370011060700b5043700e5
:101bf0001e00780000489000e84f500019003a009d
:101c00001e00780070409000e24f500013003a0030
:101c100080c0b30058eeb7001e0078001048900056
:101c200059eeb7000040eb005beeb7000040eb0060
:101c30005ceeb700a6b32000a5bf2000c4bd200005
:101c4000e3bb200002ba200021b7200080e320007f
:101c5000d6070700e60507009a043700f4050700d9
:101c6000980437001e00780000489000e94f5000ab
:101c700019003a001e00780070409000e24f5000ba
:101c800013003a0090c0b30058eeb7001e00780071
:101c90001048900059eeb7000040eb005beeb70033
:101ca0000040eb005ceeb700a6b32000a5bf20000b
:101cb000c4bd2000e3bb200002ba200021b72000f1
:101cc00080e32000b9070700c90507007d0437003d
:101cd000d70507007b0437001e00780000489000fd
:101ce000ea4f500037003a001e0078007040900024
:101cf000e64f500031003a001e0078002048900066
:101d00000080fb00c800dd001e0078001048900035
:101d10000080fb0000804000cf80de00f8f9070063
:101d200002002000a347240020fa07004072880028
:101d3000517288001e007800404890000080fb002f
:101d4000c800dd001e007800304890000080fb00d5
:101d500000804000cf80de00e9f90700020020008b
:101d6000a347240011fa070060728800717288008e
:101d7000a0c0b30058eeb7001e0078005048900095
:101d800059eeb7000040eb005beeb7000040eb00ff
:101d90005ceeb700a6b32000a5bf2000c4bd2000a4
:101da000e3bb200002ba200021b7200080e320001e
:101db0007e0707008e050700420437009c050700d8
:101dc000400437001e00780000489000eb4f5000a0
:101dd00028003a001e00780070409000e44f500048
:101de00022003a001e007800204890000080fb008e
:101df000c800dd001e007800104890000080fb0045
:101e000000804000cf80de00bdf907000200200006
:101e1000a3472400e5f90700e0718800f17188000c
:101e2000b0c0b30058eeb7001e00780030489000f4
:101e300059eeb7000040eb005beeb7000040eb004e
:101e40005ceeb700a6b32000a5bf2000c4bd2000f3
:101e5000e3bb200002ba200021b7200080e320006d
:101e600052070700620507001604370070050700d7
:101e7000140437001e00780000489000ec4f50001a
:101e800028003a001e00780070409000e44f500097
:101e900022003a001e007800204890000080fb00dd
:101ea000c800dd001e007800104890000080fb0094
:101eb00000804000cf80de0091f907000200200082
:101ec000a3472400b9f90700e0718800f171880088
:101ed000c0c0b30058eeb7001e0078003048900034
:101ee00059eeb7000040eb005beeb7000040eb009e
:101ef0005ceeb700a6b32000a5bf2000c4bd200043
:101f0000e3bb200002ba200021b7200080e32000bc
:101f10002607070036050700ea03370044050700d7
:101f2000e80337001e00780000489000ed4f500095
:101f300037003a001e00780070409000e64f5000d5
:101f400031003a001e007800204890000080fb001d
:101f5000c800dd001e007800104890000080fb00e3
:101f600000804000cf80de0065f9070002002000fd
:101f7000a34724008df907000072880011728800c1
:101f80001e007800404890000080fb00c800dd0083
:101f90001e007800304890000080fb000080400068
:101fa000cf80de0056f9070002002000a34724007e
:101fb0007ef907002072880031728800d0c0b3001b
:101fc00058eeb7001e0078005048900059eeb70058
:101fd0000040eb005beeb7000040eb005ceeb700aa
:101fe000a6b32000a5bf2000c4bd2000e3bb200095
:101ff00002ba200021b7200080e32000eb06070092
:10200000fb040700af03370009050700ad033700e5
:102010001e00780000489000ee4f500019003a0072
:102020001e00780070409000e24f500013003a000c
:10203000e0c0b30058eeb7001e00780010489000d2
:1020400059eeb7000040eb005beeb7000040eb003c
:102050005ceeb700a6b32000a5bf2000c4bd2000e1
:10206000e3bb200002ba200021b7200080e320005b
:10207000ce060700de04070092033700ec040700d9
:10208000900337001e00780000489000ef4f50008a
:1020900016003a001e00780070409000e14f50009a
:1020a00010003a00f0c0b30058eeb7000040eb005b
:1020b0005beeb7000040eb005ceeb700a6b320007b
:1020c000a5bf2000c4bd2000e3bb200002ba200051
:1020d00021b7200080e32000b4060700c4040700f5
:1020e00078033700d2040700760337001e0078001b
:1020f00000489000f04f500037003a001e00780072
:1021000070409000e24f500031003a0000c1b3002f
:1021100058eeb7001e007800204890000080fb00b9
:10212000c800dd001e007800104890000080fb0011
:1021300000804000cf80de00f1f8070002002000a0
:10214000a347240019f90700c0718800d1718800e5
:102150001e007800404890000080fb00c800dd00b1
:102160001e007800304890000080fb000080400096
:10217000cf80de00e2f8070002002000a347240021
:102180000af90700e0718800f17188001e007800ec
:102190005048900059eeb7000040eb005beeb700ee
:1021a0000040eb005ceeb700a6b32000a5bf200006
:1021b000c4bd2000e3bb200002ba200021b72000ec
:1021c00080e3200079060700890407003d033700fb
:1021d000970407003b0337001e007800004890007a
:1021e000f14f500034003a001e007800704090001b
:1021f000e54f50002e003a0010c1b30058eeb70072
:102200000040eb005beeb7000040eb005ceeb70077
:102210001e007800204890000080fb00c800dd0010
:102220001e007800104890000080fb0000804000f5
:10223000cf80de00b2f8070002002000a347240090
:10224000daf80700405d8800515d88001e007800c4
:10225000404890000080fb00c800dd001e007800b0
:10226000304890000080fb0000804000cf80de00fe
:10227000a3f8070002002000a3472400cbf80700c2
:10228000305e8800415e8800a6b32000a5bf200014
:10229000c4bd2000e3bb200002ba200021b720000b
:1022a00080e32000410607005104070005033700c2
:1022b0005f040700030337005d04070001033700d4
:1022c0001e007800100078006f006000e30f5000df
:1022d000fb023a001e007800004890000004e00075
:1022e00067013a001e00780070409000e84f5000ef
:1022f00061013a001e007800104890000080fb0049
:1023000040079800c0042000ce009000808f50004d
:1023100027003200c0042000ce009000808f5000c3
:102320000d003c0040042000ce009000808f500043
:10233000b700320070042000ce009000808f500063
:10234000ff00320010042000ce009000808f50006b
:10235000630032004601370040062000ce009000a6
:10236000808f5000d000320040062000ce00900048
:10237000808f500005003c0010062000ce00900029
:10238000808f50007c003200390137007006200039
:10239000ce009000808f50000f013200c006200058
:1023a000ce009000808f50002700320030013700af
:1023b0001e007800204890008080fb001e007800fe
:1023c000304890000080fb004800dd0000804000a5
:1023d000cf80de004af80700a0618800b161880064
:1023e0001e007800404890008080fb001e007800ae
:1023f000504890000080fb004800dd000080400055
:10240000cf80de003ef80700c0618800d1618800ff
:102410001e007800604890008080fb001e0078005d
:10242000704890000080fb004800dd000080400004
:10243000cf80de0032f80700e0618800f16188009b
:10244000eb0307009f0237001e0078002048900031
:102450008080fb001e007800304890000080fb0068
:102460004800dd0000804000cf80de0024f8070037
:10247000e0658800f16588001e0078004048900003
:102480008080fb001e007800504890000080fb0018
:102490004800dd0000804000cf80de0018f8070013
:1024a00000668800116688001e0078006048900071
:1024b0008080fb001e007800704890000080fb00c8
:1024c0004800dd0000804000cf80de000cf80700ef
:1024d0002066880031668800c5030700790237004e
:1024e0001e007800204890008080fb001e007800cd
:1024f000304890000080fb004800dd000080400074
:10250000cf80de00fef70700c0638800d16388003b
:102510001e007800404890008080fb001e0078007c
:10252000504890000080fb004800dd000080400023
:10253000cf80de00f2f70700e0638800f1638800d7
:102540001e007800604890008080fb001e0078002c
:10255000704890000080fb004800dd0000804000d3
:10256000cf80de00e6f70700006488001164880071
:102570009f030700530237001e0078002048900098
:102580008080fb001e007800304890000080fb0037
:102590004800dd0000804000cf80de00d8f7070053
:1025a00000688800116888001e007800404890008c
:1025b0008080fb001e007800504890000080fb00e7
:1025c0004800dd0000804000cf80de00ccf707002f
:1025d00020688800316888001e00780060489000fc
:1025e0008080fb001e007800704890000080fb0097
:1025f0004800dd0000804000cf80de00c0f707000b
:102600004068880051688800790307002d02370070
:102610001e007800204890008080fb001e0078009b
:10262000304890000080fb004800dd000080400042
:10263000cf80de00b2f70700206a8800316a880088
:102640001e007800404890008080fb001e0078004b
:10265000504890000080fb004800dd0000804000f2
:10266000cf80de00a6f70700406a8800516a880024
:102670001e007800604890008080fb001e007800fb
:10268000704890000080fb004800dd0000804000a2
:10269000cf80de009af70700606a8800716a8800c0
:1026a00053030700070237001e00780020489000ff
:1026b0008080fb001e007800304890000080fb0006
:1026c0004800dd0000804000cf80de008cf707006e
:1026d000606e8800716e88001e007800404890008f
:1026e0008080fb001e007800504890000080fb00b6
:1026f0004800dd0000804000cf80de0080f707004a
:10270000806e8800916e88001e00780060489000fe
:102710008080fb001e007800704890000080fb0065
:102720004800dd0000804000cf80de0074f7070025
:10273000a06e8800b16e88002d030700e10137000c
:102740001e007800204890008080fb001e0078006a
:10275000304890000080fb004800dd000080400011
:10276000cf80de0066f70700406c8800516c88005f
:102770001e007800404890008080fb001e0078001a
:10278000504890000080fb004800dd0000804000c1
:10279000cf80de005af70700606c8800716c8800fb
:1027a0001e007800604890008080fb001e007800ca
:1027b000704890000080fb004800dd000080400071
:1027c000cf80de004ef70700806c8800916c880097
:1027d00007030700bb0137001e0078002048900067
:1027e0008080fb001e007800304890000080fb00d5
:1027f0004800dd0000804000cf80de0040f7070089
:1028000080708800917088001e0078004048900019
:102810008080fb001e007800504890000080fb0084
:102820004800dd0000804000cf80de0034f7070064
:10283000a0708800b17088001e0078006048900089
:102840008080fb001e007800704890000080fb0034
:102850004800dd0000804000cf80de0028f7070040
:10286000c0708800d1708800e10207009501370030
:10287000ef02070093013700ed02070091013700d6
:102880001e00780000489000e14f5000ea003a0036
:102890001e00780070409000e54f5000e4003a00c0
:1028a0001e007800104890000080fb003007980060
:1028b00040042000be009000808f5000760032005f
:1028c00040042000be009000808f500005003c00b6
:1028d00010042000be009000808f50003c003200a9
:1028e000d100370070042000be009000808f50009f
:1028f0009b003200c0042000be009000808f50007a
:1029000001003200c80037001e007800a048900087
:1029100060c7b30080cf50001c003a001e00780052
:10292000404890000080fb00c800dd001e007800d9
:10293000304890000080fb0000804000cf80de0027
:10294000eff6070002002000a347240017f7070056
:10295000405d8800515d8800405d8000515d8000d1
:10296000f25a8000035b8000e4f707000000e000fb
:1029700001003c0014003700f05a8000015b800029
:10298000405d8800515d88000f0037001e00780010
:10299000404890000080fb00c800dd001e00780069
:1029a000304890000080fb0000804000cf80de00b7
:1029b000d3f6070002002000a3472400fbf607001f
:1029c000c05d8800d15d8800890207003d013700a5
:1029d0001e007800a048900060c7b30080cf500070
:1029e0001c003a001e007800404890000080fb0068
:1029f000c800dd001e007800304890000080fb0019
:102a000000804000cf80de00bdf6070002002000fd
:102a1000a3472400e5f60700305e8800415e880089
:102a2000305e8000415e8000125b8000235b80008e
:102a3000b2f707000000e00001003c00140037007e
:102a4000105b8000215b8000305e8800415e880062
:102a50000f0037001e007800404890000080fb0007
:102a6000c800dd001e007800304890000080fb00a8
:102a700000804000cf80de00a1f6070002002000a9
:102a8000a3472400c9f60700b05e8800c15e880035
:102a9000570207000b0137001e007800a048900085
:102aa00060c7b30080cf50001c003a001e007800c1
:102ab000304890000080fb00c800dd001e00780058
:102ac000204890000080fb0000804000cf80de00a6
:102ad0008bf6070002002000a3472400b3f607008e
:102ae000205f8800315f8800205f8000315f8000b8
:102af000f25a8000035b800080f707000000e000ce
:102b000001003c0014003700f05a8000015b800097
:102b1000205f8800315f88000f0037001e007800ba
:102b2000504890000080fb00c800dd001e007800c7
:102b3000404890000080fb0000804000cf80de0015
:102b40006ff6070002002000a347240097f6070055
:102b5000a05f8800b15f880025020700d900370018
:102b60001e007800a048900060c7b30080cf5000de
:102b70001c003a001e007800304890000080fb00e6
:102b8000c800dd001e007800204890000080fb0097
:102b900000804000cf80de0059f6070002002000d0
:102ba000a347240081f60700106088002160880098
:102bb0001060800021608000f25a8000035b80007a
:102bc0004ef707000000e00001003c001400370051
:102bd000f05a8000015b800010608800216088004e
:102be0000f0037001e007800504890000080fb0066
:102bf000c800dd001e007800404890000080fb0007
:102c000000804000cf80de003df60700020020007b
:102c1000a347240065f6070090608800a160880043
:102c2000f3010700a700370001020700a5003700e5
:102c3000ff010700a30037001e0078000048900045
:102c4000e24f500044003a001e00780070409000af
:102c5000e44f50003e003a001e00780010489000fb
:102c60000080fb002007980040042000ae00900088
:102c7000808f50001200320040042000ae0090000f
:102c8000808f500005003c0010042000ae00900032
:102c9000808f50001b0032002b0037007004200092
:102ca000ae009000808f500005003200c00420006c
:102cb000ae009000808f50000100320022003700eb
:102cc0001e007800304890000080fb00c800dd0046
:102cd0001e007800204890000080fb00008040002b
:102ce000cf80de0006f6070002002000a347240084
:102cf0002ef607008072880091728800bc010700e0
:102d0000700037001e007800304890000080fb0003
:102d1000c800dd001e007800204890000080fb0005
:102d200000804000cf80de00f5f5070002002000a3
:102d3000a34724001df60700a0728800b172880026
:102d4000ab0107005f003700b90107005d003700e5
:102d5000b70107005b0037001e00780000489000b4
:102d6000e34f500054003a001e007800704090007d
:102d7000e44f50004e003a001e00780010489000ca
:102d80000080fb0010079800700420009e00900057
:102d9000808f50002f003200200520009e00900000
:102da000808f500005003200400420009e009000fb
:102db000808f5000120032003b0037001e00780068
:102dc000304890000080fb00c800dd001e00780045
:102dd000204890000080fb0000804000cf80de0093
:102de000c7f5070002002500337c2400eff507003b
:102df000d0598800e15988007d0107003100370073
:102e00001e007800304890000080fb00c800dd0004
:102e10001e007800204890000080fb0000804000e9
:102e2000cf80de00b6f5070002002500337c2400c9
:102e3000def50700f0598800015a8800f259800039
:102e4000035a8000705b8000871507006801070047
:102e50001c0037001e007800304890000080fb0006
:102e6000c800dd001e007800204890000080fb00b4
:102e700000804000cf80de00a1f5070002002500a1
:102e8000337c2400c9f50700105a8800215a8800b5
:102e9000f2598000035a8000805b80009f15070074
:102ea00053010700070037006101070005003700e4
:102eb0005f010700030037005d01070001003700d4
:102ec0005b0107004f05be004f04be000080fa0002
:102ed000000006001000fa0000012000000f78003a
:102ee0006000b80010079800210798000040eb0030
:102ef0006047980010c0b30070479800a0cab300a4
:102f0000004f98000e0078007b1307000080fa0045
:102f1000000006001000fa0060012000000f780099
:102f20006000b80010079800210798000040eb00ef
:102f30006047980010c0b300704798005bcebf0098
:102f4000004f98000e0078006b1307000080fa0015
:102f5000000006001000fa0060012000000f780059
:102f60006000b80010079800210798000040eb00af
:102f70006047980010c0b3007047980020c0b300ad
:102f8000004f98000e0078005b1307000080fa00e5
:102f9000000006001000fa0040012000000f780039
:102fa0006000b80010079800210798000040eb006f
:102fb0006047980010c0b3007047980010c0b3007d
:102fc000004f98000e0078004b1307000080fa00b5
:102fd000000006001600fa00b05c8000c15c8000b2
:102fe00002002000a3472400b2f5070045f60700c1
:102ff00020079800d05c8000e15c80000200200087
:10300000a3472400abf507003ef607001007980021
:10301000105c8000215c800002002000a347240097
:10302000a4f5070037f60700000f7800e600470018
:103030005001200080087800660147006000b80059
:103040001001980021019800e60047000040eb00c5
:10305000e0409800e600470060c0b300f0409800f0
:103060002e0090008040780000c0eb0080c060001f
:1030700066004700014898002e0090004880de005e
:103080008040780000c0eb0080c060006600470010
:10309000114898001e0090008040780000c0eb00ae
:1030a00080c0600066004700214898001e00900024
:1030b0004880de008040780000c0eb0080c06000e7
:1030c00066004700314898001e0078008040780074
:1030d00000c0eb0080c060006600470041489800d7
:1030e0001e0078004880de008040780000c0eb00c1
:1030f00080c06000660047005148980066004700a5
:10310000fd1207000080fa00000006001a00fa0015
:10311000605798006e5090000080fb00400f9800b0
:103120004e089000e10f500024003200ce089000bd
:10313000e18f500004003c004e0890000000e000c9
:10314000080032005f003700ce089000e28f500088
:10315000300032004e089000e30f50004300320070
:1031600058003700905b8000a15b800002002000c7
:10317000a34724004ff50700e2f507002007980059
:10318000805d8000915d800002002000a347240044
:1031900048f50700dbf5070010079800305c800059
:1031a000415c800002002000a347240041f5070095
:1031b000d4f50700000f780048003700f05b80006e
:1031c000015c800002002000a347240039f50700bd
:1031d000ccf5070020079800705e8000815e8000bb
:1031e00002002000a347240032f50700c5f50700c0
:1031f00010079800505c8000615c80000200200095
:10320000a34724002bf50700bef50700000f780048
:1032100032003700b05b8000c15b800002002000fc
:10322000a347240023f50700b6f507002007980000
:10323000605f8000715f800002002000a3472400cf
:103240001cf50700aff5070010079800705c8000c0
:10325000815c800002002000a347240015f50700d0
:10326000a8f50700000f78001c003700d05b800035
:10327000e15b800002002000a34724000df5070059
:10328000a0f5070020079800506080006160800072
:1032900002002000a347240006f5070099f5070067
:1032a00010079800905c8000a15c80000200200064
:1032b000a3472400fff4070092f50700000f7800f1
:1032c000060037000000eb00200798000000eb002c
:1032d000100798000000eb00000f7800e6004700a0
:1032e0009001200080087800660147006000b80067
:1032f0001001980021019800e60047000040eb0013
:10330000e0409800e600470080c0b300f04098001d
:1033100066004700ee509000014898002e00900093
:103320008040780000c0eb0080c06000660047006d
:10333000114898002e0090004880de008040780000
:1033400000c0eb0080c06000660047002148980084
:103350001e0090008040780000c0eb0080c060003c
:1033600066004700314898001e0090004880de004b
:103370008040780000c0eb0080c06000660047001d
:10338000414898001e0078008040780000c0eb00a3
:1033900080c0600066004700514898001e00780019
:1033a0004880de008040780000c0eb0080c06000f4
:1033b0006600470061489800006780001167800040
:1033c000020020000300240078f4070001f0a100af
:1033d0004cf507008040780066004700714898006f
:1033e00066004700441207000080fa000000060053
:1033f0001000fa0020012000000f78006000b800e3
:1034000010079800210798000040eb0060479800e3
:1034100010c0b3007047980020c5b300004f98005b
:103420000e007800341207000080fa000000060049
:103430001000fa0010012000000f78006000b800b2
:1034400010079800210798000040eb0060479800a3
:1034500010c0b3007047980090c4b300004f9800ac
:103460000e007800241207000080fa000000060019
:103470000800fa00008fbe006011b8001e00be00f8
:103480001ef507000000e00001003d0004003700c9
:103490001e00be0020079800310798000500370085
:1034a0001e00be000001be0003f0a200220798002b
:1034b000330798002e009000be0090000080fa00b4
:1034c000000006000800fa00200798003107980065
:1034d0002e009000be009000008fbe001900370043
:1034e000b2fd2000930424001e00be0003f5070077
:1034f0000000e00001003c00060037001e00be0096
:10350000b2fd2000930c24009ef40700008fbe0043
:103510000c003700b2fd200093042c001e00be00fa
:1035200019f507000000e000010034000500370035
:103530001e00be00b2fd2000930c240092f4070090
:10354000008fbe00b2fd2000930424001e00be00c8
:10355000eaf407000000e000e1ff3c00b2fd2000bb
:1035600093042c001e00be0007f507000000e000d9
:10357000dbff34001e00be000080fa0000000600e1
:103580000c00fa00008fbe00220798003307980055
:103590002e009000be00900001f0a2000041eb0060
:1035a000324f98001e01be00f7f407000000e00053
:1035b000010035000200370010c0b300304f980002
:1035c0003e4890000004a2000004e00012003a000f
:1035d0000041eb00224f98002e019000be019000a8
:1035e0001e00be00e8f407000000e0000100350006
:1035f0000200370010c0b300204f98002e48900002
:103600000004a2000004e00003003a0012002000c1
:1036100042079800020037000000eb0040079800c6
:103620004e0090000080fa00000006000c00fa0036
:10363000008fbe0022079800330798002e019000eb
:10364000be0190001e00be00acf407000000e000c8
:1036500001003c00050037002e009000be009000e5
:103660004007980051079800120037002e00900084
:10367000be00900001f0a2001e01be009ff40700f2
:103680000000e00001003c00070037002e00900021
:10369000be0090000001be0003f0a20042079800a7
:1036a00053079800030037001e00be004007980033
:1036b000510798004e009000de0090000080fa0054
:1036c000000006001200fa00889fbe008a9fbe001c
:1036d0006007980071079800020f9800bc1307005c
:1036e0004007980051079800d01307002007980062
:1036f0003107980002002000a34724004e009000ec
:10370000de009000ebf307007ef4070061406000ec
:103710006140600061406000614060004501dd0083
:10372000c12c200091407800f0cdb30000c06000b3
:1037300002407000cce2b70002002000a347240042
:103740002e009000be009000daf307006df4070031
:103750006140600061406000614060006140600065
:103760004601dd00c12c200091407800f0cbb30071
:1037700000c0600002407000cce2b7002e01900053
:10378000be0190004e009000de009000fdf30700a7
:103790000002be007e0090001001be000400be00ca
:1037a00082f30700008fbe006e00900020019000a1
:1037b000b00190004e009000de009000f1f3070091
:1037c0000002be000e08900060019000f001900021
:1037d0000400be0075f307006e01900060099800b8
:1037e000710998006e00900040019000d001900097
:1037f0002e009000be009000e2f307000002be0021
:103800000e08900060019000f00190000400be00de
:1038100066f307006e0190000011980011119800e6
:103820006e00900060019000f00190001e00be004c
:10383000d4f307000002be000e0890006001900063
:10384000f00190000400be0058f307006e019000e4
:1038500040099800510998006e009000600a90009d
:10386000f00a90006e0090000011900090119000fe
:103870000400be00c4f3070002002000030024007f
:103880004af307006e019000200998003109980062
:103890006e00900020159000b01590006e00900012
:1038a000200a9000b00a90000e089000600190007d
:1038b000f00190000400be007ef307000004be008b
:1038c0006e009000900890000008900030f407000f
:1038d0000001be000800be0076f307000001be0034
:1038e0000a00be00a8f307006e01900020119800a6
:1038f000311198006e00900040159000d015900096
:103900006e009000200a9000b00a90000e0890000f
:1039100060019000f00190000400be0065f3070014
:103920000004be006e009000900890000008900017
:1039300019f407000001be000800be005df3070097
:103940000001be000a00be008ff307006e01900068
:1039500040119800511198006e0090001e01be00a9
:1039600062009800730098006e009000f0009000d4
:1039700060009000d3fe07006e01900000099800df
:10398000110998006e0090004e019000de01900039
:1039900022009800330098006e0090002e019000e5
:1039a000be01900042009800530098006e00900005
:1039b00020029000b00290006e0090004001900044
:1039c000d00190000400be006ff307000200200049
:1039d00003002400f5f207006e0190000089be008c
:1039e0004f05be004f04be000080fa000000060034
:1039f0000c00fa00889fbe00008fbe0022079800ce
:103a00003307980044079800550798004e0090002f
:103a10001000be004e019000200198003101980076
:103a20001e01be002e009000be00900055f307005e
:103a30004e0190000089be004e0090001002be00b2
:103a40004e00900020019000b00190000400be00e4
:103a50004cf307000002be005e0090006001900081
:103a6000f00190000400be00d0f207004e0190006b
:103a700060019800710198004e0090004004900091
:103a8000d00490004e0090001002be004e00900046
:103a900020019000b00190000400be003af307003e
:103aa0000200200003002400c0f207000002be0054
:103ab0005e00900060019000f00190000400be00e4
:103ac000fcf207000001be000800be002ef3070054
:103ad0004e01900040019800510198004e00900066
:103ae000600a9000f00a90004e0090001001be00a5
:103af0000400be00eff207004e019000000998009c
:103b0000110998004e009000001290009012900051
:103b10004e00900040019000d00190000400be00d3
:103b2000e4f207004e019000200998003109980046
:103b30004e00900020129000b01290004e009000b5
:103b400060019000f00190000400be00d9f207006f
:103b50004e01900040099800510998004e009000d5
:103b6000000a9000900a90004e00900040099000da
:103b7000d00990000400be0003f307000002be005d
:103b80004e00900020099000b00990000400be0093
:103b9000fdf207004e0190000021980011219800cd
:103ba0004f04be000080fa00000006001600fa0074
:103bb000889fbe008a9fbe00000f78001107980002
:103bc000220798003307980044079800550798008b
:103bd000660798001e007800006090000000fb005f
:103be0006101b900120f9800230f98001001200006
:103bf000010020001e099000ae099000800f5100c6
:103c0000818f590077043e001e089000ae08900096
:103c100000600100110037001f003700310037003d
:103c20004400370079003700c400370061013700d5
:103c300041023700cd023700e2023700f7023700b9
:103c400095033700c3033700f10337000a04370038
:103c50003104370063043700460437009e007800c3
:103c6000f0c0b300e06098001e0090001000be009d
:103c70002e01900020019800310198001e00900054
:103c8000f0009000600090003e019000200198003c
:103c900031019800640437009e007800f0c0b30042
:103ca000e06098001e0090001002be001e00780028
:103cb0001001be000400be00b3f207002e01900008
:103cc00020019800310198001e009000f000900043
:103cd000600090003e0190002001980031019800a2
:103ce000510437009e007800f0c0b300e0609800f7
:103cf0001e0090001000be002e01900020019800d0
:103d0000310198001e00900060029000f0029000c7
:103d10001e00780020019000b00190000400be0059
:103d200099f207003e0190002001980031019800af
:103d30003d0437009e007800f0c0b300e0609800ba
:103d40001e0090001000be002e019000200198007f
:103d5000310198001e007800106090000004e0001f
:103d6000130032001e00900060049000f0049000e8
:103d70001e00780020029000b00290001e0090000b
:103d800000099000900990000400be007df2070039
:103d9000ccfd07000001be000800be007af207005b
:103da0003e01900020019800310198001e04370068
:103db0001e00900060049000f00490001e00780047
:103dc000b000900020009000b2fd20009304240079
:103dd0006df207000002be001e0090000009900076
:103de000900990000400be0066f20700b5fd0700d0
:103df0000001be000800be0063f207003e01900013
:103e00002001980031019800070437009e007800d7
:103e1000f0c0b300e06098001e0090001000be00eb
:103e20002e01900020019800310198001e007800ba
:103e3000000a9000900a90001e009000201190004f
:103e4000b01190000400be004ef207000004be0056
:103e50001e007800200a9000b00a90001e0090001a
:103e600040119000d01190000400be0045f2070000
:103e70000801be00caf207001e0178002001980068
:103e8000310198001e007800106090000004e000ee
:103e9000130032001e00900060049000f0049000b7
:103ea0001e00780020029000b00290001e009000da
:103eb00000099000900990000400be0031f2070054
:103ec00080fd07000001be000800be002ef20700c2
:103ed0003e0190002001980031019800d203370084
:103ee0001e00900060049000f00490001e00780016
:103ef000b000900020009000b2fd20009304240048
:103f000021f207000002be001e0090000009900090
:103f1000900990000400be001af2070069fd070036
:103f20000001be000800be0017f207003e0190002d
:103f30002001980031019800bb0337009e007800f3
:103f4000f0c0b300e06098001e0078002060900090
:103f50000000fb00000f98008e0890000100e000b8
:103f6000040032000e099000e10f51004a003200b7
:103f7000ad0337001e0090001000be002e0190001f
:103f800020019800310198001e007800000a90007e
:103f9000900a90001e00900020119000b011900037
:103fa0000400be00f7f107000004be001e00780008
:103fb000200a9000b00a90001e009000401190006e
:103fc000d01190000400be00eef107000801be0011
:103fd00073f207001e01780020019800310198005b
:103fe0001e007800106090000004e0001300320012
:103ff0001e00900060049000f00490001e00780005
:1040000020029000b00290001e0090000009900075
:10401000900990000400be00daf1070029fd0700b6
:104020000001be000800be00d7f107003e0190006d
:1040300020019800310198007b0337001e0090009a
:1040400060049000f00490001e007800b000900022
:1040500020009000b2fd200093042400caf1070064
:104060000002be001e009000000990009009900020
:104070000400be00c3f1070012fd07000001be00ee
:104080000800be00c0f107003e019000200198002a
:1040900031019800640337001e007800200a900068
:1040a000b00a90001e00900040119000d0119000c6
:1040b0000400be00b3f107000004be001e0078003b
:1040c000200a9000b00a90001e009000401190005d
:1040d000d01190000400be00aaf107000001be004c
:1040e0000800be0073f107000005be001e00780046
:1040f000000a9000900a90001e009000201190008d
:10410000b01190000400be009ef107000004be0044
:104110001e007800000a9000900a90001e00900097
:1041200020119000b01190000400be0095f107002e
:104130000001be000800be005ef107000001be00e5
:104140000a00be0090f1070032f207001e0178005d
:104150000089be001e007800106090000004e0009e
:104160000a0032001e0090001002be001e007800ff
:104170001001be000400be0083f107002e01900074
:104180002001980031019800270337001e0090009d
:104190001002be001e0078001001be000400be0028
:1041a00078f107002e01900020019800310198005d
:1041b0001d0337009e007800f0c0b300e060980057
:1041c0001e007800206090000000fb00700798003f
:1041d000fe0190000300e000040032007e00900029
:1041e000e10f50004a0032000f0337001e0090001c
:1041f0001000be002e0190002001980031019800af
:104200001e007800000a9000900a90001e009000a6
:1042100020119000b01190000400be0059f1070079
:104220000004be001e007800200a9000b00a900032
:104230001e00900040119000d01190000400be00bc
:1042400050f107000801be00d5f107001e017800fb
:1042500020019800310198001e0078001060900045
:104260000004e000130032001e0090006004900083
:10427000f00490001e00780020029000b002900030
:104280001e00900000099000900990000400be00fc
:104290003cf107008bfc07000001be000800be00d7
:1042a00039f107003e01900020019800310198008b
:1042b000dd0237001e00900060049000f0049000c2
:1042c0001e007800b000900020009000b2fd200099
:1042d000930424002cf107000002be001e00900091
:1042e00000099000900990000400be0025f107002d
:1042f00074fc07000001be000800be0022f10700a8
:104300003e0190002001980031019800c60237005c
:104310001e007800200a9000b00a90001e00900055
:1043200040119000d01190000400be0015f107006c
:104330000004be001e007800200a9000b00a900021
:104340001e00900040119000d01190000400be00ab
:104350000cf107000001be000800be00d5f0070008
:104360000005be001e007800000a9000900a900030
:104370001e00900020119000b01190000400be00bb
:1043800000f107000004be001e007800000a900043
:10439000900a90001e00900020119000b011900033
:1043a0000400be00f7f007000001be000800be00d8
:1043b000c0f007000001be000a00be00f2f00700d6
:1043c00094f107001e0178000089be001e007800ed
:1043d000106090000004e0000a0032001e0090000f
:1043e0001002be001e0078001001be000400be00d6
:1043f000e5f007002e01900020019800310198009f
:10440000090037001e0090001002be001e00780058
:104410001001be000400be00daf007002e0190007b
:1044200020019800310198001e007800000a9000d9
:10443000900a90001e00900020119000b011900092
:104440000400be00cff007000004be001e0078008c
:10445000200a9000b00a90001e00900040119000c9
:10446000d01190000400be00c6f007000801be0095
:104470004bf107001e0178002001980031019800df
:104480001e007800106090000004e000130032006d
:104490001e00900060049000f00490001e00780060
:1044a00020029000b00290001e00900000099000d1
:1044b000900990000400be00b2f0070001fc070064
:1044c0000001be000800be00aff007003e019000f2
:1044d0002001980031019800530237001e0090001f
:1044e00060049000f00490001e007800b00090007e
:1044f00020009000b2fd200093042400a2f00700e9
:104500000002be001e00900000099000900990007b
:104510000400be009bf00700eafb07000001be009c
:104520000800be0098f007003e01900020019800ae
:10453000310198003c0237009e007800f0c0b300c3
:10454000e06098001e007800200a9000b00a9000f9
:104550001e00900040119000d01190000400be0099
:1045600088f007000004be001e007800200a9000ba
:10457000b00a90001e00900040119000d0119000f1
:104580000400be007ff007000001be000800be006e
:1045900048f007000005be001e007800000a9000e9
:1045a000900a90001e00900020119000b011900021
:1045b0000400be0073f007000004be001e00780077
:1045c000000a9000900a90001e00900020119000b8
:1045d000b01190000400be006af007000001be00a8
:1045e0000800be0033f007000001be000a00be0054
:1045f00065f0070007f107001e0178000089be0082
:104600001e007800106090000004e0000a003200f4
:104610001e0090001002be001e0078001001be00b7
:104620000400be0058f007002e0190002001980001
:1046300031019800090037001e0090001002be00f2
:104640001e0078001001be000400be004df00700ff
:104650002e01900020019800310198001e00780082
:10466000000a9000900a90001e0090002011900017
:10467000b01190000400be0042f007000004be002c
:104680001e007800200a9000b00a90001e009000e2
:1046900040119000d01190000400be0039f00700d6
:1046a0000801be00bef007001e017800200198003e
:1046b000310198001e007800106090000004e000b6
:1046c000130032001e00900060049000f00490007f
:1046d0001e00780020029000b00290001e009000a2
:1046e00000099000900990000400be0025f007002a
:1046f00074fb07000001be000800be0022f00700a6
:104700003e0190002001980031019800c601370059
:104710001e00900060049000f00490001e007800dd
:10472000b000900020009000b2fd2000930424000f
:1047300015f007000002be001e0090000009900066
:10474000900990000400be000ef007005dfb07001a
:104750000001be000800be000bf007003e01900003
:104760002001980031019800af0137009e007800c9
:10477000e0c0b300e06098001e0078001060900078
:104780000004e000070032002e009000f0009000ce
:10479000600090002e019000000998001109980017
:1047a000a10137002e009000f00090006000900002
:1047b00001f0a2002e019000000998001109980054
:1047c000990137009e007800b0c0b300e060980007
:1047d0001e007800106090000004e0000700320026
:1047e0003e009000f0009000600090003e019000bc
:1047f00000099800110998008b0137003e009000d5
:10480000f00090006000900001f0a2003e019000d6
:104810000009980011099800830137009e00780074
:10482000e0c0b300e06098001e007800200a90000d
:10483000b00a90001e00900040119000d01190002e
:104840000400be00cfef07000004be001e00780089
:10485000200a9000b00a90001e00900040119000c5
:10486000d01190000400be00c6ef07000001be009a
:104870000800be008fef07000005be001e00780094
:10488000000a9000900a90001e00900020119000f5
:10489000b01190000400be00baef07000004be0093
:1048a0001e007800000a9000900a90001e00900000
:1048b00020119000b01190000400be00b1ef07007d
:1048c0000001be000800be007aef07000001be0034
:1048d0000a00be00acef07004ef007001e01780092
:1048e0000089be001e007800106090000004e00007
:1048f0000a0032001e0090001002be001e00780068
:104900001001be000400be009fef07002e019000c2
:104910002001980031019800090037001e00900026
:104920001002be001e0078001001be000400be0090
:1049300094ef07002e0190002001980031019800ab
:104940001e007800106090000004e00007003200b4
:104950002e009000f0009000600090002e0190006a
:104960000009980011099800070037002e009000f8
:10497000f00090006000900001f0a2002e01900075
:1049800000099800110998001e007800000a9000a4
:10499000900a90001e00900020119000b01190002d
:1049a0000400be0077ef07000004be001e00780080
:1049b000200a9000b00a90001e0090004011900064
:1049c000d01190000400be006eef07000801be0089
:1049d000f3ef07001e0178002001980031019800d4
:1049e0001e007800106090000004e0001300320008
:1049f0001e00900060049000f00490001e007800fb
:104a000020029000b00290001e009000000990006b
:104a1000900990000400be005aef0700a9fa0700b1
:104a20000001be000800be0057ef07003e019000e5
:104a30002001980031019800fb0037001e00900013
:104a400060049000f00490001e007800b000900018
:104a500020009000b2fd2000930424004aef0700dc
:104a60000002be001e009000000990009009900016
:104a70000400be0043ef070092fa07000001be00e9
:104a80000800be0040ef07003e01900020019800a2
:104a900031019800e40037009e00780000cfb30099
:104aa000e06098001e009000b00090002000900090
:104ab0004e01900020019800310198001e007800fe
:104ac000106090000004e000110032001e00900011
:104ad00040049000d00490001e0078002002900056
:104ae000b00290006e0090001001be000400be00f5
:104af000f0ee07000001be000800be0021ef070035
:104b00005e0190002001980031019800c600370036
:104b10001e00900040049000d00490001e00780019
:104b200020029000b00290006e0090001001be00c4
:104b30000400be00dfee07000001be000800be005a
:104b400011ef07005e0190002001980031019800ec
:104b5000b50037009e00780000cfb300e0609800f9
:104b60001e009000d0009000400090005e01900078
:104b700020019800310198001e007800106090001c
:104b80000004e000110032001e009000200490009c
:104b9000b00490001e00780020029000b002900047
:104ba0006e0090001001be000400be00c1ee0700c0
:104bb0000001be000800be00f3ee07004e019000a9
:104bc0002001980031019800970037001e009000e6
:104bd00020049000b00490001e0078002002900095
:104be000b00290006e0090001001be000400be00f4
:104bf000b0ee07000001be000800be00e1ee0700b5
:104c00004e01900020019800310198008600370085
:104c10009e00780000cfb300e06098001e00900076
:104c200020029000b00290001e0078004001900029
:104c3000d00190000400be00d3ee07004e019000aa
:104c400020019800310198001e0090004002900061
:104c5000d00290001e00780060019000f0019000ea
:104c60000400be00c8ee07005e019000200198001d
:104c7000310198006c0037009e00780000cab30034
:104c8000e06098001e007800106090000004e000d2
:104c9000070032004e009000f0009000600090008d
:104ca0004e01900000099800110998000700370094
:104cb0004e009000f00090006000900001f0a20013
:104cc0004e01900000099800110998001e0078001c
:104cd000106090000004e000070032005e009000c9
:104ce000f0009000600090005e01900000099800c4
:104cf000110998004c0037005e009000f000900011
:104d00006000900001f0a2005e0190000009980090
:104d100011099800440037009e007800a0c0b3003d
:104d2000e06098002e0190006000b8000009980033
:104d3000110998003e0190006000b8000009980039
:104d4000110998001e0090001000be002e01900076
:104d500020019800310198001e009000f0009000a2
:104d6000600090003e019000200198003101980001
:104d70002d0037009e007800a0c0b300e0609800ce
:104d80002e009000d0009000400090002e01900076
:104d900000099800110998001e007800106090002a
:104da0000004e000070032003e009000d0009000b8
:104db000400090003e019000000998001109980001
:104dc000190037003e009000d00090004000900095
:104dd00001f0a2003e01900000099800110998001e
:104de000110037009e007800f0c0b300e06098002a
:104df0009e0078000040eb00806098001e0090004c
:104e00001000be002e019000200198003101980092
:104e10001e009000f0009000600090003e019000a5
:104e200020019800310198004f05be004f04be00dc
:104e30000080fa00000006000400fa00889fbe000f
:104e4000000f7800110798001e007800f000900015
:104e5000600090000001be0003f0a1001e00780079
:104e60009008900000089000f0f907001e017800fb
:104e700000099800110998001e007800000a9000af
:104e8000900a90001e00780020099000b009900060
:104e90000400be003bee07000004be001e007800c8
:104ea000400a9000d00a90001e009000600190001f
:104eb000f00190000400be00feed07000001be00fe
:104ec0000800be008dee07000000e00001003c007d
:104ed000120037001e007800200c9000b00c9000eb
:104ee0001e007800400a9000d00a90001e0090003a
:104ef00060019000f00190000400be00eded07009d
:104f00000001be000800be001fee07001e01780071
:104f100000099800110998002a0037001e00780047
:104f2000000a9000900a90001e007800200990006e
:104f3000b00990000400be0012ee07000004be009d
:104f40001e007800d0089000400890000002be00cb
:104f500005f0a2001e00900060019000f00190009a
:104f60000400be00d3ed07000001be000800be0033
:104f700085ee07000000e000010035001100370059
:104f80001e007800200c9000b00c90001e007800ed
:104f9000400a9000d00a90001e009000600190002e
:104fa000f00190000400be00c2ed07000001be0049
:104fb0000800be00f3ed07001e017800000998000c
:104fc000110998004f04be000080fa00000006009e
:104fd0000800fa00000f78001107980022079800d7
:104fe000330798001e00900020019000b00190004f
:104ff0001e0078001000be00be0290002e0290003d
:105000007bfa07001e0090009008900000089000b6
:105010001e01900020099800310998002e00900090
:1050200090209000002090001e0190000009980040
:1050300011099800be0090001e0090007eff07003e
:105040000080fa00000006000800fa00000f780057
:105050001107980022079800330798001e0090005f
:1050600020019000b00190001e007800f000900038
:1050700060009000be0290002e0290005cfa0700d3
:105080001e00900090089000000890001e01900003
:1050900020099800310998002e009000902090007f
:1050a000002090001e01900000099800110998004e
:1050b000be0090001e0090005fff07000080fa0015
:1050c000000006000a00fa00000f7800110798009f
:1050d0002207980033079800440798001e009000ac
:1050e00000099000900990001e007800b008900020
:1050f00020089000be0290002e0290003cfa0700ab
:105100004e00900060099000f00990002e00900081
:10511000902090000020900044f907002e0190009c
:1051200000219800112198000080fa00000006007c
:105130000a00fa00000f7800110798002207980073
:1051400033079800440798001e0090000009900063
:10515000900990001e007800d00890004008900050
:10516000be0290002e02900021fa07004e0090002f
:1051700000119000901190002e009000902090005f
:105180000020900029f907002e01900000219800ce
:10519000112198000080fa00000006000600fa00c5
:1051a000000f780011079800220798001e00780071
:1051b00000229000902290001e009000002190009c
:1051c000902190000400be006fed07000200200057
:1051d000a33f240015f907002e01900060019800fc
:1051e000710198001e00780000229000902290002b
:1051f0001e00900000219000902190000400be004d
:1052000060ed070002002000a33f240007f907001b
:105210002e01900000099800110998000080fa0002
:10522000000006000800fa00000f7800110798003f
:1052300022079800330798001e009000200190007c
:10524000b00190001e007800b00090002000900097
:10525000be0290002e029000e5f907001e009000ab
:1052600090089000000890001e019000200998000e
:10527000310998002e0090009020900000209000ae
:105280001e0190000009980011099800be009000ce
:105290001e009000e8fe07000080fa0000000600f3
:1052a0000800fa00000f7800110798002207980004
:1052b000330798001e00900020019000b00190007c
:1052c0001e007800d000900040009000be029000c8
:1052d0002e029000c6f907001e0090009008900072
:1052e000000890001e0190002009980031099800e4
:1052f0002e00900090209000002090001e01900051
:105300000009980011099800be0090001e0090004e
:10531000c9fe07000080fa00000006000a00fa003b
:10532000000f7800110798002207980033079800b3
:10533000440798001e00900000099000900990001a
:105340001e007800f008900060089000be029000f7
:105350002e029000a6f907004e0090002009900050
:10536000b00990002e009000902090000020900046
:10537000aef807002e01900000219800112198003e
:105380000080fa00000006000a00fa00000f780012
:1053900011079800220798003307980044079800e7
:1053a0001e00900000099000900990001e007800f7
:1053b0009010900000109000be0290002e0290000d
:1053c0008bf907004e00900040099000d009900032
:1053d0002e009000902090000020900093f807008d
:1053e0002e01900000219800112198000080fa0001
:1053f000000006000600fa00000f78001107980070
:10540000220798001e007800902090000020900055
:1054100002002000a33f240084f807002e01900022
:1054200060019800710198001e009000902090008b
:105430000020900002002000a33f24007bf807001a
:105440002e01900000099800110998000080fa00d0
:10545000000006000a00fa00889fbe0022b2200069
:10546000a1b3200020b7200096f8070058cebf0057
:105470000000fb006101b900320798004307980063
:1054800010012000010020003e019000ce0190009c
:10549000800f5100818f5900ce023e003e009000e7
:1054a000ce0090000060010011003700430037007b
:1054b0006a00370069003700680037008f00370046
:1054c000e50037003d0137006d0137007c013700f2
:1054d0008b013700e1013700080237002f02370047
:1054e0006102370077023700ba023700a2023700a4
:1054f0008872800099728000205d8000315d80009c
:10550000925b8000a35b80009eec07000801be0058
:105510001bf807000000e000b8023200a87280000b
:10552000b9728000105e8000215e8000f25b800016
:10553000035c800093ec07000801be0010f8070030
:105540000000e000ad0232005ccebf000004e000cd
:1055500001003a007ff6070010c0b3005ceeb70010
:10556000305c8000415c80006011b80006ed0700ef
:105570000000e00001003200a0023700505c800013
:10558000615c80006011b800ffec07000000e000e3
:10559000010032009902370010c0b3005beeb70083
:1055a0005ccebf00e14f500001003a0059f6070001
:1055b00020c0b3005ceeb700900237008872800014
:1055c00099728000205d8000315d8000925b8000d8
:1055d000a35b80006bec07000801be00e8f7070042
:1055e0000000e000850232005ccebf000004e00055
:1055f00001003a0057f6070010c0b3005ceeb70098
:10560000305c8000415c80006011b800deec070077
:105610000000e0000100320078023700505c80009a
:10562000615c80006011b800d7ec07000000e0006a
:10563000010032007102370010c0b3005beeb7000a
:105640005ccebf00e14f500001003a0031f6070088
:1056500020c0b3005ceeb70068023700a87280007b
:10566000b9728000105e8000215e8000f25b8000d5
:10567000035c800043ec07000801be00c0f7070090
:105680000000e0005d0232005ccebf000004e000dc
:1056900001003a002ff6070010c0b3005ceeb7001f
:1056a000305c8000415c80006011b800b6ec0700ff
:1056b0000000e0000100320050023700505c800022
:1056c000615c80006011b800afec07000000e000f2
:1056d000010032004902370010c0b3005beeb70092
:1056e0005ccebf00e14f500001003a0009f6070010
:1056f00020c0b3005ceeb700400237005acebf00b6
:105700000000fb0020079800ae0090000100e000c0
:10571000040032002e019000e10f510026003200fb
:1057200036023700a8728000b9728000105e8000d7
:10573000215e8000f25b8000035c800011ec0700ba
:105740000801be008ef707000000e0002b023200c7
:10575000305c8000415c80006011b8008aec07007a
:105760000000e0000100320024023700505c80009d
:10577000615c80006011b80083ec07000000e0006d
:10578000010032001d0237005acebf000040e80081
:105790005aeeb700a6b32000a5bf2000c4bd20006c
:1057a000e3bb200002ba200021b7200080e32000e4
:1057b000fef807001102370088728000997280009d
:1057c000205d8000315d8000925b8000a35b8000e3
:1057d000eceb07000801be0069f707000000e000dd
:1057e000060232005ccebf000004e00001003a0077
:1057f000d8f5070010c0b3005ceeb700305c800045
:10580000415c80006011b8005fec07000000e00020
:1058100001003200f9013700505c8000615c8000bb
:105820006011b80058ec07000000e00001003200f1
:10583000f201370010c0b3005beeb7005ccebf00d2
:10584000e14f500001003a00b2f5070020c0b3005c
:105850005ceeb700e90137005acebf000000fb0044
:10586000100798009e0190000300e0000400320041
:105870001e029000e10f52001f003200df013700ce
:10588000a8728000b9728000105e8000215e8000e6
:10589000f25b8000035c8000baeb07000801be00e9
:1058a00037f707000000e000d4013200505c8000b0
:1058b000615c80006011b80033ec07000000e0007c
:1058c00001003200cd0137005acebf000040e80091
:1058d0005aeeb700a6b32000a5bf2000c4bd20002b
:1058e000e3bb200002ba200021b7200080e32000a3
:1058f000aef80700c10137008872800099728000fd
:10590000205d8000315d8000925b8000a35b8000a1
:105910009ceb07000801be0019f707000000e0003b
:105920001d0032005ccebf000004e00001003a0020
:1059300088f5070010c0b3005ceeb700305c800053
:10594000415c80006011b8000fec07000000e0002f
:1059500001003200a9013700505c8000615c8000ca
:105960006011b80008ec07000000e0000100320000
:10597000a201370010c0b3005beeb7005ccebf00e1
:10598000e14f500001003a0062f5070020c0b3006b
:105990005ceeb70099013700a6b32000a5bf200038
:1059a000c4bd2000e3bb200002ba200021b72000c4
:1059b00080e320007df807009001370088728000a6
:1059c00099728000205d8000315d8000925b8000d4
:1059d000a35b80006beb07000801be00e8f6070040
:1059e0000000e0001d0032005ccebf000004e000bb
:1059f00001003a0057f5070010c0b3005ceeb70095
:105a0000305c8000415c80006011b800deeb070074
:105a10000000e0000100320078013700505c800097
:105a2000615c80006011b800d7eb07000000e00067
:105a3000010032007101370010c0b3005beeb70007
:105a40005ccebf00e14f500001003a0031f5070085
:105a500020c0b3005ceeb70068013700a6b3200099
:105a6000a5bf2000c4bd2000e3bb200002ba200077
:105a700021b7200080e320004cf807005f013700c9
:105a8000a6b32000a5bf2000c4bd2000e3bb2000ba
:105a900002ba200021b7200080e3200043f807006d
:105aa00021b2200000ba2000e3fc0700805d8000e6
:105ab000915d8000a05d8800b15d88004f013700d6
:105ac000a6b32000a5bf2000c4bd2000e3bb20007a
:105ad00002ba200021b7200080e3200033f807003d
:105ae00021b22000e0bb2000d3fc0700705e8000e4
:105af000815e8000905e8800a15e88003f013700d3
:105b00008872800099728000205d8000315d800085
:105b1000925b8000a35b80001aeb07000801be00c7
:105b200097f607000000e000390032005bcebf00ae
:105b30000004e00036003a0010c0b3005beeb7008e
:105b40005ccebf000004e00001003a0001f5070050
:105b500010c0b3005ceeb70010c0b30058eeb70041
:105b600059cebf000004e00010003200405d80000c
:105b7000515d8000425d8000535d8000cdea0700ea
:105b80000004be00c05d8000d15d80000001be0049
:105b9000fdea07000001be000800be0083ea07001e
:105ba000c0718800d171880010003700405d80000e
:105bb000515d8000425d8000535d8000bdea0700ba
:105bc0000004be00c05d8000d15d800002002000a6
:105bd00003002c00b7ea07000001be000800be0069
:105be00072ea0700c0718800d1718800a6b3200056
:105bf000a5bf2000c4bd2000e3bb200002ba2000e6
:105c000021b7200080e32000e8f70700fb00370001
:105c10005bcebf000004e000f8003a00a6b320000d
:105c2000a5bf2000c4bd2000e3bb200002ba2000b5
:105c300021b7200080e32000dcf7070021b220001c
:105c400000ba20007cfc0700805d8000915d800030
:105c5000a05d8800b15d8800e80037008872800090
:105c600099728000f05f800001608000d25b80004c
:105c7000e35b8000c3ea07000801be0040f60700ae
:105c80000000e000dd0032005ccebf000004e00058
:105c900001003a00aff4070010c0b3005ceeb7009b
:105ca000705c8000815c80006011b80036eb0700fa
:105cb0000000e00001003200d0003700905c80005e
:105cc000a15c80006011b8002feb07000000e0002d
:105cd00001003200c900370010c0b3005beeb7000e
:105ce0005ccebf00e14f500001003a0089f407008c
:105cf00020c0b3005ceeb700c0003700887280009f
:105d000099728000005f8000115f8000b25b8000ac
:105d1000c35b80009bea07000801be0018f607007d
:105d20000000e000b50032005ccebf000004e000df
:105d300001003a0087f4070010c0b3005ceeb70022
:105d4000705c8000815c80006011b8000eeb070081
:105d50000000e00001003200a8003700905c8000e5
:105d6000a15c80006011b80007eb07000000e000b4
:105d700001003200a100370010c0b3005beeb70095
:105d80005ccebf00e14f500001003a0061f4070013
:105d900020c0b3005ceeb700980037008872800026
:105da00099728000005f8000115f8000b25b80000c
:105db000c35b800073ea07000801be00f0f507002e
:105dc0000000e0008d00320088728000997280002f
:105dd000f05f800001608000d25b8000e35b8000a8
:105de00068ea07000801be00e5f507000000e000d2
:105df000820032005ccebf000004e00001003a00e7
:105e000054f4070010c0b3005ceeb700705c800073
:105e1000815c80006011b800dbea07000000e00050
:105e20000100320075003700905c8000a15c8000aa
:105e30006011b800d4ea07000000e0000100320061
:105e40006e00370010c0b3005beeb7005ccebf0041
:105e5000e14f500001003a002ef4070020c0b300cb
:105e60005ceeb70065003700a6b32000a5bf200098
:105e7000c4bd2000e3bb200002ba200021b72000ef
:105e800080e3200049f7070021b22000c0bd2000b8
:105e9000e9fb0700605f8000715f8000805f880021
:105ea000915f880021b22000a0bf2000e2fb070024
:105eb00050608000616080007060880081608800b0
:105ec0004e003700a6b32000a5bf2000c4bd2000af
